:100000000C9450010C9497010C9497010C94970157
:100010000C9497010C9497010C9497010C94970100
:100020000C9497010C9497010C942A200C94FC20BA
:100030000C94B4180C9497010C9497010C949701AC
:100040000C9497010C9497010C9497010C949701D0
:100050000C9497010C941C190C9497010C94970123
:100060000C9497010C9497010C9497010C949701B0
:100070000C9497010C9497010C9497010C949701A0
:100080000C9497010C9497010C9497010C94970190
:100090000C9497010C9497010C9497010C94970180
:1000A0000C9497010C9497010C949701140E140E64
:1000B000460E460E930EB30E38103810F50E920F02
:1000C000A30FA30F04100D1038103110C810C81062
:1000D000DA10DA10D110DA10DA10DA10C810C810FD
:1000E000D610DA10DA10D6106921902182229021E0
:1000F0008222DC21FF2182225522642253005400F7
:10010000550056005F00600061002E025C005D003B
:100110005E002B0059005A005B00670062008500FA
:100120006300580004033000000012035000610017
:10013000620069006C0065003200300000000E03B0
:1001400050006100620069006C006500000004035B
:10015000090409023B00020100A0FA0904000001A1
:10016000030101000921110100012240000705815E
:100170000308000A0904010001030000000921111D
:1001800001000122C0000705820320000A120110AD
:100190000100000008341200000100010203010503
:1001A000010902A10185020901A10005091901291E
:1001B00005150025019505750181029501750381DD
:1001C000010501093009311581257F9502750881E6
:1001D0000609381581257F950175088106050C0AE9
:1001E00038021581257F950175088106C0C005017B
:1001F0000980A10185031A81002A830016010026C7
:100200000300950175108100C0050C0901A101854D
:10021000041A01002A9C02160100269C0295017511
:10022000108100C005010906A1018505050719E037
:1002300029E71500250195087501810205071900B8
:1002400029EF1500250195F07501810205081901B6
:100250002905950575019102950175039101C00568
:10026000010906A101050719E029E71500250195F7
:10027000087501810295017508810105071900299A
:10028000FF150026FF009506750881000508190175
:100290002905950575019102950175039101C0002D
:1002A00011241FBECFEFDAE0DEBFCDBF04B603FEE0
:1002B00027C08091100290911102A0911202B0917A
:1002C00013028730904BA740B04BD1F4109210022C
:1002D00010921102109212021092130214BE84B7EF
:1002E000877F84BF0FB6F894A895809160008861DD
:1002F00080936000109260000FBEE0E0F8E3099583
:1003000011E0A0E0B1E0E0E5F6E402C005900D9256
:10031000A033B107D9F722E0A0E3B1E001C01D92FC
:10032000A031B207E1F70E944E1D0C9426230C94D5
:100330000000811106C0662311F089EF09C08AEF21
:1003400007C0813039F4662311F089EA01C08AEAD6
:100350000C94C10D08959C013A9521153F4138F543
:10036000DC01AA27B270AC01442754709C012227FB
:10037000387094FF0FC090FF02C080E101C080E0A0
:10038000AB2B09F08062452B09F08064232B69F0C8
:1003900080680BC0892F8170AB2B09F08260452BE0
:1003A00009F08460232B09F08860FB01099408950B
:1003B000CF93DF93EC01805E9109089710F02097AE
:1003C00019F464ED7DE002C060E970E1CE010E94A5
:1003D000AB018C2FDF91CF910C94C30CCF93DF93A3
:1003E000EC010E948D0DCE01805E9109089710F0FE
:1003F000209719F46BED7DE002C067E970E1CE0152
:10040000DF91CF910C94AB01CF93DF93EC010E946D
:10041000D801CE01DF91CF910C94EE0181E00895D7
:1004200081E008950C9410021F93CF93DF9300D0C6
:1004300000D01F92CDB7DEB749835A832091510176
:1004400089819A81211112C0662349F00E94EB151F
:10045000182F682F89819A810E94921503C00E94EB
:10046000C015182F69817A81812F04C00E94EB1575
:1004700069817A810F900F900F900F900F90DF910C
:10048000CF911F910C944304FC0140815181628102
:10049000738184810C9414020E941E17811102C082
:1004A0000E94C7170E94D3090E94D7090E945008D2
:1004B0000C9428070E943C0A0C942B07282F2F70BD
:1004C00041F0822F90E02A3010F44D96089506975F
:1004D000089587E290E0089508950C946C020C94BE
:1004E0006D0208950E94B8100E9471022FEF84E3FC
:1004F0009CE0215080409040E1F700C0000087E779
:1005000097E790930108809300080C9442190F9389
:100510001F93CF93DF938C010E944402EC01B8013A
:100520000E941202882309F4A4C1B801CE010E94DE
:10053000C408882309F49DC1B801CE010E94210B93
:10054000882309F496C1C631FCE5DF0739F50E941E
:100550006B16282FF8018281409100015091010112
:10056000882379F02A7A91E009F490E090933001A1
:10057000911102C069E201C065E3CA010E9433180B
:100580000AC080913001811102C069E201C065E3B7
:10059000CA010E943E180E94BA166BC1C7318CE591
:1005A000D80708F03BC1C130ECE5DE0771F4F80173
:1005B0008281882309F45DC18091C601982F9095AE
:1005C00090FB80F98093C60154C1C230FCE5DF077F
:1005D00008F413C1F8018281882309F411C10E9433
:1005E0001E17811102C00E94C7170E9431179093F5
:1005F000020280930102C031FCE5DF0709F4BFC0AD
:1006000008F03FC0C830ECE5DE0709F496C0F0F40E
:10061000C4308CE5D80709F483C068F4C230FCE527
:10062000DF0709F473C0C330DC4509F0DDC08091F9
:100630000102826072C0C630ECE5DE0709F46AC0D0
:1006400008F077C080910102886067C0CC308CE5EB
:10065000D80709F481C058F4CA30FCE5DF0709F473
:1006600070C008F075C080910102806856C0CE301D
:10067000ECE5DE0709F474C008F07DC0809101024A
:1006800089C0CB3F8CE5D80709F44DC008F5C331CC
:10069000FCE5DF0709F47BC068F4C131ECE5DE0757
:1006A00009F471C0C231DC4509F09EC0809101029D
:1006B0008F7733C0C5318CE5D80709F472C008F4D0
:1006C00086C0CA3FDC4509F08FC0809102023EC05F
:1006D000CF3F8CE5D80709F45FC058F4CD3FFCE567
:1006E000DF0709F444C008F43FC080910202826031
:1006F0002DC0C130EDE5DE0709F473C008F45DC01C
:10070000C230DD4509F070C080E06CC0809101020C
:10071000816003C08091010280618093010264C006
:100720008091010211C080910202826080930202D6
:100730005BC0809101028062F0CF809101028064F1
:10074000ECCF8091010288608460E7CF8160EECFBA
:10075000809101028E7FE1CF809101028D7FDDCFFC
:1007600080910102877FD9CF8091020218C08091C9
:1007700002028D7FDBCF809101028F7ECECF8091F0
:1007800001028F7DCACF809101028F7BC6CF8091FD
:100790000102877F8B7FC1CF809102028D7F8E7F88
:1007A000C5CF8091010282FB222720F991E0922798
:1007B00090FB82F990FB83F9B0CF80910202982FD1
:1007C000909591708E7F892B90FB81F9AFCF8091AE
:1007D000010287FB222720F991E0922790FB87F9FD
:1007E0009CCF81E00E94C917809101029091020282
:1007F0000E9442170E94B8103CC0C115DC4539F078
:10080000C801DF91CF911F910F910C940E02F80156
:100810008281882371F10E9472022BC0CE3DECE5EB
:10082000DE0739F4F8018281882319F10E94C71785
:1008300020C0CF3DFCE5DF07A8F4CC3D8CE5D80710
:1008400031F4F80182818823A1F080E008C0CD3D19
:10085000DC45B1F6F8018281882359F082E00E94DC
:10086000ED1D07C0CE018A5F9C45099708F4B2CE02
:10087000C7CF80E0DF91CF911F910F91089580E065
:1008800090E008950895E72FF0E095E0899FE00D4E
:10089000F11D1124EE0FFF1FEE0FFF1FE60FF11DDC
:1008A000EE0FFF1FE450FF4F859194910895880F3C
:1008B000991FFC01EC5DFE4F859194910895CF93B3
:1008C000DF930E9443040E945006EC01811521E54C
:1008D000920708F042C0811560E5960708F02FC125
:1008E000883E910500F5803E910508F0D5C1883A13
:1008F000910570F4853A910508F0A4C08130910506
:1009000009F4CAC108F47BC1049708F0C5C177C1D6
:100910008F3B910508F4A1C0803C910508F46FC19C
:10092000805C9109FBC0C11580E3D80780F4C11534
:1009300090E2D90708F0F0C0C03FD10508F45FC1CC
:10094000CF3FD10511F008F0A7C1D065A5C1C115F1
:1009500020E4D20708F0F0C0E5C0811569E59607EC
:1009600060F5C11588E5D80708F035C1C11594E5D3
:10097000D90778F4C11523E5D20708F011C1C115D4
:1009800062E5D60708F0F6C0DC2FCC27C16FD06A2D
:1009900083C1C11585E5D80708F418C1C11596E5CE
:1009A000D90708F02CC18C2F0E94E4068F71C82F44
:1009B000D0E0DC2FCC27D0626FC18D3B2CE59207B5
:1009C00009F414C1E0F4CB3B8CE5D80709F408C165
:1009D00008F009C1C1152AE5D20708F010C18C2F13
:1009E0008F700E94E40694E0D695C7959A95E1F73A
:1009F000CF70D0E0DC2FCC27D069C82B4DC1803C14
:100A00009C4509F4F9C0C13C8CE5D80760F4CE3BA5
:100A10009CE5D90709F4EDC0CF3BDC4509F0EFC0F8
:100A2000C0E0D2ED39C1CE0190568115904208F058
:100A3000E6C08D2F8F710E94E406DD27D0628F7192
:100A4000D82B2AC1853A910509F4DCC0863A910574
:100A500009F0DBC0C2E8D0E41FC1883A910509F46F
:100A6000D7C0893A910509F4D6C08A3A910509F4AC
:100A7000D5C08B3A910509F4D4C08C3A910509F49C
:100A8000D3C08B3B910509F4D2C08C3B910509F48E
:100A9000D1C08D3A910509F4D0C0803B910509F48D
:100AA000CFC08E3A910509F4CEC08F3A910509F472
:100AB000CDC0813B910509F4CCC0823B910509F47E
:100AC000CBC0833B910509F4CAC0843B910509F46E
:100AD000C9C0853B910509F4C8C0863B910509F45E
:100AE000C7C0873B910509F4C6C0883B910509F44E
:100AF000C5C0893B910509F4C4C08D3B910509F43B
:100B0000C3C08E3B910509F4C2C08A3B910509F42C
:100B1000C1C0C0E0D4E4C0C0CE019F700E945704A1
:100B2000EC01BAC0CE019927D3FF03C0EC01D86C09
:100B3000B3C0EC01D06CB0C0DF70D06AADC08370C0
:100B400021E030E002C0220F331F8A95E2F73C68B3
:100B5000CE0174E0969587957A95E1F78370382BEE
:100B6000CF70C695C69580E2C89FE0011124C22BC4
:100B7000D32B92C04C2F4695469590E2499FA001F9
:100B80001124C370DD2721E030E0C90102C0880FC5
:100B9000991FCA95E2F7EC01C42BD52BDC687CC009
:100BA0004C2F4695469580E2489FA0011124C370C2
:100BB000DD2721E030E0C90102C0880F991FCA95E6
:100BC000E2F7EC01C42BD52BDA6866C0DC2FCC270A
:100BD000C46FD06A61C0DC2FCC27C06FD06A5CC004
:100BE000C0E0D4ED59C0C0E0D5ED56C0C0E0D1EDB5
:100BF00053C0C0E0D0ED50C0C0E0D3ED4DC0C0E068
:100C0000D0E04AC0C1E8D0E447C0C3E8D0E444C063
:100C1000C2EED4E441C0C9EED4E43EC0CAEED4E48E
:100C20003BC0C5EBD4E438C0C6EBD4E435C0C3EB5D
:100C3000D4E432C0C4EBD4E42FC0C7EBD4E42CC05E
:100C4000CCECD4E429C0CDECD4E426C0C3E8D5E490
:100C500023C0CAE8D5E420C0C2E9D5E41DC0C4E978
:100C6000D5E41AC0C1E2D6E417C0C3E2D6E414C08A
:100C7000C4E2D6E411C0C5E2D6E40EC0C6E2D6E4B2
:100C80000BC0C7E2D6E408C0CFE6D4E405C0C0E795
:100C9000D4E402C0CAE2D6E4CE01DF91CF91089538
:100CA0008238910569F1B0F48133910509F46DC082
:100CB00048F48932910509F463C08A32910509F438
:100CC00069C008958533910509F455C089339105AC
:100CD000B9F00895833E910569F138F4803E91059D
:100CE000B1F0823E910509F10895863E9105A9F182
:100CF000873E9105B9F1843E910509F064C023C097
:100D00002091010220FD4FC021FD4DC0089580912A
:100D1000010280FD44C08091020280FF44C08091A6
:100D2000010284FD42C083EE4DC08091010282FF2A
:100D300038C0F5CF8091010282FD33C0809102025C
:100D400080FD31C0ECCF8091020281FF32C08091E2
:100D5000010284FD2AC087EE35C08091010283FF25
:100D600026C0F5CF8091010283FD21C0809102024F
:100D700081FD1FC0ECCF8091010285FD1CC01DC00C
:100D80008091010285FD19C016C08091010286FD87
:100D900016C017C08091010286FD13C010C089E300
:100DA00011C082EE0FC080EE0DC080E00BC086EE59
:100DB00009C084EE07C089E205C085E303C08AE26A
:100DC00001C081E390E008959091010292FF0DC06F
:100DD000282F2871283019F4877F846006C0282FB7
:100DE0002471243011F48B7F886093FF0DC0282F6D
:100DF0002871283119F4877E846106C0282F247158
:100E0000243111F48B7E88612091020220FF0DC0F5
:100E1000382F3871383019F4877F816006C0382F39
:100E20003171313011F48E7F886021FF0DC0282F81
:100E30002871283119F4877E816106C0282F21711D
:100E4000213111F48E7E886194FD877E0895089586
:100E50000C94270708950C942A07E82FF0E0EF5C24
:100E6000FE4F808108950895A7E1B1E041E050E090
:100E700025E02A0F8D91E82FE295EF70F0E031A187
:100E80008F70BA0102C0660F771F8A95E2F7CB0117
:100E9000962F9095932391A392A1892B82A32A1335
:100EA000E9CFA3E1B1E041E050E024E02A0F8D91C9
:100EB000E82FE295EF70F0E031A18F70BA0102C027
:100EC000660F771F8A95E2F7CB01962F90959323B3
:100ED00091A392A1892B82A32A13E9CFA1E3B1E0C8
:100EE000E6E3F1E085E08E0F11921D928E13FCCFA8
:100EF00085E00E9404080C944C026F927F928F92BE
:100F00009F92AF92BF92CF92DF92EF92FF920F9398
:100F10001F93CF93DF9367E171E0A6E3B1E0712CFB
:100F200001E010E0D5E06D2E6A0E7D019C901C92D0
:100F3000EB018991BE01E82FE295EF70F0E091A1FD
:100F40008F70A80101C0440F8A95EAF7892F842B7E
:100F500081A392A1842F8095982392A3D0EADA9559
:100F6000F1F7C3E1CC2EC1E0DC2E20E030E0E60159
:100F700099916E01A92EA2945FE0A522B12CE50102
:100F8000A8A08C90B12C9F7002C0B594A7949A959C
:100F9000E2F7A0FC07C0902F022E01C0990F0A941F
:100FA000EAF701C090E098299C932F5F3F4F2430CF
:100FB0003105E9F691A1892381A382A1482B42A39F
:100FC000119681E0F7019081991201C080E0782AA2
:100FD0006A12ABCF272D45E061E371E086E391E033
:100FE0000E9405080E945A02872DDF91CF911F9120
:100FF0000F91FF90EF90DF90CF90BF90AF909F90B8
:101000008F907F906F9008950895FF920F931F9394
:10101000CF93DF938C01F62ED72FC42F222349F0D4
:1010200081E080933D010E94E61890933C018093FB
:101030003B0180913D018823C1F080913B0190915B
:101040003C010E94F218069780F0EF2DFD2FD80189
:101050004C2F50E0CD01801B910B841795071CF499
:101060008D918193F7CF10923D01DF91CF911F9128
:101070000F91FF900895CF93DF9397FF0DC0FB0171
:101080002281222349F0EC010E946608CE019F775D
:101090000E94A7080E94900881E0DF91CF910895F7
:1010A0008CE090E00E94E42290E0A0E0B0E0809329
:1010B000F5019093F601A093F701B093F80108951C
:1010C0006091F5018CE090E00C94F2220E946B1686
:1010D0008093F9010E947E168091F501813071F0B4
:1010E00048F0823081F08430A1F486EE0E94C10D78
:1010F00088E10DC082EE0E94C30C0BC088E193E032
:101100000E94040206C082EE0E94C30C87E50E9482
:10111000C10D8FE39CE90197F1F700C0000008952D
:101120008091F501813039F040F0823031F0843027
:1011300051F488E206C08CE204C082EE0E948D0D5C
:1011400002C00E94C10D8091F9010C947B160F938F
:101150001F93CF93DF938C01CCE0D0E0C8010C2E1D
:1011600002C0969587950A94E2F78F700E945E02FE
:101170000E94C10D2497CC3F8FEFD80779F7DF91FC
:10118000CF911F910F9108950F931F93CF93DF93EA
:10119000EC018B01FB018281882319F1C33EFCE540
:1011A000DF07C1F050F4C13EECE5DE0781F0C23E3E
:1011B000FCE5DF07B1F481E010C0C43E8CE5D80740
:1011C00059F0C53EECE5DE0761F484E006C01092FC
:1011D000F50105C082E001C083E08093F5010E9423
:1011E0006008B801CE01DF91CF911F910F910C944F
:1011F0003B080E941E17811102C00E94C7170E945F
:101200004F178093FA01282F26952695269530E0D2
:101210002430310524F0877088618093FA01809131
:10122000FA0180FF04C086958695869501C080E00E
:101230000C94D4092091FA01822F86958695869583
:10124000482F50E04330510554F48F5F982F990F89
:10125000990F990F822F8770892B8093FA018091C3
:10126000FA0181608093FA010E9453178091FA017C
:101270008695869586950C94D4098091FA01982FCD
:10128000969596959695A1F0915E990F990F990F65
:101290008770892B8093FA01887F91E009F490E0B0
:1012A0008091FA0190FB80F98093FA010E94531714
:1012B0008091FA018695869586950C94D409809143
:1012C000FA0180FD13C081608093FA01813019F426
:1012D00089E08093FA018091FA010E94531780916E
:1012E000FA018695869586950C94D4090895809187
:1012F000FA0180FF08C08E7F8093FA010E94531785
:1013000080E00C94D40908958091FA0180FD0C943A
:1013100077090C945F099091FA01892F869586953B
:1013200086958F5F8F719770843038F4880F880F9F
:10133000880F892B8093FA0102C09093FA01809163
:10134000FA01887F91E009F490E08091FA0190FB26
:1013500080F98093FA010E9453178091FA018695D3
:10136000869586950C94D409843008F083E0880F24
:10137000880F880F9091FA019770892B8093FA015A
:10138000887F91E009F490E08091FA0190FB80F968
:101390008093FA010E9453178091FA0186958695F1
:1013A00086950C94D409089508950C949901FF92A0
:1013B0000F931F93CF93DF93C0E4D1E02EE231E08F
:1013C0004CE251E061E070E0F1E0C234DF0709F483
:1013D0004DC0F90101919F01A02FA295AF70B0E01F
:1013E0009196EC9191970F70CB01002E01C0880F60
:1013F0000A94EAF7982F90959E2391969C93919743
:1014000092969C919297892B92968C939297FA013F
:101410001191AF01E12FE295EF70F0E0F1A01F70A4
:10142000CB01012E01C0880F0A94EAF7982F9095FE
:101430009F2191A392A1892B82A390968C9190E0F9
:1014400002C0959587950A95E2F781709927E0A1EA
:10145000F0E002C0F595E7951A95E2F7E0FD02C0CD
:10146000E0E001C0E2E08E2B8993AECFDF91CF9117
:101470001F910F91FF900895BF92CF92DF92EF924C
:10148000FF920F931F93CF93DF93CEE3D1E080E4DD
:10149000C82E81E0D82E9EE2E92E91E0F92E0CE2D2
:1014A00011E0B12CD601EC918E2F880F880F8C9310
:1014B000F70191917F01E92FE295EF70F0E020A113
:1014C00030E09F7002C0359527959A95E2F721701C
:1014D0003327D8019D918D01E92FE295EF70F0E05F
:1014E00040A150E09F7002C0559547959A95E2F74C
:1014F000FA01E170FF2740FF02C0E2E0F0E0E22BDA
:10150000F32BE82BD601EC93EF70F0E0E45EFE4F96
:1015100090818881890F8883843024F060E08B2D4E
:101520000E94D50988818D3F24F461E08B2D0E94B3
:10153000D5099881937897FF03C091509C6F9F5F66
:101540009993BFEFCB1ADB0AE1E0BE1619F0BB247A
:10155000B394A8CFDF91CF911F910F91FF90EF909F
:10156000DF90CF90BF9008950F931F93CF93DF9399
:10157000C62FD42F022FFC0182818823C9F06093EB
:1015800044010E94E618909343018093420180E257
:101590008C0F883008F050C0C77081E001C0880F00
:1015A000CA95EAF7DF91CF911F910F910C94D40D5A
:1015B00010914401161330C0809142019091430173
:1015C0000E94F218883C910538F5C0E2CD0F1D1736
:1015D000B9F080E2810F883040F4177081E001C0DB
:1015E000880F1A95EAF70E94DB0DC83048F481E0B5
:1015F0009D2F977001C0880F9A95EAF70E94D40D2D
:10160000802F0E94C10DC830B8F4D77081E001C0AE
:10161000880FDA95EAF70AC080E28C0F883060F410
:10162000C77081E001C0880FCA95EAF7DF91CF91BA
:101630001F910F910C94DB0DDF91CF911F910F91B2
:1016400008959C01CB01233F4CE53407F9F078F471
:10165000283DFCE53F07B9F0293D4CE5340711F181
:10166000273D3C4531F526E241EE61EE1EC0253FA7
:10167000FCE53F0799F070F0263F3C45D1F427E2A6
:1016800045EE66EE12C027E245EE0EC026E241EEC0
:1016900060EE0BC027E245EE64EE07C026E241EEA5
:1016A00062EE03C028E241E065EE0E94B40A80E0E9
:1016B0000895FC018281882319F010924401089555
:1016C00081E0089590934A01809349010895E09143
:1016D0004901F0914A01309721F00190F081E02D0D
:1016E000099480E00895E0914901F0914A01309712
:1016F00099F020911201222359F02091010227FF35
:1017000007C0DC012C9111962C93119725E02C93A6
:101710000280F381E02D09940895E0914901F09150
:101720004A01309739F022E0DC012C930480F581E6
:10173000E02D0994089520914701309148018217C6
:10174000930771F09093480180934701E09149011C
:10175000F0914A01309721F00680F781E02D09943D
:10176000089520914501309146018217930771F049
:101770009093460180934501E0914901F0914A011F
:10178000309721F00084F185E02D0994089585B704
:10179000806885BF85B7806885BF089508950895DE
:1017A0000C94CF0B08950C94D20B0E94C70B0E948F
:1017B000CE0B0C94D00B81E008950E94DD180E949E
:1017C00034070E9453190E94F9080C94D30BCF924E
:1017D000DF92EF92FF920F931F93CF93DF93CDB7DA
:1017E000DEB72B970FB6F894DEBF0FBECDBF0E94B9
:1017F0007D070E94DB0B811111C08FEF89838A83E3
:101800001B820E94E6188160782F9D838C8349811A
:101810005A816B818D810E948F0C56C08CE4C82E3A
:1018200081E0D82E00E010E0E02E802F0E942D07EE
:10183000F60141916F01F42EF82631F40F5F1F4F2E
:101840000530110589F7D9CF9091C60191FF04C0E9
:101850008B870E9433078B8520E030E04F2D50E0CE
:10186000922FBA01022E02C0759567950A94E2F78D
:1018700060FF24C02E83EF8221E030E0690102C0C6
:10188000CC0CDD1C9A95E2F790E08C219D21892BF0
:1018900009F420E028870E94E6188160782F9A8753
:1018A00089874E815F8168858A850E948F0CF80147
:1018B000E45BFE4F8081C826C08206C02F5F3F4F89
:1018C0002430310569F6BACF0E94E51A10914B0118
:1018D0000E94670B1817A1F00E94670B80934B01C1
:1018E0002B960FB6F894DEBF0FBECDBFDF91CF9120
:1018F0001F910F91FF90EF90DF90CF900C946F02AB
:101900002B960FB6F894DEBF0FBECDBFDF91CF91FF
:101910001F910F91FF90EF90DF90CF900895CF939C
:10192000DF93CDB7DEB72B970FB6F894DEBF0FBEAF
:10193000CDBF4F83588769877A878B87DE011196E1
:1019400086E0FD0111928A95E9F785E0FE01379660
:1019500001900D928A95E1F749815A816B817C81D2
:101960008D819E810E9462132B960FB6F894DEBF84
:101970000FBECDBFDF91CF910895FC018081918191
:101980000E942C160895882309F4C6C09CEF980F76
:10199000913A40F4682F80910001909101010E94DA
:1019A00033180DC090E2980F983058F4877091E08A
:1019B00001C0990F8A95EAF7892F0E946E160C9440
:1019C000BA169BE5980F933070F4853A29F0863A61
:1019D00031F083E890E005C081E890E002C082E841
:1019E00090E00C949B0B98E5980F973108F08EC00F
:1019F000883A09F445C0893A09F445C08A3A09F49D
:101A000045C08B3A09F445C08C3A09F445C08B3B7C
:101A100009F445C08C3B09F445C08D3A09F445C032
:101A2000803B09F445C08E3A09F445C08F3A09F469
:101A300045C0813B09F445C0823B09F445C0833B66
:101A400009F445C0843B09F445C0853B09F445C011
:101A5000863B09F445C0873B09F445C0883B09F43F
:101A600045C0893B09F445C08D3B09F445C08E3B18
:101A700009F445C08A3B09F445C080E090E044C0C9
:101A800082EE90E041C089EE90E03EC08AEE90E0A8
:101A90003BC085EB90E038C086EB90E035C083EB2F
:101AA00090E032C084EB90E02FC087EB90E02CC038
:101AB0008CEC90E029C08DEC90E026C083E891E0AA
:101AC00023C08AE891E020C082E991E01DC084E94A
:101AD00091E01AC081E292E017C083E292E014C064
:101AE00084E292E011C085E292E00EC086E292E0CC
:101AF0000BC087E292E008C08FE690E005C080E767
:101B000090E002C08AE292E00C94B10B803F20F09A
:101B10000E94ED190C94DA1A0895882389F19CEF3C
:101B2000980F913A40F4682F809100019091010143
:101B30000E943E180DC090E2980F983058F48770BC
:101B400091E001C0990F8A95EAF7892F0E947416D7
:101B50000C94BA169BE5980F933020F480E090E047
:101B60000C949B0B98E5980F973120F480E090E05F
:101B70000C94B10B803F20F00E94551A0C94DA1A95
:101B80000895CF93C82F0E94C30CC93349F42FEF97
:101B900087EE93E0215080409040E1F700C00000C4
:101BA0008C2FCF910C948D0D882321F00E946E16FE
:101BB0000C94BA160895882321F00E9474160C9490
:101BC000BA160895BF92CF92DF92EF92FF920F93D1
:101BD0001F93CF93DF937C01062FC72FFC01158144
:101BE00012951F70D281D1110E948E160E94641628
:101BF000882379F0DD2369F080E2800F883048F097
:101C000082E00E9405170E94641691E0B82EB92662
:101C100001C0B12CCC2EC2948FE0C822D12CF60189
:101C2000EA5AFF4F0C94CA228C2F807FCF708823F2
:101C300011F0C295C07FDD2399F0CC2309F4CFC108
:101C400080E2800F883010F0011104C08C2F0E94B8
:101C50006E1603C08C2F0E9481160E94BA16BFC157
:101C6000802F0E948D0DCC2309F402C280E2800FE8
:101C7000883010F0011104C08C2F0E94741603C02C
:101C80008C2F0E9487160E94BA16F2C18C2F807F7B
:101C9000CF70803211F0C295C07F002319F001305F
:101CA000C9F022C0DD2371F0112341F0113031F46D
:101CB0000E94A1168C2B0E94A716DAC10E94A116C1
:101CC0008C2B1DC0112319F0113009F4D1C10E94D1
:101CD000B01625C0DD2321F0163008F0C9C10EC0B2
:101CE000153008F0C5C11BC0DD2361F0112331F0B0
:101CF000F701858180FF73C18F7085838C2F0E94CF
:101D0000D40DB6C1112359F0093309F079C1FFEFA1
:101D100027EE83E0F15020408040E1F76FC18C2F27
:101D20000E94DB0DA5C18C2F86958695837090E06F
:101D3000009719F0019761F09BC1DD2321F0802FFE
:101D40009C2F937002C080E090E00E949B0B9BC18F
:101D5000DD2321F0802F9C2F937002C080E090E063
:101D60000E94B10B90C1DD23F9F0053F51F0063F11
:101D700071F0043FA9F48091FB019091FC01816016
:101D80000BC08091FB019091FC01826005C08091A5
:101D9000FB019091FC0184609093FC018093FB0116
:101DA000802F0E94ED191EC0053F51F0063F71F0D3
:101DB000043FA9F48091FB019091FC018E7F0BC040
:101DC0008091FB019091FC018D7F05C08091FB010A
:101DD0009091FC018B7F9093FC018093FB01802FFD
:101DE0000E94551A0E94DA1A4EC18C2F837009F096
:101DF00049C0D11144C1402F429546954770440FC8
:101E0000440F602F6F70862F90E0A0E0B0E0042EAA
:101E100004C0880F991FAA1FBB1F0A94D2F704FFA2
:101E200010C00FE010E020E030E004C0000F111FF0
:101E3000221F331F4A95D2F70095109520953095B3
:101E400003C000E010E09801C695C695C370D0E0CD
:101E5000BC01CD01602B712B822B932BC230D1059D
:101E600059F0C330D10559F0219719F00E94A714F9
:101E700006C10E94951403C10E94B91400C10E94BA
:101E80009314FDC0DD2319F08C2F817001C086955D
:101E9000882309F4F4C0402F429546954770440FBB
:101EA000440F602F6F70862F90E0A0E0B0E0042E0A
:101EB00004C0880F991FAA1FBB1F0A94D2F704FF02
:101EC00010C00FE010E020E030E004C0000F111F50
:101ED000221F331F4A95D2F7009510952095309513
:101EE00003C000E010E09801C695C695C370D0E02D
:101EF000BC01CD01602B712B822B932BC230D105FD
:101F000059F0C330D10559F0219719F00E946D1591
:101F1000B6C00E945B15B3C00E947F15B0C00E947E
:101F2000CE14ADC0CF70DD2339F08C2F0E94F41495
:101F3000802F0E94D40DA3C0802F0E94DB0D8C2F18
:101F40000E9415159CC0023F01F128F4003F41F0AA
:101F5000013FA1F040C0033FF9F0043F39F13BC01D
:101F6000DD2341F0153008F083C08C2F8F710E9463
:101F70003A157EC0163008F07BC0F7CFDD2339F06C
:101F80008C2F8F710E94F41473C0DD23C9F38C2F42
:101F90008F710E9415156CC0DD2329F08C2F8F7175
:101FA0000E94DF1465C00E94DA1462C0DD2349F08C
:101FB000CF718C2F0E94F41463E08C2F0E94F016D6
:101FC00057C081E00E940517123008F451C082E02A
:101FD0000E9405174DC0DD2331F0112389F2802FB7
:101FE0000E94C30C45C0112391F2093349F49FEFBD
:101FF000E7EEF3E09150E040F040E1F700C0000070
:10200000802F0E948D0D34C04C2F4F70602FC70160
:102010000E943F040E94061436C0D11134C0CF7014
:10202000D0E0C230D10599F03CF4209769F02197B7
:10203000F9F40E943D0927C0C430D10571F054F075
:102040002597B1F480E00AC00E941A091CC00E94C2
:10205000840919C00E948B0916C083E00E94B4094C
:1020600012C04C2F4F70602FC7010E9442040BC05A
:1020700028E0C21AD10884E0C816D10420F40E94D6
:10208000670B0E946F02BB20D1F00E94601680FD9A
:1020900016C0F70112820E945A160E94F414C7015A
:1020A0000E9469100E945A16DF91CF911F910F91E3
:1020B000FF90EF90DF90CF90BF900C941515DF91BB
:1020C000CF911F910F91FF90EF90DF90CF90BF9035
:1020D00008950F931F93CF93DF93EC01888199812B
:1020E0002B813C81232BB9F09F3F11F48F3F99F056
:1020F000CE010E948702882371F0688179818A81EC
:102100000E9437168C010E9491150E949214B8010A
:10211000CE010E94E20DDF91CF911F910F910895A2
:10212000882321F00E9481160C94BA160895882302
:1021300021F00E9487160C94BA1608950E948E16FC
:102140000E949E160E94BA160E94801B0E94DA1AF4
:1021500080E090E00E949B0B80E090E00C94B10B3B
:1021600080910001909101010E9449180C949E10E9
:102170000E947E160C94B010E92FE295EF70F0E00B
:102180003297EE30F105B0F4EA59FF4F0C94CA22B1
:10219000803F91F018F4883E68F40EC0843F51F4FB
:1021A0000BC0883E48F0813F29F406C093FB882786
:1021B00080F9089580E0089581E008950E942C162A
:1021C0000E94BC100895CF93DF9300D000D01F92DF
:1021D000CDB7DEB70F900F900F900F900F90DF915B
:1021E000CF910895CF93DF9300D000D000D0CDB72A
:1021F000DEB726960FB6F894DEBF0FBECDBFDF91D7
:10220000CF9108951F93CF93DF93C091520116E0B1
:1022100080915301C81799F0D0E01C9FF0011D9FD9
:10222000F00D1124EC5AFE4F40815181628173817F
:10223000848195810E94F2102196C770E9CFDF91C9
:10224000CF911F9108954091840150918501609133
:1022500086017091870180918801909189010C9489
:10226000F2108091890182958F7009F054C080919D
:102270008601882309F44FC080915201A091530137
:10228000609184017091850140918701509188018E
:10229000B6E08A1709F43FC090E041155105C1F13D
:1022A0007F3F11F46F3FA1F1B89FF001B99FF00D8E
:1022B0001124EC5AFE4F218172132AC0208162132F
:1022C00027C02281211124C023813481241735079E
:1022D00010F421503109241B350B283C3105C0F482
:1022E000209189012F7020612093890126E0289F89
:1022F000F001299FF00D1124E75AFE4F80818F7065
:102300008061808384E891E00E9469100C9402113E
:1023100001968770BECF0895CF92DF92EF92FF9221
:102320000F931F93CF93DF93CDB7DEB762970FB6AE
:10233000F894DEBF0FBECDBF8C0185E0F801DE0151
:102340001D9601900D928A95E1F7D8014C91119656
:102350005C91119712966C9112971396CD90DC9028
:10236000149730918401709185018091870190913B
:102370008801009709F46BC17F3F19F43F3F09F4CE
:1023800066C1E0908601EE2009F4C0C02091890169
:10239000C816D90628F0F601E81BF90BCF0104C0D6
:1023A000809590958C0D9D1DFF24F394883C91059C
:1023B00078F0F12C207F09F0C6C07C2DD98AC88A1C
:1023C00089890E94E31084E891E00E946910B1C0FD
:1023D000822F807F09F046C0751314C0341312C0D9
:1023E000611110C02F702061209389010E94231178
:1023F00084E891E00E94691080918901D8011596C6
:102400008C932EC0CD2819F15F3F11F44F3FF9F0A6
:10241000F62E61111CC0809152012091530136E0CB
:10242000821709F45AC090E0389FF001399FF00DEF
:102430001124EC5AFE4F7181571306C07081471367
:1024400003C07281711103C001968770E9CFF62E27
:10245000662309F427C180918901816080938901F5
:10246000F12C20C1751308C0341306C0611104C0DB
:1024700080918901D801C3C04D875E878D859E8577
:102480006A8B0E94DE106A898823E1F16623D1F10C
:1024900020918901822F82958F7090E0029774F0CD
:1024A000809184019091850198878F831986DB86BE
:1024B000CA862C87CE0107960E94691086E0F80133
:1024C000A4E8B1E001900D928A95E1F70E943111E4
:1024D0000E942311FF24F394E5C04D875E878D850C
:1024E0009E850E942C16292F22952F7030E02230D5
:1024F00031050CF0CBC09F7009F0C5C0805E8830FC
:1025000008F4D0C0C8010E946910E4CFC816D906EB
:1025100008F453C0F601E81BF90BCF01883C910584
:1025200008F450C0F12C7C2DD98AC88A89890E9470
:10253000E310E4E8F1E086E0DF011D928A95E9F717
:102540000E942311AFC0751314C0341312C061115F
:1025500010C080918901F8018583C8010E9469102B
:1025600086E0E4E8F1E0DF011D928A95E9F7FE2CB0
:1025700099C04D875E878D859E856A8B0E94DE108F
:102580006A89882309F4BECF662309F4BBCF209162
:102590008901822F82958F7090E002970CF48ECF84
:1025A00080918401909185019A8389831B82DD82C9
:1025B000CC822E83CE0101967FCF809590958C0D95
:1025C0009D1DACCFF62E662309F49CCF75132EC04B
:1025D00034132CC02091890120FD1FC0822F8295C9
:1025E0008F70D9F0D80115962C9315978F3049F03C
:1025F0008F5F982F9295907F822F8F70892B1596E1
:102600008C93C8010E94691086E0F801A4E8B1E04B
:1026100001900D928A95E1F793CF86E0F801A4E846
:10262000B1E001900D928A95E1F73CC04D875E873D
:102630008D859E850E94DE10811140CF8091890199
:10264000816080938901C8010E9469102BC06623B4
:1026500009F458CF4D875E878D859E850E94DE10D8
:10266000F82E882309F44ECF86E0F801A4E8B1E003
:1026700001900D928A95E1F784E891E00E94BD0CEB
:102680000E9431115DCF811139CF0CC0243031054A
:102690000CF038CF9F7009F431CFF8019581907F0D
:1026A00009F02CCF8F2D62960FB6F894DEBF0FBEC7
:1026B000CDBFDF91CF911F910F91FF90EF90DF90F1
:1026C000CF9008951F93CF93DF93CDB7DEB72C97AC
:1026D0000FB6F894DEBF0FBECDBF4F835887698712
:1026E0007A878B879C87CE0107960E948C1188235E
:1026F00069F08F8198852A853B85232BF1F19F3FD7
:1027000009F063C08F3F09F060C037C086E0FE016A
:102710003796DE01119601900D928A95E1F76F814F
:102720007885EA85FB85309741F17F3F11F46F3F53
:1027300021F12091530130E0C9010196877099275A
:102740004091520150E08417950709F447C069830E
:102750007A83FD83EC8396E0929FD001939FB00D26
:102760001124AC5ABE4FFE01319601900D929A95FC
:10277000E1F7809353010E94021116E0809152010B
:10278000909153018917C1F1189FC00111248C5AEF
:102790009E4F0E948C11882379F1E09152011E9F77
:1027A000F0011124EC5AFE4F408151816281738106
:1027B000848195810E94F2108091520190E00196EF
:1027C0008770992780935201D9CF4F8158856985A9
:1027D0007A858B859C850E94F210CFCF0E94B8101D
:1027E0001092530110925201E4E8F1E086E0DF011B
:1027F0001D928A95E9F7C1CF2C960FB6F894DEBFEB
:102800000FBECDBFDF91CF911F910895EF92FF9240
:102810000F931F93CF93DF938C01892B09F46CC026
:10282000F12CEE24E394E8012196F8018491843799
:1028300040F4843008F051C0813081F0823019F1C9
:102840005BC0853709F444C0A8F19CE7980F903726
:1028500008F052C08F770E948D0D41C00E5F1F4F50
:10286000FE01C49180E28C0F883048F4C7708E2D31
:1028700001C0880FCA95EAF70E94911614C08C2FE8
:102880000E94C30C2DC00E5F1F4FFE01C49180E259
:102890008C0F883058F4C7708E2D01C0880FCA95F0
:1028A000EAF70E9497160E94BA161AC08C2F0E944F
:1028B0008D0D16C00E5F1F4FFE01C491CC2381F019
:1028C0008FE99FE00197F1F700C00000C150F6CFFB
:1028D0000E5F1F4FFE01F49003C00E94C30C8E01D7
:1028E0008F2D882309F49FCFEFE9FFE03197F1F7AF
:1028F00000C000008150F5CFDF91CF911F910F9163
:10290000FF90EF90089508950C9483140E9484140E
:1029100060939D0170939E0180939F019093A0010D
:102920000C949E1008950C9486140F931F9300919D
:102930009D0110919E0120919F013091A001602B7B
:10294000712B822B932B1F910F910C9486140F9354
:102950001F9300919D0110919E0120919F01309144
:10296000A00160237123822393231F910F910C9464
:1029700086140F931F9300919D0110919E01209149
:102980009F013091A00160277127822793271F9113
:102990000F910C94861408950C94CB140E94CC14BF
:1029A0006093990170939A0180939B0190939C018D
:1029B0000C949E1060E070E0CB010C94CE140F9349
:1029C0001F9341E050E060E070E08A019B0104C089
:1029D000000F111F221F331F8A95D2F7C901B801BA
:1029E0001F910F910C94CE140F931F9341E050E070
:1029F00060E070E004C0440F551F661F771F8A9582
:102A0000D2F78091990190919A01A0919B01B09188
:102A10009C018A019B01082B192B2A2B3B2BC901F6
:102A2000B8011F910F910C94CE140F931F9341E0A6
:102A300050E060E070E004C0440F551F661F771F30
:102A40008A95D2F74095509560957095809199013F
:102A500090919A01A0919B01B0919C018A019B01E8
:102A6000082319232A233B23C901B8011F910F9181
:102A70000C94CE140F931F9341E050E060E070E09F
:102A800004C0440F551F661F771F8A95D2F78091A7
:102A9000990190919A01A0919B01B0919C018A01AA
:102AA0009B01082719272A273B27C901B8011F9135
:102AB0000F910C94CE140F931F93009199011091D4
:102AC0009A0120919B0130919C01602B712B822BEC
:102AD000932B1F910F910C94CE140F931F93009181
:102AE000990110919A0120919B0130919C016023E2
:102AF0007123822393231F910F910C94CE140F9373
:102B00001F930091990110919A0120919B0130919E
:102B10009C0160277127822793271F910F910C94A6
:102B2000CE140895990F990F890FA82FA695A695F1
:102B3000A695877051E001C0550F8A95EAF785E0A8
:102B4000A89FD001112420E030E070E0F901EA0FE5
:102B5000FB1FE657FE4F4081CB01022E02C0969527
:102B600087950A94E2F781709927819584278523B8
:102B7000842780832F5F3F4F2530310539F7089533
:102B8000990F990F890F682F669566956695982F0E
:102B9000977085E0689FB001112440E050E080E02C
:102BA000FA01E60FF71FE657FE4F208130E0092EAD
:102BB00002C0369527950A94E2F721703327042E38
:102BC00001C0220F0A94EAF7822B4F5F5F4F453016
:102BD000510531F70895BF92CF92DF92EF92FF92A5
:102BE0000F931F93CF93DF938C01C0909D01D090E2
:102BF0009E01E0909F01F090A00180919901909139
:102C00009A01A0919B01B0919C01C82AD92AEA2A75
:102C1000FB2ACFE1D0E0D701C6010C2E04C0B69547
:102C2000A795979587950A94D2F780FF07C0BC2E89
:102C3000B8018C2F0E945F04019719F4219758F76F
:102C4000B12C8B2DDF91CF911F910F91FF90EF90C1
:102C5000DF90CF90BF900895CF93DF93EC010E9457
:102C6000EB15BE010E945F04DF91CF9108951F9381
:102C7000CF93DF93EB0190915101992321F0CB0188
:102C80000E942C1613C0882349F0CB010E94EB153B
:102C9000182F682FCE010E94921504C0CB010E940C
:102CA000C015182FBE01812F0E945F04DF91CF91C4
:102CB0001F9108958091A101859585958595089529
:102CC0008091A101877008959091A101977081E092
:102CD00009F480E008958091C50108959091C5019F
:102CE000892B8093C501089580959091C501892312
:102CF0008093C50108958093C50108951092C50180
:102D000008959091C401892B8093C4010895809502
:102D10009091C40189238093C40108951092C40145
:102D200008959091C301892B8093C30108958095E4
:102D30009091C30189238093C30108951092C30128
:102D400008958091A201089508950C94A41690917D
:102D5000A201981721F08093A2010C94A516089562
:102D60008091A201882329F01092A20180E00C94A6
:102D7000A5160895E0910001F09101018091C5012F
:102D80008083E0910001F091010190818091C40164
:102D9000892B8083E0910001F09101019081809165
:102DA000C301892B80838091A201882381F0E09167
:102DB0000001F09101019081892B808380910001B5
:102DC000909101010E94CE1781110E94B01680914E
:102DD0000001909101010C94730B08950C94ED1671
:102DE00098E0899F90011124262B2093A1010E9435
:102DF000F4148091A1018595859585950C94EE1626
:102E00001092A10180E00C94EE162091A101809512
:102E100082238093A101982F977079F430E0482F96
:102E2000082E000C550B2417350739F0859585952C
:102E300085950E9415150C940017089580E090E088
:102E40000E94EC2221E08C3E9E4F09F020E0822F70
:102E5000089582E090E00C94E42283E090E00C94EA
:102E6000E422CF9384E090E00E94E422C82F81E224
:102E700090E00E94E4222C2F30E0A901582BCA01D7
:102E8000CF910895CF93C92F682F84E090E00E94DE
:102E9000F2226C2F81E290E0CF910C94F22286E036
:102EA00090E00C94E422682F86E090E00C94F222EB
:102EB000AB01BC018FE090E00C940423AB01BC019A
:102EC00083E190E00C94042360E070E0CB010C946B
:102ED0005E1760E070E0CB010E9458170C946417F5
:102EE0006CEE7EEF80E090E00E94102360E082E0D4
:102EF00090E00E94F22260E083E090E00E94F222E3
:102F000010929D0110929E0110929F011092A001BB
:102F100060E084E090E00E94F22260E081E290E0D4
:102F20000E94F22260E085E090E00E94F22260E0E0
:102F300086E090E00E94F2226FEF87E090E00E942E
:102F4000F22240E050E0BA0188E090E00E940423C1
:102F500060E08DE090E00E94F22240E050E0BA0193
:102F600088E190E00E94042360E087E190E00E9405
:102F7000F22240E050E0BA018CE190E00E9404238C
:102F800060E080E290E00E94F2220C9469170C94B9
:102F90007017682F8EE090E00C94F222FC013296BC
:102FA00080911201882331F08091010287FF02C0D5
:102FB0009EE101C096E080E0915028F0219122230B
:102FC000D9F38F5FF9CF08959C01FC0132969FEFF2
:102FD00080E04191461789F09F3F19F4411101C0EB
:102FE000982F8F5F8630A9F79F3F39F0F901E90FDD
:102FF000F11D97FDFA95628308950895FC013296BC
:1030000008962081261301C010823196E817F9072F
:10301000C1F70895262F2695269526952E3168F41A
:10302000FC01E20FF11D677021E030E001C0220FCA
:103030006A95EAF78281282B22830895262F269508
:10304000269526952E3170F4FC01E20FF11D677074
:1030500021E030E001C0220F6A95EAF720958281D5
:1030600028232283089520911201222329F0209100
:10307000010227FD0C940A180C94E4172091120108
:10308000222329F02091010227FD0C941E180C9494
:10309000FE1720911201FC013296222331F080911B
:1030A000010287FF02C08EE101C086E0DF011D92B0
:1030B0008A95E9F7089508950C945B180E945C18AE
:1030C00080910702843061F11092C70120E488E109
:1030D00090E00FB6F894A895809360000FBE2093FF
:1030E000600080E00E94D40980E00E946F020E948C
:1030F0005C1883B7817F846083BF83B7816083BF9F
:103100007894889583B78E7F83BF0FB6F894A8957F
:1031100080916000886180936000109260000FBE13
:10312000089508950895CF930E9491180E947D07F5
:103130000E949218C0E08C2F0E942D07811104C0BC
:10314000CF5FC530C1F701C081E0CF9108950895E8
:103150000C94A7180E94B8100E94F9080E94670BEF
:103160000E946F020C94A8181F920F920FB60F9234
:1031700011248F939F93AF93BF938091C7018111C7
:1031800013C08091FD019091FE01A091FF01B091CB
:1031900000024196A11DB11D8093FD019093FE0197
:1031A000A093FF01B0930002BF91AF919F918F91C7
:1031B0000F900FBE0F901F90189582E084BD93E092
:1031C00095BD9AEF97BD80936E0008952FB7F89440
:1031D0008091FD019091FE01A091FF01B09100024C
:1031E0002FBF0895CF92DF92EF92FF920F931F931C
:1031F0002FB7F8944091FD015091FE016091FF01BD
:10320000709100022FBF6A017B01EE24FF248C0124
:1032100020E030E0C016D106E206F30610F441507B
:1032200051099A01281B390BC9011F910F91FF9079
:10323000EF90DF90CF90089578941F920F920FB681
:103240000F9211248F939F93AF93BF938091FD01B1
:103250009091FE01A091FF01B09100020196A11D85
:10326000B11D8093FD019093FE01A093FF01B093E7
:103270000002BF91AF919F918F910F900FBE0F9061
:103280001F90189587E797E79093010880930008AF
:103290009AE088E10FB6F894A895809360000FBE7D
:1032A00090936000FFCF0E941E17811102C00E9400
:1032B000C7170E9429178093C6010E943117909367
:1032C0000202809301020E942D17682F70E080E0B7
:1032D00090E00C9493148091CB0180FF0BC060911F
:1032E000050185E0689FB001112475956795759576
:1032F00067952BC081FF09C06091050185E0689F3B
:10330000B00111247595679520C082FF07C06091B8
:10331000050185E0689FB001112417C09091CA0192
:103320009923D1F060910401961788F72091050147
:1033300085E0289F90011124929FA001939F500D3A
:10334000112470E0CA010E94B6226038710540F471
:103350006115710539F002C065E070E0862F0895AF
:103360008FE7089581E008958091CB0180FF08C028
:103370006091030170E0759567957595679521C01B
:1033800081FF06C06091030170E07595679519C0D3
:1033900082FF04C06091030170E010C09091CA01E7
:1033A0009923C1F0609102019617A0F78091030163
:1033B000899FC001112470E00E94B6226038710517
:1033C00028F46115710521F0862F08958FE708957F
:1033D00081E0089561E070E0F4CF803F21F40E9425
:1033E0006B19819504C0813F29F40E946B19809369
:1033F000CF010895823F21F40E946B19819504C08A
:10340000833F29F40E946B198093CE010895893F70
:1034100019F40E94B41905C08A3F31F40E94B4190E
:1034200081958093D00108958B3F21F40E94B419B7
:10343000819504C08C3F29F40E94B4198093D10176
:103440000895843F21F48091CD01816017C0853FAC
:1034500021F48091CD01826011C0863F21F48091DA
:10346000CD0184600BC0873F21F48091CD0188603D
:1034700005C0883F31F48091CD0180618093CD01FA
:1034800008958D3F21F48091CB0181600BC08E3F68
:1034900021F48091CB01826005C08F3F29F4809197
:1034A000CB0184608093CB010895803F39F48091F3
:1034B000CF0187FF6CC01092CF0169C0813F29F412
:1034C0008091CF011816BCF362C09091CE01823F6B
:1034D00029F497FF5CC01092CE0159C0833F19F4C4
:1034E0001916CCF354C0893F41F48091D0011816CD
:1034F0000CF04DC01092D0014AC08A3F29F480914F
:10350000D00187FF44C0F6CF8B3F39F48091D101C1
:1035100087FF3DC01092D1013AC08C3F29F48091C1
:10352000D1011816BCF333C0843F21F48091CD0142
:103530008E7F17C0853F21F48091CD018D7F11C012
:10354000863F21F48091CD018B7F0BC0873F21F412
:103550008091CD01877F05C0883F31F48091CD01F6
:103560008F7E8093CD0113C08D3F21F48091CB01DC
:103570008E7F0BC08E3F21F48091CB018D7F05C0E3
:103580008F3F29F48091CB018B7F8093CB01809179
:10359000CE0181110EC08091CF0181110AC08091AE
:1035A000D001811106C08091D101811102C0109219
:1035B000CA0108958CEC91E00E948D0B0E94E618E0
:1035C0009093C9018093C80108951F93CF93DF930F
:1035D0008091C8019091C9010E94F218AC019091AC
:1035E000CA01992321F02091060130E006C0209104
:1035F00007018AE0289F900111244217530708F41D
:103600007BC08091CE01C091CF01D091D0011091AB
:10361000D101811107C0C1116BC0D11169C0111155
:1036200067C06AC09F3F19F09F5F9093CA01181648
:1036300024F40E946B198093CE018091CE0187FF04
:1036400005C00E946B1981958093CE011C1624F44D
:103650000E946B198093CF018091CF0187FF05C035
:103660000E946B1981958093CF013091CE01332355
:10367000E1F02091CF012223C1F045EB3403C001DA
:103680001124892F990F990B009709F481E08093F9
:10369000CE0135EB2303C0011124892F990F990B1B
:1036A000009709F481E08093CF011D1624F40E9455
:1036B000B4198093D0018091D00187FF05C00E948A
:1036C000B41981958093D001111624F40E94B41985
:1036D0008093D1018091D10187FF05C00E94B41968
:1036E00081958093D101DF91CF911F910C94DA1ACB
:1036F0009F3F09F099CFA1CFDF91CF911F910895FE
:10370000ECECF1E086E0DF011D928A95E9F710927A
:10371000CA011092CB0108958091F20108950F9390
:103720001F93CF93DF9300D01F92CDB7DEB78C01EC
:103730000E94FD1D823011F0843021F584E08983E0
:103740001B830A8382E08093E9008FEF9091E80069
:10375000815095FD06C095ED9A95F1F70000811115
:10376000F5CF8091E80085FF0DC040E050E063E0B8
:1037700070E0CE0101960E941A1E8091E8008E77BB
:103780008093E8000F900F900F90DF91CF911F91E1
:103790000F910895CF93DF9300D01F92CDB7DEB77E
:1037A00020910702243031F523E0298380589109C4
:1037B0009B838A8382E08093E9008FEF9091E800F9
:1037C000815095FD06C095ED9A95F1F700008111A5
:1037D000F5CF8091E80085FF0DC040E050E063E048
:1037E00070E0CE0101960E941A1E8091E8008E774B
:1037F0008093E8000F900F900F90DF91CF91089584
:10380000CF93DF93EC010E94FD1D823011F08430D4
:10381000F9F482E08093E9009FEF8091E8009150F5
:1038200085FD06C085ED8A95F1F700009111F5CF71
:103830008091E80085FF0CC040E050E066E070E059
:10384000CE010E941A1E8091E8008E778093E800D6
:10385000DF91CF910895CF93DF93EC010E94FD1D7E
:10386000823011F08430D9F580911201882339F02B
:103870008091010287FF03C060E282E002C068E03D
:1038800081E08093E9008FEF9091E800815095FDF1
:1038900006C095ED9A95F1F700008111F5CF809162
:1038A000E80085FF1CC080911201811105C040E035
:1038B00050E068E070E003C070E040E050E0CE010E
:1038C0000E941A1E8091E8008E778093E80080E2C3
:1038D000FE01A2EDB1E001900D928A95E1F7DF9132
:1038E000CF91089580910602811109C00E94AF1FF7
:1038F0000E940C208091E20084608093E200089591
:10390000109206020895089508950C94AA1842E0B2
:1039100061EC81E00E94291F42E261EC82E00C949C
:10392000291F80910902833009F460C030F481308E
:1039300071F0823009F499C008958A3009F485C085
:103940008B3009F46BC0893009F0A7C020C080918A
:103950000802813A09F0A1C08091E800877F809336
:10396000E80080910C0290910D02892B21F460E215
:1039700082ED91E003C060E080E090E070E00E94A2
:10398000651E8091E8008B778093E8000895809110
:103990000802813209F081C080910C0290910D02E1
:1039A000029708F07AC08091E800877F8093E80052
:1039B0008091E80082FD05C0809107028111F8CF57
:1039C0006CC02091F3008091F20090E0922B02975E
:1039D00029F48091F1008B7F813021F48091F100F6
:1039E0008093F2018091E8008B7753C080910802A8
:1039F000813A09F052C080910C0290910D02892BFE
:103A000009F04BC08091E800877F8093E8008091A7
:103A1000E80080FFFCCF8091120136C0809108023F
:103A20008132D9F580910C0290910D02892BA9F574
:103A30008091E800877F8093E8000E945E1F80915C
:103A40000A02809312010C94B8108091080281320E
:103A500021F58091E800877F8093E8000E945E1F37
:103A600080910B028093F301089580910802813ABE
:103A7000A1F48091E800877F8093E8008091E800BE
:103A800080FFFCCF8091F3018093F1008091E800EA
:103A90008E778093E8000C945E1F089584B7877F2B
:103AA00084BF0FB6F894A8958091600088618093D8
:103AB0006000109260000FBE80E880936100109259
:103AC00061000E94D50B0E94AF1F0E940C208091C4
:103AD000E20084608093E20078940E949B220E941E
:103AE000DD0B88E091E00E94620B80910702853037
:103AF00069F40E945E18809105028823B1F30E9448
:103B00009318882391F30E94041EEFCF0E94E70BC5
:103B1000ECCF0C948B1D292F332723303105C9F0AE
:103B200064F42130310581F02230310509F04CC0B8
:103B30008BE390E022E531E04BC02132310521F1E9
:103B40002232310589F140C082E190E02DE831E078
:103B50003FC099278130910571F02CF4892BA1F594
:103B6000EEE4F1E00DC08230910541F0039761F57C
:103B7000E4E2F1E005C0EEE3F1E002C0EAE2F1E0E8
:103B8000849190E09F0124C06115710541F061307E
:103B90007105D1F489E090E02DE731E019C089E0AA
:103BA00090E024E631E014C06115710541F0613008
:103BB000710551F480EC90E02FE931E009C080E418
:103BC00090E02FE532E004C080E090E020E030E0BB
:103BD000FA013183208308950895CF93C82F0E945E
:103BE000EC1DC093F401CF910895809107028430B9
:103BF00011F081E0089582E008958091F40181112F
:103C000002C00C94F51D089580E189BD82E189BD53
:103C100009B400FEFDCF8091D8008F7D8093D8003D
:103C20008091E00082608093E0008091E00081FD5F
:103C3000FCCF0895CF92DF92EF92FF920F931F93E4
:103C4000CF93DF93EC018B016A010E947D1F8111EC
:103C500033C0C114D10439F0F60180819181081B71
:103C6000190BC80FD91FE12CF12C0115110519F101
:103C70008091E80085FD16C08091E8008E778093E2
:103C8000E800C114D10449F0F60180819181E80E69
:103C9000F91EF182E08285E00FC00E947D1F88231B
:103CA00021F30AC089918093F10001501109FFEFBF
:103CB000EF1AFF0ADACF80E0DF91CF911F910F91C9
:103CC000FF90EF90DF90CF90089520910E023091F9
:103CD0000F022617370748F06115710539F4209156
:103CE000E8002E772093E80001C0B90140E061159B
:103CF0007105A9F120910702222309F443C0253060
:103D000009F442C02091E80023FD40C02091E80062
:103D100022FD32C02091E80020FFE9CF4091F3005E
:103D20002091F20030E0342BFC01CF0161157105C8
:103D300059F02830310540F481918093F1006150B1
:103D400071092F5F3F4FF1CF41E02830310509F075
:103D500040E02091E8002E772093E800C8CF411181
:103D6000C9CF0AC080910702882361F0853061F0D5
:103D70008091E80083FD0AC08091E80082FFF2CFC5
:103D800080E0089582E0089583E0089581E0089539
:103D900020910E0230910F022617370748F0611567
:103DA000710539F42091E8002E772093E80001C0D6
:103DB000B901FC0120E06115710591F180910702C4
:103DC000882309F440C0853009F43FC08091E800A1
:103DD00083FD3DC08091E80082FD2FC08091E80006
:103DE00080FFE9CF2091F3008091F20090E0922BC8
:103DF0006115710559F08830910540F424912093A4
:103E0000F1003196615071090196F2CF21E00897D7
:103E100009F020E08091E8008E778093E800CBCF16
:103E20002111CCCF0AC080910702882361F0853030
:103E300061F08091E80083FD0AC08091E80082FF74
:103E4000F2CF80E0089582E0089583E0089581E054
:103E50000895982F973058F59093E900981739F006
:103E60007091EC002091ED005091F00003C0242FE0
:103E7000762F50E021FF19C03091EB003E7F309348
:103E8000EB003091ED003D7F3093ED003091EB0081
:103E900031603093EB007093EC002093ED00509371
:103EA000F0002091EE0027FF07C09F5FD3CF8F70F7
:103EB0008093E90081E0089580E0089580910802F0
:103EC00087FF11C08091E80082FD05C08091070244
:103ED0008111F8CF11C08091E8008B770BC08091E1
:103EE0000702882349F08091E80080FFF8CF809195
:103EF000E8008E778093E80008952091E4003091E7
:103F0000E50095E64091EC00842F817040FF22C0CF
:103F10008091E80080FD1CC080910702882391F009
:103F2000853091F08091EB0085FD10C04091E40058
:103F30005091E5004217530729F39A01915011F768
:103F400084E0089582E0089583E0089581E0089573
:103F500080E008954091E80042FFDECF08950E947E
:103F60001D200E942520E0EEF0E0808181608083AA
:103F7000E8EDF0E080818F77808319BCA7EDB0E099
:103F80008C918E7F8C9380818F7E8083109206022D
:103F900008950F931F93CF93DF930E941D200E94DB
:103FA0002520C8EDD0E088818F778883888180685C
:103FB000888388818F7D888319BC109207021092B4
:103FC0000302109205021092040200EE10E0F801C4
:103FD00080818B7F808388818160888342E060E07C
:103FE00080E00E94291FE1EEF0E080818E7F8083D7
:103FF000E2EEF0E080818160808380818860808350
:10400000F80180818E7F8083888180618883DF9141
:10401000CF911F910F910895E8EDF0E080818F7EA0
:104020008083E7EDF0E080818160808384E082BF5F
:1040300081E0809306020C94C91FE8EDF0E08081D6
:104040008E7F80831092E20008951092DA00109221
:10405000E10008951F920F920FB60F9211242F9333
:104060003F934F935F936F937F938F939F93AF9300
:10407000BF93EF93FF938091E10082FF0BC080918B
:10408000E20082FF07C08091E1008B7F8093E10016
:104090000E949A228091DA0080FF1FC08091D80090
:1040A00080FF1BC08091DA008E7F8093DA008091C0
:1040B000D90080FF0DC080E189BD82E189BD09B4CE
:1040C00000FEFDCF81E0809307020E94721C05C0B4
:1040D00019BC109207020E94801C8091E10080FFB1
:1040E00019C08091E20080FF15C08091E2008E7FB0
:1040F0008093E2008091E20080618093E2008091F1
:10410000D80080628093D80019BC85E080930702B4
:104110000E94841C8091E10084FF30C08091E20005
:1041200084FF2CC080E189BD82E189BD09B400FE15
:10413000FDCF8091D8008F7D8093D8008091E100E1
:104140008F7E8093E1008091E2008F7E8093E20079
:104150008091E20081608093E200809103028823D5
:1041600011F084E007C08091E30087FD02C081E088
:1041700001C083E0809307020E94851C8091E100CA
:1041800083FF29C08091E20083FF25C08091E10078
:10419000877F8093E10082E0809307021092030200
:1041A0008091E1008E7F8093E1008091E2008E7F1C
:1041B0008093E2008091E20080618093E20042E01F
:1041C00060E080E00E94291F8091F0008860809369
:1041D000F0000E94831CFF91EF91BF91AF919F91DE
:1041E0008F917F916F915F914F913F912F910F90A0
:1041F0000FBE0F901F9018951F920F920FB60F923F
:1042000011242F933F934F935F936F937F938F93DB
:104210009F93AF93BF93CF93DF93EF93FF93C0919F
:10422000E900CF708091EC00D82FD17080FDD0E8EC
:104230001092E9008091F000877F8093F0007894DD
:104240000E9440211092E9008091F00088608093E4
:10425000F000CD2BCF70C093E900FF91EF91DF917B
:10426000CF91BF91AF919F918F917F916F915F910E
:104270004F913F912F910F900FBE0F901F90189567
:104280001F93CF93DF93CDB7DEB7AA970FB6F894FD
:10429000DEBF0FBECDBFE8E0F2E088E08E0F909168
:1042A000F10091938E13FBCF0E94911C8091E80046
:1042B00083FF28C18091080290910902492F50E0A4
:1042C0004A30510508F01EC1FA01EC58FF4F0C941A
:1042D000CA22803821F0823809F014C108C08091C8
:1042E000040290910502992389F082600FC08091A9
:1042F0000C028F70873008F005C18093E90080912F
:10430000EB0085FB882780F91092E9009091E80086
:10431000977F9093E8008093F1001092F100D0C055
:10432000282F2D7F09F0EEC0882319F0823061F02C
:10433000E9C080910A02813009F0E4C0933009F0AD
:1043400080E0809305022EC080910A0281112AC06C
:1043500080910C028F702FEF280F263008F0D2C00A
:104360008093E9002091EB0020FF1CC0933021F4E2
:104370008091EB00806214C09091EB00906190936B
:10438000EB0021E030E0A90102C0440F551F8A95DF
:10439000E2F74093EA001092EA008091EB00886017
:1043A0008093EB001092E9008091E800877F809372
:1043B000E8000E945E1FA6C08111A4C010910A02ED
:1043C0001F778091E3008078812B8093E3008091B8
:1043D000E800877F8093E8000E945E1F8091E800DC
:1043E00080FFFCCF8091E30080688093E30011118F
:1043F00002C082E001C083E08093070283C080583E
:10440000823008F07FC080910A0290910B028C3DAF
:1044100053E0950779F583E08A838AE289834FB771
:10442000F894DE01139620E03EE051E2E32FF0E045
:1044300050935700E49120FF03C0E295EF703F5F77
:10444000EF708E2F90E0EA3010F0C79601C0C09652
:104450008D939D932F5F243149F74FBF8091E800E2
:10446000877F8093E8006AE270E0CE0101960E94A7
:10447000651E15C060910C0270910D02AE014F5F78
:104480005F4F0E94891DBC01892BE1F19091E800EA
:10449000977F9093E80089819A810E94C81E80913D
:1044A000E8008B778093E8002DC0803859F5809123
:1044B000E800877F8093E800809103028093F100F9
:1044C0008091E8008E7773CF81111CC090910A0211
:1044D0009230C0F48091E800877F8093E800909349
:1044E00003020E945E1F80910302811106C0809129
:1044F000E30087FD02C081E001C084E080930702F1
:104500000E94871C8091E80083FF0AC08091E80028
:10451000877F8093E8008091EB0080628093EB00BE
:10452000AA960FB6F894DEBF0FBECDBFDF91CF9134
:104530001F9108950895CF93809107028823A1F0D9
:10454000C091E900CF709091EC00892F817090FDAF
:1045500080E8C82B1092E9008091E80083FD0E945A
:104560004021CF70C093E900CF91089597FB072EAB
:1045700016F4009407D077FD09D00E94D02207FCE2
:1045800005D03EF4909581959F4F08957095619563
:104590007F4F0895EE0FFF1F0590F491E02D0994D1
:1045A000AA1BBB1B51E107C0AA1FBB1FA617B70759
:1045B00010F0A61BB70B881F991F5A95A9F7809575
:1045C0009095BC01CD010895F999FECF92BD81BDB2
:1045D000F89A992780B50895A8E1B0E042E050E04C
:1045E0000C941823262FF999FECF92BD81BDF89A1D
:1045F000019700B4021639F01FBA20BD0FB6F89427
:10460000FA9AF99A0FBE08950396272F0E94F32273
:104610000E94F222252F0E94F322242F0C94F322D1
:104620000196272F0E94F3220C94F222DC01CB0189
:10463000FC01F999FECF06C0F2BDE1BDF89A3196B2
:1046400000B40D9241505040B8F70895F894FFCF50
:10465000A3012808140A321E8C1B2B1C001CCA1B29
:104660008F1B019032943633343597C600FF01001A
:10467000010000FFFF0000010001FF00F631F5F727
:00000001FF
