:100000000C94D8010C941F020C941F020C941F0234
:100010000C941F020C941F020C941F020C941F02DC
:100020000C941F020C941F020C942A120C9466115B
:100030000C94D0150C941F020C941F020C941F02F8
:100040000C941F020C941F020C941F020C941F02AC
:100050000C941F020C9479150C941F020C941F022F
:100060000C941F020C941F020C941F020C941F028C
:100070000C941F020C941F020C941F020C941F027C
:100080000C941F020C941F020C941F020C941F026C
:100090000C941F020C941F020C941F020C941F025C
:1000A0000C941F020C941F020C941F02F105F10521
:1000B0002B062B067E069A062C082C08A50683071D
:1000C000940794076B0C6F0C960CA30CAB0CCB0C29
:1000D0007F0D7F0D7F0D670D710DCE0CD00CD40CF4
:1000E000FA0C1D0D200D230D470D6E0F950F4811B5
:1000F000950F4811E10F04104811051115115718FB
:1001000057186A186A1860186A186A186A1857180F
:10011000571865186A186A18651800000000000072
:1001200000000000000000000000000000007E0F42
:1001300000D4FFFFFFC700000078000000000000AF
:1001400000002A2B28000000000000000000000032
:10015000000000000029000000002C1E3420212295
:1001600024342627252E362D3738271E1F202122FE
:10017000232425263333362E37381F040506070877
:10018000090A0B0C0D0E0F10111213141516171867
:10019000191A1B1C1D2F3130232D350405060708A5
:1001A000090A0B0C0D0E0F10111213141516171847
:1001B000191A1B1C1D2F3130354C05010902A101F4
:1001C00085020901A100050919012905150025016C
:1001D00095057501810295017503810105010930BD
:1001E00009311581257F9502750881060938158129
:1001F000257F950175088106050C0A3802158125B1
:100200007F950175088106C0C005010980A101859F
:100210000319012AB700150126B700950175108151
:1002200000C0050C0901A101850419012AA00215CD
:100230000126A002950175108100C00660FF0961CA
:10024000A1010962150026FF0095207508810209A9
:1002500063150026FF00952075089102C00501096D
:1002600006A101050719E029E71500250195087584
:100270000181029501750881010507190029FF1503
:100280000026FF009506750881000508190129055B
:10029000950575019102950175039101C009025BF5
:1002A00000030100A0FA0904000001030101000994
:1002B00021110100012240000705810308000A09FD
:1002C00004010002030000000921110100012222A3
:1002D0000007058203200001070503032000010930
:1002E0000402000103000000092111010001228124
:1002F000000705840320000A120110010000000815
:100300006666676602000102030104033000000014
:1003100012035000320030002000760065007200A9
:10032000320000000E0350006100620069006C00A2
:1003300065000000040309045300540055005600F2
:100340005F00600061002B005C005D005E005700F4
:1003500059005A005B002B0062423600630058418E
:1003600053002D02000000002402250226022E0068
:1003700021022202230200001E021F0220020000AE
:10038000270200005400000053000000000000009D
:10039000F400F000F5000000F200F100F3002B0083
:1003A000F9000000FA000000000000004C002900E5
:1003B00011241FBECFEFDAE0DEBFCDBF04B603FECF
:1003C00027C08091230290912402A0912502B09130
:1003D00026028730904BA740B04BD1F410922302F5
:1003E00010922402109225021092260214BE84B7A5
:1003F000877F84BF0FB6F894A895809160008861CC
:1004000080936000109260000FBEE0E0F8E3099571
:1004100011E0A0E0B1E0ECEDFFE302C005900D9229
:10042000AC36B107D9F722E0ACE6B1E001C01D92CD
:10043000A332B207E1F70E9485080C94EC1F0C94DC
:1004400000005F926F927F928F929F92AF92BF92C5
:10045000CF92DF92EF92FF920F931F93CF93DF9390
:10046000CDB7DEB729970FB6F894DEBF0FBECDBF6C
:10047000FC018081918123813481232B31F09F3FC6
:1004800031F491E08F3F19F403C091E001C090E096
:1004900090FD25C67F0185E0DE01119601900D9249
:1004A0008A95E1F7F701228189819A81222349F017
:1004B0000E94BA16182F682F89819A810E943217DC
:1004C00003C00E940717182F69817A81812F0E942B
:1004D000131D8C01F7018281882309F4DDC0C80156
:1004E00082519F45409708F0E9C58FEF93E00E9445
:1004F000751F81110CC3025146EC842E912C0023F0
:1005000079F08114F4E09F0609F401C3C4010E944C
:10051000751F811101C001501FEF811A910AEFCFA1
:100520001E821F8218861986662463943AE0532E31
:1005300084010F5F1F4FC4010E94751F8E831F82AD
:10054000882309F4E4C29FEF980F933060F48F83FF
:100550006E8222E0820E911CC8010E94751F88875E
:10056000811102C0D4C248018E010A5F1F4FF801F9
:1005700020812223E9F2213009F04CC081818130B1
:1005800049F46801F2E0CF0ED11CF80182810E948B
:100590000B1B0AC0823051F46801F2E0CF0ED11C6F
:1005A000F80182810E94AC1A860173C0833049F43D
:1005B0006801F2E0CF0ED11CF80182810E946D1A11
:1005C000F3CF843019F00F5F1F4F63C0F801228111
:1005D0000E5F1F4F80E090E030E0205331092A3059
:1005E000310568F4589EA001599E500D1124C9018F
:1005F000840F951F0F5F1F4FF8012081EDCF0097EB
:1006000009F447C0EFE9FFE03197F1F700C00000BF
:100610000197F5CFE22FF0E0E65CFE4F7490822F59
:1006200086958695869590E0FC01E65DFE4FA49048
:100630002770B12C022E02C0B594A7940A94E2F759
:10064000F1E0AF22BB24FC01E65EFE4FC490D12C4A
:1006500002C0D594C7942A95E2F721E0C222DD2496
:10066000A114B10419F081EE0E94AC1AC114D10496
:1006700019F086EE0E94AC1A872D0E940B1BCD2824
:1006800019F086EE0E946D1AAB2819F081EE0E94D7
:100690006D1A0F5F1F4F6BCF00313FE5130731F02D
:1006A00001318FE51807A9F482E001C081E00E94C2
:1006B00066170E946A0E2BC2C801815E9C45059791
:1006C00040F46FE1600F60936F018CE090E00E9456
:1006D000831F17FF71C0F7018281882309F46CC062
:1006E0008091130280936C011092130280916F012C
:1006F000813071F048F08230C1F08430E1F486EE50
:100700000E940B1B88E115C082EE0E94AC1A13C038
:1007100083E00E944E1A88E10E94AC1A88E10E9490
:100720006D1A83E00E94431A06C082EE0E94AC1A42
:1007300087E50E940B1B8FE39CE90197F1F700C04E
:1007400000005801E894B7F82CE0C22ED12CC50166
:100750000C2C02C0969587950A94E2F7282F2F70EB
:1007600041F0822F90E02A3010F44D9604C0069795
:1007700002C087E290E00E940B1B94E0C91AD108E6
:10078000ECEFCE16EFEFDE0611F780916F018130AE
:1007900039F040F0823031F0843051F488E206C004
:1007A0008CE204C082EE0E946D1A02C00E940B1BF4
:1007B00080916C0180931302033FFCE51F0709F150
:1007C00080F4083D3CE51307C9F0093D8CE51807A6
:1007D00021F1073D9CE5190739F526E241EE61EE6E
:1007E0001FC0053FECE51E07A1F078F0063F2CE5A1
:1007F0001207D1F427E245EE66EE12C027E245EE7D
:100800000EC026E241EE60EE0BC027E245EE64EE3C
:1008100007C026E241EE62EE03C028E241E065EE49
:10082000C7010E94351C73C1F7018281882309F436
:100830003FC110926D010230FCE51F0708F422C190
:1008400006312CE5120738F098012A5F3C45293023
:10085000310508F017C10E94131690937901809317
:10086000780100313CE5130709F4C3C008F041C02A
:1008700008309CE5190709F49AC0F0F40430FCE54F
:100880001F0709F487C068F402303CE5130709F438
:1008900077C003301C4509F0E5C080917801826083
:1008A00076C006309CE5190709F46EC008F07BC0DD
:1008B0008091780188606BC00C30FCE51F0709F45B
:1008C00085C068F40A303CE5130709F474C008F0E9
:1008D00079C00E94381A80917801806858C00E3023
:1008E0009CE5190709F476C008F07FC08091780173
:1008F0008BC00B3FFCE51F0709F44FC018F503310F
:100900003CE5130709F47DC078F401319CE5190733
:1009100009F473C002311C4509F0A4C00E94381AC2
:10092000809178018F7733C00531FCE51F0709F40A
:1009300072C008F486C00A3F1C4509F093C080913C
:1009400079013EC00F3F8CE5180709F45FC058F4E9
:100950000D3FECE51E0709F444C008F43FC0809148
:10096000790182602DC001302DE5120709F475C0B0
:1009700008F45DC002301D4509F074C060E06EC02F
:1009800080917801816003C08091780180618093BB
:10099000780168C08091780111C0809179018260EE
:1009A000809379015FC0809178018062F0CF80915F
:1009B00078018064ECCF8091780188608460E7CF13
:1009C0008160EECF809178018E7FE1CF80917801B8
:1009D0008D7FDDCF80917801877FD9CF809179019C
:1009E00018C0809179018D7FDBCF809178018F7E57
:1009F000CECF809178018F7DCACF809178018F7B97
:100A0000C6CF80917801877F8B7FC1CF809179019C
:100A10008D7F8E7FC5CF8091780182FB222720F9C0
:100A200091E0922790FB82F990FB83F9B0CF8091FF
:100A30007901982F909591708E7F892B90FB81F989
:100A4000AFCF0E94381A8091780187FB222720F9C6
:100A500091E0922790FB87F99ACF61E08EE090E0D9
:100A60000E94831F609178011091790184E090E0E9
:100A70000E94831F612F81E290E00E94831F0E94E9
:100A8000381A45C00631FCE51F0751F58091130265
:100A90008A7A91E009F490E090936E01882311F036
:100AA00065E301C069E281EC91E00E94F91515C08F
:100AB00006311C4509F04DC080916E01882309F470
:100AC0000CC385E3E1ECF1E09281891301C012824D
:100AD000319691E0E73CF907B9F70E948D1617C0EF
:100AE0000115ECE51E0731F00E3D1C4591F50E9405
:100AF00024160DC00E94381A0FEF14E32CE00150A9
:100B000010402040E1F700C000000E94681580916D
:100B10001002877009F4E3C2F7018281882309F487
:100B2000DEC282E029960FB6F894DEBF0FBECDBFBD
:100B3000DF91CF911F910F91FF90EF90DF90CF90B9
:100B4000BF90AF909F908F907F906F905F900C942C
:100B50008B17F70100811181882349F0C8010E9499
:100B6000BA16D82E682FC8010E94321704C0C801D7
:100B70000E940717D82EB8018D2D0E94E61D8C010A
:100B8000982EF701A580A2949FE0A922D280D110CF
:100B90001092120280911002877099F0DD2089F086
:100BA000812F807F803421F080E2800F883048F0F0
:100BB00082E00E948B17809110028770CC24C3942E
:100BC0008111C12CB12EB2948FE0B8228B2D90E010
:100BD0008C30910508F040C2FC01EA5AFF4F0C949A
:100BE000CB1F812F807F1F70882311F01295107FFB
:100BF000DD20B9F0112309F41AC280E2800F883099
:100C000010F0911006C080911302182B109313025C
:100C100005C080911202182B109312020E948D16AB
:100C200006C2802F0E946D1A112309F415C2005EBE
:100C30001095083010F0911006C08091130218230F
:100C40001093130205C08091120218231093120210
:100C50000E948D1601C2812F807F1F70803211F09B
:100C60001295107F992021F0F1E09F16E1F02AC043
:100C7000DD2081F080911402AA2051F001E0A01241
:100C800007C0182B181709F4E7C110931402E4C128
:100C9000812B10C0AA2021F021E0A21609F4DCC1AA
:100CA0000E94871627C0DD2041F035E03A1508F490
:100CB000D3C1812F0E94631ACFC184E08A1508F442
:100CC000CBC118C0DD2049F0AA2099F3F701858136
:100CD00080FFADC18F708583ECCFAA2059F0093316
:100CE00009F0B7C1FFEF17EE23E0F15010402040AC
:100CF000E1F7ADC1812F0E94581AAEC1812F8695B0
:100D00008695837019F0813059F0A6C1DD2019F065
:100D1000C801937002C080E090E00E94131CA2C141
:100D2000DD2019F0C801937002C080E090E00E94BD
:100D3000FD1B98C1802FDD2019F00E94001502C014
:100D40000E9439140E94BA158DC1812F837009F059
:100D500069C0D11085C1902F929596959770990F83
:100D6000990F802F8F70882E912CA12CB12C092ED9
:100D700004C0880C991CAA1CBB1C0A94D2F704FF5F
:100D800012C04FE050E060E070E004C0440F551F17
:100D9000661F771F9A95D2F7DB01CA01809590955F
:100DA000A095B09503C080E090E0DC011695169503
:100DB000412F4370423019F1C8F40091150210918F
:100DC00016022091170230911802413059F08829FB
:100DD0009929AA29BB29BC01CD0160237123822353
:100DE00093230AC0802A912AA22AB32ABC01CD01EA
:100DF000682979298A299B290E94C51731C1882928
:100E00009929AA29BB290091150210911602209157
:100E1000170230911802BC01CD016027712782278B
:100E20009327EACFDD2019F0812F817001C08695CC
:100E3000882309F415C1902F929596959770990F74
:100E4000990F802F8F70882E912CA12CB12C092EF8
:100E500004C0880C991CAA1CBB1C0A94D2F704FF7E
:100E600012C04FE050E060E070E004C0440F551F36
:100E7000661F771F9A95D2F7DB01CA01809590957E
:100E8000A095B09503C080E090E0DC011695169522
:100E9000412F43704230D9F068F50091BD011091A7
:100EA000BE012091BF013091C001413059F0882925
:100EB0009929AA29BB29BC01CD0160237123822372
:100EC00093231EC0802A912AA22AB32A13C08829FC
:100ED0009929AA29BB290091BD011091BE01209139
:100EE000BF013091C001BC01CD016027712782276D
:100EF000932706C0BC01CD01682979298A299B293D
:100F00000E945C17ADC01F70DD2039F0812F0E9458
:100F1000A417802F0E94631AA3C0802F0E94581A22
:100F2000812F0E9466179CC0802F32EF931609F420
:100F300040C0391538F090EF991661F0E1EF9E1638
:100F400099F170C0F3EF9F16D9F124EF921609F4CE
:100F50004EC068C0DD2019F134E03A1508F47CC0B9
:100F60001F7181E090E0A0E0B0E0AC01BD0104C0E1
:100F7000440F551F661F771F1A95D2F78091BD0148
:100F80009091BE01A091BF01B091C0018A019B0167
:100F9000082719272A273B27C901B80125C025E0C2
:100FA0002A1508F459C0DCCFDD2029F0812F8F717C
:100FB0002CC0DD20D9F3812F8F710E9466174CC0A1
:100FC000DD2079F01F7181E090E0A0E0B0E0BC018D
:100FD000CD0104C0660F771F881F991F1A95D2F79D
:100FE00003C060E070E0CB010E945C1735C0DD20DB
:100FF00079F01F71812F0E94A41738E0139FC00160
:101000001124836080931002812F0E94A41724C0B2
:1010100081E00E948B1781E08A15F0F482E00E9443
:101020008B171AC0DD2039F0AA2009F4BFCF802F1A
:101030000E94AC1A11C0AA2009F4BDCF893349F42B
:101040009FEFE7EEF3E09150E040F040E1F700C0A1
:101050000000802F0E946D1A88EF8B0D843010F4F1
:101060000E94291CCC20D9F18091100280FD37C04C
:10107000F70112828595859585950E94A417C70171
:101080000E9421028091100285958595859529966B
:101090000FB6F894DEBF0FBECDBFDF91CF911F9189
:1010A0000F91FF90EF90DF90CF90BF90AF909F9007
:1010B0008F907F906F905F900C9466170031FFE5E2
:1010C0001F0711F481E006C001312FE5120709F076
:1010D000F3CA82E00E94A417ECCA89E2F3CC2996F5
:1010E0000FB6F894DEBF0FBECDBFDF91CF911F9139
:1010F0000F91FF90EF90DF90CF90BF90AF909F90B7
:101100008F907F906F905F900895CF93DF93CDB7CE
:10111000DEB7E2970FB6F894DEBF0FBECDBF84B73F
:10112000877F84BF0FB6F894A8958091600088618E
:1011300080936000109260000FBE90E080E80FB6D0
:10114000F89480936100909361000FBE85B780682A
:1011500085BF85B7806885BF0E94AA110E94C9110A
:101160008091E20084608093E20078948091BC01D9
:101170008823A1F01091E9001F709091EC00892F55
:10118000817090FD80E8182B1092E9008091E800B2
:1011900083FD0E94880E1F701093E90082E084BDD9
:1011A00093E095BD9AEF97BD80936E00ABE0B1E000
:1011B00040E151E061E070E08D91E82FE295EF7041
:1011C000F0E021A18F708B0102C0000F111F8A95E2
:1011D000E2F7C801902F9095922391A392A1892BB9
:1011E00082A34A175B0741F7A0E1B1E044E151E077
:1011F00061E070E08D91E82FE295EF70F0E021A1C1
:101200008F708B0102C0000F111F8A95E2F7C80191
:10121000902F9095922391A392A1892B82A34A1794
:101220005B0741F7E3E7F1E088E791E0ADE9B1E082
:1012300011921D928E179F07D9F70E943E1D1FEF36
:1012400026E731E0115020403040E1F700C00000B7
:101250000E943E1D80919D0180FF0AC080E00E9497
:10126000201D6FEF7FEF80E090E00E94A11F45C43A
:1012700080E090E00E947D1F8C3E9E4F11F00E9406
:1012800024168CE090E00E94751F90E0A0E0B0E092
:1012900080936F0190937001A0937101B0937201DC
:1012A00082E290E00E94751F803281F483E290E038
:1012B0000E94751F803151F484E290E00E94751FF6
:1012C00091E0813109F090E0892F01C080E080FF3A
:1012D00038C480E090E00E947D1F8C3E9E4F11F04C
:1012E0000E94241682E090E00E94751F809397016F
:1012F0000E941316909379018093780183E090E027
:101300000E94751F682F70E080E090E00E94C51772
:1013100079E8872E71E0972E24E231E048E251E02F
:10132000E5E86E2EE1E07E2E61E070E08614970421
:1013300009F44EC0FA01A191AF018A2F82958F70F6
:1013400090E0FC01F1A0AF70EA2E8B0101C0000F0C
:10135000AA95EAF7F02FF095FF22DC019196FC9216
:1013600091979296AC91A02BFC01A2A3D901FD907C
:101370009D01EF2DE295EF70F0E0B1A0BF2DBF70A1
:10138000FB2E6B0101C0CC0CBA95EAF7DC2CD09493
:10139000DB20D1A2D2A0CD28C2A2DC0190968C91F4
:1013A00090E002C095958795EA94E2F78170E0A1FC
:1013B000F0E002C0F595E795FA94E2F7E0FF02C08D
:1013C00092E001C090E0892BF30181933F01AECF01
:1013D00080E091E090937B0180937A01FF24FA945E
:1013E0008E010F5F1F4F33E0632E40E1742EEE2419
:1013F000E39452EA252E51E0352E68E1462E512C19
:101400008091BC01853009F036C08091BC018430E8
:1014100011F110927C0180E40FB6F894A8954092E7
:1014200060000FBE8093600083B7817F846083BFBC
:1014300083B7816083BF7894889583B78E7F83BF9D
:101440000FB6F894A8958091600088618093600041
:10145000109260000FBE8091B201882309F4D0CFB2
:101460000E943E1DEDE9F1E0819181114DC32E16E0
:101470003F06D1F7C5CF0E943E1DE8E9F1E0ADE996
:10148000B1E0C12CD12C3C2D2D9191919227D9F115
:1014900080E0BB24B3944B2D492389F189A33AA35F
:1014A0002B2181E009F480E08BA30E94AE158160BE
:1014B000782F9DA38CA349A15AA16BA18DA10E9455
:1014C000611BF601E856FE4F8081B826B08291E894
:1014D000A92E91E0B92E2DE7C22E21E0D22E25E8CB
:1014E00031E03CA72BA784E291E09EA78DA7A8E25C
:1014F000B1E0BAABA9AB38AB2FA7912C49C08F5F35
:10150000BB0C843041F62FEFC21AD20A35E0C31665
:10151000D10409F0B8CFFEA2FFA218A60E94AE1512
:101520008160782F9AA789A74EA15FA168A58AA597
:101530000E94611BCCCF822B932B8E2BEBA5FCA59D
:101540008193FCA7EBA78F70E82FF0E0EC5EFE4FD5
:101550009081D5018C91890F8C9384300CF04FC011
:10156000D5018C918D3F0CF460C0D5018C918378AE
:1015700087FF03C081508C6F8F5FF50181935F01FE
:101580009394FFEFCF1ADF0A24E0921609F463C0A8
:10159000AFA5B8A98D91B8ABAFA7E82FEE0FEE0FAE
:1015A000A9A9BAA92D91BAABA9ABA22FA295AF70E8
:1015B000B0E090968C9190E02F7002C09595879541
:1015C0002A95E2F79C0121703327ADA5BEA58D9128
:1015D000BEA7ADA7A82FA295AF70B0E090964C9192
:1015E00050E08F7002C0559547958A95E2F7CA0181
:1015F0008170992740FF9FCF82E090E09CCFF60159
:1016000080818F5F8083911002C089EA0BC0F1E076
:101610009F1202C087E006C022E0921202C089E059
:1016200001C08BE00E940B1B9BCFF6018081815093
:101630008083911002C08AEA0BC0F1E09F1202C0C1
:1016400086E006C022E0921202C088E001C08AE073
:101650000E940B1B8ACF86E0E0E9F1E0D8010190FF
:101660000D928A95E1F780919201811105C08091D8
:101670009301882309F46BC080918E0190918F01B2
:101680000E949F159C0190918D01992309F466C2D7
:101690002333310508F45BC09F3F19F09F5F90939F
:1016A0008D0110929401109295018091920118166B
:1016B00024F40E94E014809392018091920187FFAC
:1016C00005C00E94E014819580939201809193015E
:1016D000181624F40E94E0148093930180919301E2
:1016E00087FF05C00E94E01481958093930130919B
:1016F00092013323D1F0209193012223B1F045EBE5
:101700003403C0011124992319F09093920102C06F
:10171000E092920135EB2303C0011124992319F0C3
:101720009093930102C0E09293010E94BA158091B8
:101730008B0190918C0190938F0180938E0186E0B4
:10174000F801A0E9B1E001900D928A95E1F780914E
:101750009401811105C080919501882309F46BC023
:101760008091890190918A010E949F159C0190911E
:101770008D01992309F4F7C12536310508F45BC0C2
:101780009F3F19F09F5F90938D01109292011092EC
:10179000930180919401181624F40E94BE14809342
:1017A00094018091940187FF05C00E94BE14819529
:1017B0008093940180919501181624F40E94BE1420
:1017C000809395018091950187FF05C00E94BE140A
:1017D000819580939501309194013323D1F020912C
:1017E00095012223B1F045EB3403C0011124992364
:1017F00019F09093940102C0E092940135EB230319
:10180000C0011124992319F09093950102C0E09230
:1018100095010E94BA1580918B0190918C01909353
:101820008A018093890186E0F801A0E9B1E0019086
:101830000D928A95E1F70E94291C909196018917D3
:1018400021F00E94291C809396018091BC01843074
:1018500009F0D6CD6092E9008091E80082FFD0CDFA
:101860008091E80085FF21C00E94031381111BC0F5
:1018700080E2A82EB12C680109C08091F100D60148
:101880008D936D01B1E0AB1AB10869F08091E80069
:1018900085FDF3CF8091E8008B778093E8000E946C
:1018A0000313882399F391E001C090E08091E80050
:1018B0008B778093E800992309F4A2CDE9818E2FDC
:1018C00090E0FC013197E331F10508F018C1EE59C1
:1018D000FF4F0C94CB1F1A82E9E0EB8311C18A8180
:1018E000823009F426C1833089F0813009F007C1C4
:1018F0002FB7F8948091A2019091A301A091A40127
:10190000B091A5012FBFBB83AC8322C080919D0104
:101910008B8380919E018C8380919F018D83809128
:10192000A0018E838091A1018F83EAC08A818230D9
:1019300009F0E5C06B817C818D819E810E94D11F61
:1019400085E290E025C04C816B818A810E94ED1C6C
:101950009D838E83D5C0CD80DE80DC24CD24DC2425
:101960008C81AB809A81F8E0AF9E5001112428E26F
:10197000929FA00CB11C1124A80EB11CA80EB11C82
:101980006D2DC50186960E94831F6C2DC50187961B
:101990000E94831FB5C00E94B91CB2C07A82B0C039
:1019A0006A823AE33B83ACC0CA80DB80DC24CD246E
:1019B000DC248C80912C5801C6018A539F4F9501DD
:1019C000201B310B2815390508F09AC04AE3C416CC
:1019D00043E0D40630F40E94751FD50114968C9311
:1019E00002C0F5011482FFEFCF1ADF0A2FEFA21A0F
:1019F000B20AE2CFCA80DB80DC24CD24DC248C80D8
:101A0000912C5801C6018A539F4F9501201B310B21
:101A10002815390508F074C03AE3C31633E0D3063D
:101A200028F4D50114966C910E94831FBFEFCB1A46
:101A3000DB0AEFEFAE1ABE0AE5CF0E94A91C60C018
:101A4000F4E0FA835DC0CA80DB80DC24CD24DC2492
:101A50008C80912C5801C60186969501201B310B74
:101A60002815390508F04CC020EAC216D10430F41C
:101A70000E94751FD50114968C9302C0F501148243
:101A8000FFEFCF1ADF0A2FEFA21AB20AE4CFCA8003
:101A9000DB80DC24CD24DC248C80912C5801C60111
:101AA00086969501201B310B2815390548F530EA3B
:101AB000C316D10428F4D50114966C910E94831F9B
:101AC000BFEFCB1ADB0AEFEFAE1ABE0AE8CF80E019
:101AD0000E94201D6FEF7FEF80E090E00E94A11F29
:101AE0000FC0C8010E946213FFEF01EE14E0F15035
:101AF00000401040E1F700C000000E946815F98224
:101B0000C8010E9462137CCC79BC82E189BD09B412
:101B100000FEFDCF8091D8008F7D8093D80080910A
:101B2000E00082608093E0008091E00081FDFCCFC6
:101B300067CC85E290E00E94751F1B821C821D828B
:101B400008CF60E085E290E00E94831F0E94B91CEC
:101B50000E94A91C81E00E94201DBBCB2D32314088
:101B600008F09CCDF4CD2D32314008F00BCE63CE81
:101B70008091B40187FF11C08091E80082FD05C00B
:101B80008091BC018111F8CF11C08091E8008B7762
:101B90000BC08091BC01882349F08091E80080FF50
:101BA000F8CF8091E8008E778093E8000895982F11
:101BB000973068F59093E900981739F07091EC0030
:101BC0002091ED005091F00003C0242F762F50E0BB
:101BD00021FD02C09F5FECCF3091EB003E7F309340
:101BE000EB003091ED003D7F3093ED003091EB0044
:101BF00031603093EB007093EC002093ED00509334
:101C0000F0002091EE0027FDE5CF80E008958F7071
:101C10008093E90081E008952091BA013091BB01E1
:101C20002617370748F06115710539F42091E8004F
:101C30002E772093E80001C0B901FC0120E0611576
:101C4000710579F18091BC018823F1F18530F1F1C2
:101C50008091E80083FD3CC08091E80082FD2EC0A9
:101C60008091E80080FFEBCF2091F3008091F2009B
:101C700090E0922B6115710551F08830910538F490
:101C800021912093F100615071090196F3CF21E079
:101C9000089709F020E08091E8008E778093E800B3
:101CA000CECF2111CFCF0AC08091BC01882361F033
:101CB000853061F08091E80083FD0AC08091E800E2
:101CC00082FFF2CF80E0089582E0089583E00895D6
:101CD00081E008950F931F938091BD019091BE0103
:101CE000A091BF01B091C0018C019D010670112728
:101CF00022273327BC01CD0106301105210531050E
:101D000011F4686001C0677F1F910F910C945C17FC
:101D10001F93CF93DF93CDB7DEB7AA970FB6F89492
:101D2000DEBF0FBECDBFE4EBF1E08091F100819307
:101D300041E0EC3BF407C9F78091B501833009F429
:101D400062C030F4813071F0823009F49CC0B3C0BD
:101D50008A3009F488C08B3009F46DC0893009F0ED
:101D6000AAC020C08091B401813A09F0A4C080913A
:101D7000E800877F8093E8008091B8019091B901D5
:101D8000892B21F468E089EA91E003C060E080E0FB
:101D900090E070E00E940C0E8091E8008B778093B9
:101DA000E80089C08091B401813209F084C080913B
:101DB000B8019091B901009719F0029709F07BC022
:101DC0008091E800877F8093E8008091E80082FDA1
:101DD00005C08091BC018111F8CF6DC02091F30046
:101DE0008091F20090E0922B029729F48091F1000B
:101DF0008B7F813021F48091F1008093A801809144
:101E0000E8008B7754C08091B401813A09F053C047
:101E10008091B8019091B901892B09F04CC0809153
:101E2000E800877F8093E8008091E80080FFFCCF86
:101E300080910A0137C08091B4018132E1F580912F
:101E4000B8019091B901892BB1F58091E800877FA5
:101E50008093E8000E94B80D8091B60180930A013A
:101E60000E94381A28C08091B401813221F58091F6
:101E7000E800877F8093E8000E94B80D8091B70149
:101E80008093A70118C08091B401813AA1F4809198
:101E9000E800877F8093E8008091E80080FFFCCF16
:101EA0008091A7018093F1008091E8008E77809364
:101EB000E8000E94B80D8091E80083FFE9C180919D
:101EC000B4019091B501492F50E04A30510508F016
:101ED000DFC1FA01EB58FF4F0C94CB1F803821F083
:101EE000823809F0D5C108C08091B1019091B2014A
:101EF000992389F082600FC08091B8018F7087307C
:101F000008F0C6C18093E9008091EB0085FB88272B
:101F100080F91092E9009091E800977F9093E80093
:101F20008093F1001092F1007CC1282F2D7F09F0E1
:101F3000AFC1882319F0823061F0AAC18091B60147
:101F4000813009F0A5C1933009F080E08093B2019F
:101F50002EC08091B60181112AC08091B8018F7086
:101F60002FEF280F263008F093C18093E9002091CD
:101F7000EB0020FF1CC0933021F48091EB008062C5
:101F800014C09091EB0090619093EB0021E030E061
:101F9000A90102C0440F551F8A95E2F74093EA0059
:101FA0001092EA008091EB0088608093EB00109221
:101FB000E9008091E800877F8093E8000E94B80DD7
:101FC00067C1811165C11091B6011F778091E3004F
:101FD0008078812B8093E3008091E800877F809355
:101FE000E8000E94B80D8091E80080FFFCCF80914E
:101FF000E30080688093E300111102C082E001C019
:1020000083E08093BC0144C18058823008F040C115
:102010002091B6013091B7012C3D53E0350779F599
:1020200083E08A838AE289834FB7F894DE011396AE
:1020300020E03EE051E2E32FF0E050935700E491BE
:1020400020FF03C0E295EF703F5FEF708E2F90E0AE
:10205000EA3010F0C79601C0C0968D939D932F5F14
:10206000243149F74FBF8091E800877F8093E800D3
:102070006AE270E0CE0101960E940C0EC0C0809111
:10208000B8019091B901432F552743305105B1F064
:1020900068F44130510509F40AC14230510509F094
:1020A000F7C08BE590E0EDE9F2E057C04132510511
:1020B00089F14232510509F43CC0EAC0C9019927AF
:1020C00081309105B9F070F082309105D9F0039715
:1020D00009F0DEC0EAE0F3E0E4918E2F90E0EAE060
:1020E000F3E038C0E4E3F3E0E4918E2F90E0E4E322
:1020F000F3E030C0E4E2F3E0E4918E2F90E0E4E21C
:10210000F3E028C0E0E1F3E0E4918E2F90E0E0E11D
:10211000F3E020C08330910508F0BAC0880F991F02
:10212000FC01EB5CFE4F0190F081E02D89E090E036
:1021300014C08330910508F0ABC0FC01EE0FFF1F07
:10214000E15DFE4F0190F081E02DDC01A45DBE4F0A
:102150008C9190E0009709F49BC02091E800277FC4
:102160002093E8002091BA013091BB01281739076C
:1021700008F4C90140E0009789F12091BC012223B5
:1021800009F43DC02530D9F12091E80023FD37C086
:102190002091E80022FD2FC02091E80020FFEBCF26
:1021A0004091F3002091F20030E0342B009759F079
:1021B0002830310540F444914093F1003196019765
:1021C0002F5F3F4FF3CF41E02830310509F040E069
:1021D0002091E8002E772093E800CDCF4111CDCF9C
:1021E0000AC08091BC01882351F0853041F0809174
:1021F000E80083FD04C08091E80082FFF2CF809167
:10220000E8008B778093E80043C0803809F040C035
:102210008091E800877F8093E8008091B3018093EC
:10222000F1008091E8008E77C7CE811131C0809196
:10223000B6019091B7019927029754F58091E80073
:10224000877F8093E8001091B6011093B3010E943C
:10225000B80D111106C08091E30087FD02C081E036
:1022600001C084E08093BC0142E061EC81E00E9407
:10227000D70D42E261EC84E00E94D70D42E261ECAE
:1022800082E00E94D70D42E260EC83E00E94D70D0D
:102290008091E80083FF10C08091E800877F8093E1
:1022A000E8008091EB0080628093EB0005C082E142
:1022B00090E0E8EFF2E051CFAA960FB6F894DEBFB7
:1022C0000FBECDBFDF91CF911F9108951F920F9246
:1022D0000FB60F9211242F933F934F935F936F93F9
:1022E0007F938F939F93AF93BF93CF93DF93EF939E
:1022F000FF93C091E900CF708091EC00D82FD1708E
:1023000080FDD0E81092E9008091F000877F8093F3
:10231000F00078940E94880E1092E9008091F000FD
:1023200088608093F000CD2BCF70C093E900FF91BF
:10233000EF91DF91CF91BF91AF919F918F917F915D
:102340006F915F914F913F912F910F900FBE0F9022
:102350001F901895E8EDF0E080818E7F80831092C9
:10236000E2001092DA001092E100A0EEB0E08C9151
:1023700081608C9380818F77808319BCA7EDB0E05A
:102380008C918E7F8C9380818F7E80831092A601AA
:102390000895CF92DF92EF92FF920F931F93CF9306
:1023A000DF93C8EDD0E088818F7E8883E7EDF0E091
:1023B00080818160808384E082BF81E08093A60178
:1023C00088818E7F888302EE10E0F80110821092DF
:1023D000DA0081EEC82ED12CF601108288818F7729
:1023E000888388818068888388818F7D888319BCF1
:1023F0001092BC011092B3011092B2011092B1017F
:1024000090EEE92EF12CF70180818B7F808388810B
:102410008160888342E060E080E00E94D70DF60191
:1024200080818E7F8083F8018081816080838081BC
:1024300088608083F70180818E7F808388818061BE
:102440008883DF91CF911F910F91FF90EF90DF90E4
:10245000CF9008951F920F920FB60F9211242F93D1
:102460003F934F935F936F937F938F939F93AF931C
:10247000BF93EF93FF938091E10082FF09C08091A9
:10248000E20082FF05C08091E1008B7F8093E10034
:102490008091DA0080FF2AC08091D80080FF26C09A
:1024A0008091DA008E7F8093DA008091D90080FFDE
:1024B00018C080E189BD82E189BD09B400FEFDCF6D
:1024C00081E08093BC018091A60181110FC00E9420
:1024D000AA110E94C9118091E20084608093E200F9
:1024E00005C019BC1092BC011092A6018091E100B8
:1024F00080FF17C08091E20080FF13C08091E2004E
:102500008E7F8093E2008091E20080618093E20000
:102510008091D80080628093D80019BC85E08093B8
:10252000BC018091E10084FF32C08091E20084FF11
:102530002EC080E189BD82E189BD09B400FEFDCFD6
:102540008091D8008F7D8093D8008091E1008F7EAC
:102550008093E1008091E2008F7E8093E200809181
:10256000E20081608093E2008091B301882311F042
:1025700084E007C08091E30087FD02C081E001C0D4
:1025800083E08093BC010E94381A0E94291C80912C
:10259000E10083FF27C08091E20083FF23C0809188
:1025A000E100877F8093E10082E08093BC0110927C
:1025B000B3018091E1008E7F8093E1008091E20081
:1025C0008E7F8093E2008091E20080618093E20040
:1025D00042E060E080E00E94D70D8091F0008860CA
:1025E0008093F000FF91EF91BF91AF919F918F91F8
:1025F0007F916F915F914F913F912F910F900FBEFF
:102600000F901F9018952091E4003091E50095E619
:102610004091EC00842F817040FF23C08091E8003E
:1026200080FD1DC08091BC01882399F0853099F010
:102630008091EB0085FD11C04091E4005091E500D0
:102640002417350729F3915011F09A01E1CF84E066
:10265000089582E0089583E0089581E0089580E080
:1026600008954091E80042FFDDCF0895EF92FF9278
:102670000F931F93CF93DF937C018B010E94031371
:10268000811119C0E70101151105A1F08091E80041
:1026900085FD0AC08091E8008E778093E8000E9453
:1026A0000313882381F307C089918093F1000150BF
:1026B0001109E9CF80E0DF91CF911F910F91FF9039
:1026C000EF900895CF932091BC012430F9F4C0918C
:1026D000E900CF703091EC00232F217030FD20E80D
:1026E000C22B22E02093E9002091E80020FF0BC0DC
:1026F00040E050E060E270E00E9436138091E80014
:102700008E778093E800CF70C093E900CF91089551
:102710008091BC01843011F081E0089582E0089539
:102720008091A8010895CF93DF9300D01F92CDB779
:10273000DEB79091BC01943011F589837B836A8365
:102740009093E9008FEF9091E800815095FD06C0CD
:1027500095ED9A95F1F700008111F5CF8091E80091
:1027600085FF0DC040E050E063E070E0CE010196CF
:102770000E9436138091E8008E778093E8000F90D6
:102780000F900F90DF91CF910895CF93DF93EC01DD
:102790000E948813823011F0843031F4BE0184E04D
:1027A000DF91CF910C949313DF91CF910895BC01E9
:1027B00083E00C949313CF93DF93EC010E94881372
:1027C000823011F08430F9F484E08093E9008FEFD7
:1027D0009091E800815095FD06C095ED9A95F1F72E
:1027E00000008111F5CF8091E80085FF0CC040E02A
:1027F00050E066E070E0CE010E9436138091E80060
:102800008E778093E800DF91CF910895CF93DF9387
:10281000EC010E948813823011F0843039F581E098
:102820008093E9008FEF9091E800815095FD06C0FC
:1028300095ED9A95F1F700008111F5CF8091E800B0
:1028400085FF14C040E050E068E070E0CE010E94D7
:1028500036138091E8008E778093E80088E0FE01CF
:10286000A9EAB1E001900D928A95E1F7DF91CF914D
:102870000895803F39F48091930187FF6CC01092D6
:10288000930169C0813F29F4809193011816BCF32C
:1028900062C090919201823F29F497FF5CC0109230
:1028A000920159C0833F19F41916CCF354C0893FE3
:1028B00041F48091940118160CF04DC010929401CF
:1028C0004AC08A3F29F48091940187FF44C0F6CF23
:1028D0008B3F39F48091950187FF3DC0109295019F
:1028E0003AC08C3F29F4809195011816BCF333C08F
:1028F000843F21F4809191018E7F17C0853F21F4A0
:10290000809191018D7F11C0863F21F480919101CA
:102910008B7F0BC0873F21F480919101877F05C099
:10292000883F31F4809191018F7E8093910113C093
:102930008D3F21F4809119028E7F0BC08E3F21F4D0
:10294000809119028D7F05C08F3F29F48091190273
:102950008B7F809319028091920181110EC080912A
:10296000930181110AC080919401811106C0809168
:102970009501811102C010928D0108958091190274
:1029800080FD16C081FD16C082FD18C080918D01AA
:10299000882391F0883290F428E0829FC0011124AE
:1029A00068E270E00E94B71F862F672B29F007C0EE
:1029B00082E0089584E0089581E0089588E0089514
:1029C0008091190280FD14C081FD14C082FD16C0E3
:1029D00080918D01882381F0843180F422E3829FED
:1029E000C001112464E170E00E94B71F862F089592
:1029F0008CE0089589E1089585E0089582E30895C3
:102A0000803F21F40E94E014819504C0813F29F4A5
:102A10000E94E014809393010895823F21F40E9464
:102A2000E014819504C0833F29F40E94E014809350
:102A300092010895893F19F40E94BE1405C08A3F8F
:102A400031F40E94BE1481958093940108958B3FC8
:102A500021F40E94BE14819504C08C3F29F40E9489
:102A6000BE14809395010895843F21F480919101D3
:102A7000816017C0853F21F480919101826011C06F
:102A8000863F21F48091910184600BC0873F21F43F
:102A900080919101886005C0883F31F48091910157
:102AA00080618093910108958D3F21F480911902F6
:102AB00081600BC08E3F21F480911902826005C0B5
:102AC0008F3F29F480911902846080931902089540
:102AD00087E797E790930108809300089AE088E1E0
:102AE0000FB6F894A895809360000FBE9093600095
:102AF000FFCF78941F920F920FB60F9211248F93ED
:102B00009F93AF93BF938091A2019091A301A09155
:102B1000A401B091A5010196A11DB11D8093A20150
:102B20009093A301A093A401B093A501BF91AF918D
:102B30009F918F910F900FBE0F901F9018959C0141
:102B40004FB7F8948091A2019091A301A091A401A4
:102B5000B091A5014FBF821B930B08952FB7F89436
:102B60008091A2019091A301A091A401B091A5012F
:102B70002FBF0895E0917A01F0917B01309749F0E1
:102B800082E0809390010480F581E02D80E991E05E
:102B900009950E94AE1590938C0180938B01089546
:102BA0001F920F920FB60F9211248F939F93AF93A2
:102BB000BF9380917C01811113C08091A2019091FB
:102BC000A301A091A401B091A5014196A11DB11D41
:102BD0008093A2019093A301A093A401B093A501B7
:102BE000BF91AF919F918F910F900FBE0F901F904B
:102BF00018959C01FC0132969FEF80E041914617A9
:102C000089F09F3F19F4411101C0982F8F5F8630E2
:102C1000A9F79F3F39F0F901E90FF11D97FDFA95EA
:102C2000628308950895CF9384E090E00E94751F19
:102C3000C82F81E290E00E94751F2C2F30E0A9017F
:102C4000582BCA01CF9108956CEE7EEF80E090E0A2
:102C50000E94A11F60E082E090E00E94831F60E07C
:102C600083E090E00E94831F1092150210921602DA
:102C7000109217021092180260E084E090E00E9427
:102C8000831F60E081E290E00E94831F60E085E0A6
:102C900090E00E94831F60E086E090E00E94831F26
:102CA0006FEF87E090E00E94831F40E050E0BA01A0
:102CB00088E090E00E94951F60E08DE090E00E9427
:102CC000831F40E050E0BA0188E190E00E94951F28
:102CD00060E087E190E00E94831F40E050E0BA018D
:102CE0008CE190E00E94951F60E080E290E00E94FD
:102CF000831F40E050E0BA018FE090E00E94951FF2
:102D000040E050E0BA0183E190E00C94951F80917F
:102D1000140281111092140208959091130280916F
:102D20001202892B20911102982F922B9093C101AE
:102D300080911402882389F0892B8093C101E3ECF0
:102D4000F1E097E080E0915029F021912223D9F31E
:102D50008F5FF9CF81110E948716E0917A01F0917F
:102D60007B01309731F00280F381E02D81EC91E01E
:102D700009940895BF92CF92DF92EF92FF920F9342
:102D80001F93CF93DF938C01C090BD01D090BE0103
:102D9000E090BF01F090C001809115029091160261
:102DA000A0911702B0911802C82AD92AEA2AFB2A50
:102DB000CFE1D0E0D701C6010C2E04C0B695A7958F
:102DC000979587950A94D2F780FD04C0219790F7D4
:102DD000B12C07C0BC2EB8018C2F0E94E61D0197B4
:102DE000A9F38B2DDF91CF911F910F91FF90EF9061
:102DF000DF90CF90BF900895CF93DF93EC010E94B6
:102E0000BA16BE010E94E61DDF91CF910895990F79
:102E1000990F890F682F669566956695982F97701C
:102E200085E0689FB001112440E050E080E0FB01A4
:102E3000E40FF51FEF5FFD4F208130E0092E02C047
:102E4000369527950A94E2F721703327042E01C0A6
:102E5000220F0A94EAF7822B4F5F5F4F45305105EE
:102E600031F70895990F990F890FE82FE695E695A8
:102E7000E695877051E001C0550F8A95EAF785E025
:102E8000E89FF0011124EF5FFD4F20E030E070E09B
:102E90004081CB01022E02C0969587950A94E2F7F5
:102EA0008170819584278523842781932F5F3F4FED
:102EB0002530310569F708956093BD017093BE0117
:102EC0008093BF019093C0010C941D1A0F931F9320
:102ED00041E050E060E070E004C0440F551F661F01
:102EE000771F8A95D2F7409550956095709580919F
:102EF000BD019091BE01A091BF01B091C0018A01B6
:102F00009B01082319232A233B23C901B8011F91E0
:102F10000F910C945C17209110028095822380936E
:102F20001002982F977079F430E0482F082E000C8B
:102F3000550B2417350739F08595859585950E94A1
:102F400066171092100208950F931F9341E050E00E
:102F500060E070E004C0440F551F661F771F8A951C
:102F6000D2F78091BD019091BE01A091BF01B091B7
:102F7000C0018A019B01082B192B2A2B3B2BC9016D
:102F8000B8011F910F910C945C1760931502709318
:102F9000160280931702909318020C941D1A8091C8
:102FA00000029091CF01891719F08F5F8770FBCFD6
:102FB00008950F931F93CF93DF938091CE01829555
:102FC0008F7009F05DC08091CB01882309F458C04F
:102FD000809100021091CF016091C9017091CA01E6
:102FE000C091CC01D091CD0191E06F3F09F090E00C
:102FF000292F06E0811709F443C0209721F07F3F75
:1030000021F030E003C031E001C0322F90E030FD0C
:1030100034C0089FF001099FF00D1124DF01A05377
:10302000BE4F11963C911197371327C03C91361330
:1030300024C012963C91129731111FC013964D91E6
:103040005C9114974C1B5D0B483C5105B0F480918A
:10305000CE018F7080618093CE01EB52FE4F808154
:103060008F708061808389EC91E00E942102DF9162
:10307000CF911F910F910C94CF1701968770BACF03
:10308000DF91CF911F910F9108950E94FC16292F77
:103090002F70E92FE295EF704E2F50E0FA01329732
:1030A000EE30F105B8F4E158FF4F0C94CB1F803F90
:1030B00099F018F4883E70F40FC0843F59F40CC0A6
:1030C000883E50F0813F31F407C0822F8695869567
:1030D0008695089580E0089581E008959F92AF92CB
:1030E000BF92CF92DF92EF92FF920F931F93CF93F5
:1030F000DF93CDB7DEB761970FB6F894DEBF0FBE92
:10310000CDBF8C0185E0F801DE011D9601900D9286
:103110008A95E1F7F80190818181E2803091C901BF
:103120006091CA014091CC015091CD0141155105EA
:1031300031F06F3F31F421E03F3F19F403C021E04B
:1031400001C020E0F22FF1709F2E20FD23C1F80175
:10315000C380D48029ECA22E21E0B22EF090CB01C6
:10316000F601E41BF50BFF2009F4CEC02091CE013F
:10317000E83CF10508F099C0422F407F09F051C0AA
:10318000681311C039130FC0FE2CE1100CC02F7052
:1031900020612093CE01C5010E9421028091CE01C1
:1031A000F801858337C1CD2831F08F3F31F421E01C
:1031B0009F3F19F403C021E001C020E020FD03C0BF
:1031C00021E02E2502C020E030E0F22FF170FF2E2A
:1031D00020FF1DC0209100024091CF0156E024172E
:1031E00009F4F6C030E0529FF001539FF00D112416
:1031F000E053FE4F6181861306C06081961303C0C1
:103200006281E61204C02F5F3F4F2770E8CFFE2C8B
:10321000EE2009F4FFC08091CE0181608093CE0141
:1032200050C0681307C0391305C0E11003C0F8018E
:1032300025838DC09D878E878D859E850E9445182C
:10324000882369F1EE2059F12091CE01822F8295D9
:103250008F7090E0029774F08091C9019091CA013B
:1032600098878F831986DB86CA862C87CE010796BE
:103270000E94210286E0F801A9ECB1E001900D92D4
:103280008A95E1F70E94D9170DC06817E1F09D8774
:103290008E878D859E850E94451881111EC0C801AC
:1032A0000E942102FF24F394B5C0422F407F69F7AA
:1032B00089EC91E00E94210286E0F50111928A9545
:1032C000E9F7F12CA7C03913E2CFE110E0CFF80104
:1032D0002583C8010E94210257C0EE2001F32091EE
:1032E000CE01822F82958F7090E002971CF2809120
:1032F000C9019091CA019A8389831B82DD82CC82A5
:103300002E83CE010196B4CFE83CF105E8F5FE2C02
:10331000EE2029F2681327C0391325C02091CE0171
:1033200020FD18C0822F82958F70482F50E04115E4
:10333000510581F0F80125834F30510541F08F5F31
:10334000982F9295907F822F8F70892B8583C8014B
:103350000E94210286E0F801A9ECB1E001900D92F3
:103360008A95E1F757C09D878E878D859E850E943F
:10337000451881117FCF8091CE0181608093CE016D
:10338000C8010E94210246C086E0F50111928A958B
:10339000E9F740C0EE2009F482CF9D878E878D85A6
:1033A0009E850E944518F82E882309F478CF86E080
:1033B000F801A9ECB1E001900D928A95E1F78091B6
:1033C000C9019091CA010E94FC160E94D91722C01F
:1033D0009D878E878D859E850E94FC16292F2295BC
:1033E0002F70223028F49F7039F0811105C00BC076
:1033F000243028F49F7049F4805E883020F0C801A2
:103400000E9421029F2CF92C05C0F8019581907F24
:1034100099F7F9CF8F2D61960FB6F894DEBF0FBEE6
:10342000CDBFDF91CF911F910F91FF90EF90DF9073
:10343000CF90BF90AF909F9008951092120210927B
:1034400011020E948D16E0E9F1E086E0DF011D9295
:103450008A95E9F710928D01109219020E94BA150F
:1034600080E090E00E94131C80E090E00C94FD1B33
:103470001092130286E0E3ECF1E0DF011D928A95E1
:10348000E9F70C941D1A882341F08095909112025F
:103490008923809312020C948D160895882339F0A5
:1034A00090911202892B809312020C948D1608952C
:1034B000882341F080959091130289238093130211
:1034C0000C948D160895882339F090911302892B5E
:1034D000809313020C948D1608958823E1F19CEFDC
:1034E000980F913A60F4E1ECF1E09281891301C008
:1034F0001282319641E0E73CF407B9F714C090E23C
:10350000980F983090F4877021E030E0A90102C054
:10351000440F551F8A95E2F7CA01809590911302D6
:103520008923809313020C948D169BE5980F93309A
:1035300020F480E090E00C94131C98E5980F9731EC
:1035400020F480E090E00C94FD1B803F20F00E946E
:1035500039140C94BA150895CF93882309F459C0EF
:10356000C82F8CEF8C0F813AF8F4E3ECF1E089EC92
:1035700091E02191C21721F08E179F07D1F70EC05D
:10358000E1ECF1E087EC91E02281C21301C01282EC
:1035900031968E179F07C1F70E948D166C2F81EC14
:1035A00091E00E94F91510C080E28C0F883078F409
:1035B000C77081E090E001C0880FCA95EAF790914A
:1035C0001302892B80931302CF910C948D16EBE597
:1035D000EC0FE33040F4F0E0E55CFE4F808190E0DA
:1035E000CF910C94131CE8E5EC0FE73150F4F0E0B8
:1035F000EE0FFF1FE25CFE4F80819181CF910C9412
:10360000FD1BC03F30F08C2F0E940015CF910C9411
:10361000BA15CF910895CF93C82F0E94AC1AC93321
:1036200049F42FEF87EE93E0215080409040E1F77E
:1036300000C000008C2FCF910C946D1A90917801EE
:1036400092FF0DC0282F2871283019F4877F8460DD
:1036500006C0282F2471243011F48B7F886093FFDB
:103660000DC0282F2871283119F4877E846106C087
:10367000282F2471243111F48B7E886120917901E7
:1036800020FF0DC0382F3871383019F4877F8160E2
:1036900006C0382F3171313011F48E7F886021FFE0
:1036A0000DC0282F2871283119F4877E816106C04A
:1036B000282F2171213111F48E7E886194FD877E3F
:1036C00008951F93CF93DF93CDB7DEB767970FB6FB
:1036D000F894DEBF0FBECDBF4B8B5C8B6D8B7E8BAA
:1036E0008F8B86E09E01235F3F4FD901E82F1D920B
:1036F000EA95E9F795E0FE017396D90101900D92E4
:103700009A95E1F7F901DE01179601900D928A95DD
:10371000E1F7CE0107960E946E1881113EC086E047
:10372000FE013796DE01119601900D928A95E1F720
:10373000FF81E8856A857B856115710531F0EF3F72
:1037400031F481E0FF3F19F403C081E001C080E063
:1037500080FD23C02091CF0130E0C9010196877020
:1037600099274091000250E08417950779F1F98379
:10377000EA837D836C8396E0929FD001939FB00D86
:103780001124A053BE4FFE01319601900D929A95DF
:10379000E1F78093CF010E94CF1716E080910002DD
:1037A0009091CF018917F9F0189FC001112480531F
:1037B0009E4F0E946E188823B1F08091000290E025
:1037C00001968770992780930002E8CF0E94381AEB
:1037D0001092CF0110920002E9ECF1E086E0DF01E7
:1037E0001D928A95E9F767960FB6F894DEBF0FBE73
:1037F000CDBFDF91CF911F9108952091210230918B
:1038000022022817390771F0909322028093210237
:10381000E0917A01F0917B01309721F00084F185ED
:10382000E02D0994089520911F023091200228175D
:10383000390771F09093200280931F02E0917A0182
:10384000F0917B01309721F00680F781E02D0994FB
:103850000895E0917A01F0917B01309721F0019079
:10386000F081E02D099480E008950F931F93CF938A
:10387000DF93C62FD42F122FFC0182818823C9F039
:1038800060936D010E94AE1590931E0280931D02FD
:1038900080E28C0F883008F057C0C77081E001C00B
:1038A000880FCA95EAF7DF91CF911F910F910C9481
:1038B000631A80916D01681330C080911D02909150
:1038C0001E020E949F15883C910538F500E20D0FFD
:1038D000CD17B9F080E28C0F883040F4C77081E0DA
:1038E00001C0880FCA95EAF70E94581A083028F5D7
:1038F00081E09D2F977001C0880F9A95EAF70E948A
:10390000631A812F0E940B1B0830F0F4D77081E0FE
:1039100001C0880FDA95EAF70AC080E28C0F883080
:1039200098F4C77081E001C0880FCA95EAF7DF916B
:10393000CF911F910F910C94581A812FDF91CF9145
:103940001F910F910C940B1BDF91CF911F910F9141
:103950000895CF93DF93C6ECD0E060E0CE010E94E3
:10396000831F2196C11584E0D807B9F7DF91CF9165
:103970000895CF92DF92EF92FF920F931F93CF9310
:10398000DF93C0E0D0E08E01085D1F4F6E0188E03C
:10399000C80ED11CFE01E85CFC4FE590F4906F2D41
:1039A000CE0186960E94831F6E2DCE0187960E94BF
:1039B000831F2296CC15DD0569F70C171D0731F71B
:1039C000E801003A1105F9F6DF91CF911F910F91AF
:1039D000FF90EF90DF90CF9008950F931F93CF93B8
:1039E000DF93C42FD0E0CC0FDD1F28E0629FC00D15
:1039F000D11D112438E2839FC00DD11D1124CE01A9
:103A000086960E94751F082F10E0102F0027CE0108
:103A100087960E94751F9801282BC901DF91CF91CD
:103A20001F910F910895462F843038F4753028F493
:103A3000643018F4672F0C94ED1C80E090E008953A
:103A4000CF93C82F811102C06FEF01C060E282E204
:103A500090E00E94831FC11102C06FEF01C060E1BE
:103A600083E290E00E94831FC11102C06FEF01C08A
:103A700061E184E290E0CF910C94831F8F929F923A
:103A8000AF92BF92CF92DF92EF92FF920F931F936C
:103A9000CF93DF930BE011E0A3E7B1E028E7C22E5C
:103AA00021E0D22E912CEE24E394F12CE8018991AF
:103AB0008E01E82FE295EF70F0E021A18F70A70151
:103AC00002C0440F551F8A95E2F7CA01242B21A397
:103AD00022A1342F3095232322A350EA5A95F1F7DF
:103AE00090E1A92E91E0B92E60E070E020E0E501C0
:103AF00089905E01482D42954F7050E0EA0148A13F
:103B000050E0D82DDF7002C055954795DA95E2F761
:103B100040FD07C04E2D062E01C0440F0A94EAF75F
:103B200001C040E0242B6F5F7F4F64307105F9F6D0
:103B300091A1392331A392A1892B82A38C912817BB
:103B400019F02C9381E001C080E0982A1196CA16E2
:103B5000DB0609F0ABCF992049F081E080931C028D
:103B60000E94AE1590931B0280931A0280911C0252
:103B70008823F1F080911A0290911B020E949F15F8
:103B80000697B0F08091730180939D01809174013C
:103B900080939E018091750180939F0180917601B1
:103BA0008093A001809177018093A10110921C0263
:103BB000892DDF91CF911F910F91FF90EF90DF90B2
:103BC000CF90BF90AF909F908F900895CF93DF9349
:103BD0000E94131DEC018238910559F1A0F4813344
:103BE000910509F473C040F48932910509F467C066
:103BF0008A9709F472C084C08533910509F458C0CE
:103C0000C997B9F07DC0833E910571F138F4803ECB
:103C10009105B1F0823E910511F172C0863E910589
:103C2000B9F1873E9105C9F1843E910509F068C05C
:103C300024C08091780180FD5DC081FD5BC060C0C3
:103C40008091780180FD50C08091790180FF49C149
:103C50008091780184FD43C1C3EED0E042C18091E0
:103C6000780182FF3EC1F4CF8091780182FD3FC090
:103C70008091790180FD3EC0EBCF8091790181FF79
:103C800030C18091780184FD2AC1C7EED0E029C1FE
:103C90008091780183FF25C1F4CF8091780183FD65
:103CA0002CC08091790181FFECCFC4EED0E019C126
:103CB0008091780185FF15C1C9E2D0E012C18091E1
:103CC000780185FF0EC1C5E3D0E00BC1809178017A
:103CD00086FF07C1CAE2D0E004C18091780186FF67
:103CE00000C1C1E3D0E0FDC0C9E3D0E0FAC0C2EE3C
:103CF000D0E0F7C0C0EED0E0F4C0C6EED0E0F1C036
:103D0000C11581E5D80708F066C0C11520E5D207C6
:103D1000E0F0CE0174E0969587957A95E1F783708F
:103D20009C2F937021E030E002C0220F331F9A9540
:103D3000E2F73C68382BCF70C695C69540E2C49F29
:103D4000E0011124C22BD32BCCC0C83ED10560F5B5
:103D5000C03ED10508F0C5C0C83AD105B0F4C53A97
:103D6000D10540F0C55AD0E0C55CDE4FC881D0E037
:103D7000D064B7C0C130D10509F4B3C008F4AFC0F6
:103D8000C430D10508F4ABC0ACC0CF3BD10508F0BE
:103D9000A6C0C85AD0E0CC0FDD1FC25CDE4F099030
:103DA000D881C02DD4649DC0C11540E2D40758F419
:103DB000C11581E0D80708F094C0C03FD10508F4D0
:103DC0008EC0D0658EC0C11520E4D20708F487C02C
:103DD000DF70D06A86C0C11545E5D40708F042C03F
:103DE000C11584E5D80728F0DC2FCC27C46FD06A32
:103DF00078C0C11523E5D207B0F0CE0183709927B2
:103E000021E030E002C0220F331F8A95E2F78C2FA9
:103E10008695869540E2849FC0011124E901C82B54
:103E2000D92BDA685EC0C11542E5D40728F4DC2F2F
:103E3000CC27C16FD06A55C0CE018370992721E08D
:103E400030E002C0220F331F8A95E2F78C2F86954F
:103E5000869540E2849FC0011124E901C82BD92B2B
:103E6000DC683FC0C11589E5D807B8F4C11528E55D
:103E7000D20728F0DC2FCC27C06FD06A32C0C11522
:103E800046E5D40760F58C2F0E941E1B8F71C82F4A
:103E9000D0E0DC2FCC27D06224C0C1158AE5D8073A
:103EA00080F48C2F8F700E941E1B94E0D695C795CE
:103EB0009A95E1F7CF70D0E0DC2FCC27D069C82BE2
:103EC00010C0CE0190568115904248F48D2F8F710D
:103ED0000E941E1BDD27D0628F71D82B02C0C0E06C
:103EE000D0E0CE01DF91CF910895F999FECF92BD38
:103EF00081BDF89A992780B50895A8E1B0E042E025
:103F000050E00C94A91F262FF999FECF92BD81BDD8
:103F1000F89A019700B4021639F01FBA20BD0FB607
:103F2000F894FA9AF99A0FBE08950396272F0E94E3
:103F3000841F0E94831F252F0E94841F242F0C940E
:103F4000841F0196272F0E94841F0C94831FDC017D
:103F5000CB01FC01F999FECF06C0F2BDE1BDF89A94
:103F6000319600B40D9241505040B8F7089597FB38
:103F7000072E16F4009407D077FD09D00E94D81FB1
:103F800007FC05D03EF4909581959F4F089570955C
:103F900061957F4F0895EE0FFF1F0590F491E02D7E
:103FA000099469279627692778278727782708950E
:103FB000AA1BBB1B51E107C0AA1FBB1FA617B7074F
:103FC00010F0A61BB70B881F991F5A95A9F780956B
:0C3FD0009095BC01CD010895F894FFCF3E
:103FDC0090130614DB13D713C513016697C634353B
:103FEC009190943200FF0100010000FFFF000001DE
:103FFC000001FF0093F7313392F4F5F64022815D16
:10400C00023B02BA01AF02C802E802818283E200DD
:10401C00E900EA00B500B600B700CD008301CC0082
:10402C008A01920194012102230224022502260214
:0C403C0027022A02B300B4006F007000DD
:00000001FF
