:100000000C942D010C9474010C9474010C947401E3
:100010000C9474010C9474010C9474010C9474018C
:100020000C9474010C9474010C94801E0C94521F57
:100030000C9424170C9474010C9474010C947401A6
:100040000C9474010C9474010C9474010C9474015C
:100050000C9474010C948C170C9474010C9474011E
:100060000C9474010C9474010C9474010C9474013C
:100070000C9474010C9474010C9474010C9474012C
:100080000C9474010C9474010C9474010C9474011C
:100090000C9474010C9474010C9474010C9474010C
:1000A0000C9474010C9474010C947401DC0CDC0C41
:1000B0000E0D0E0D5B0D790DD10ED10EBB0D500E38
:1000C000610E610EC10ED10ED10ECA0E650F650F05
:1000D000770F770F6E0F770F770F770F650F650F1D
:1000E000730F770F770F730FBF1FE61FDE20E61F1A
:1000F000DE2032205520DE20AC20BB2053005400EF
:10010000550056005F006000610057005C005D0014
:100110005E00360059005A005B002E0062000400A9
:100120006300580004033000000008035000320050
:10013000300000000E0350006100620069006C0096
:10014000650000000403090409023B00020100A04D
:10015000FA09040000010301010009211101000155
:100160002240000705810308000A09040100010379
:10017000000000092111010001228500070582030A
:1001800020000A120110010000000866666766017F
:10019000000102030105010902A10185020901A173
:1001A000000509190129051500250195057501812D
:1001B0000295017503810105010930093115812579
:1001C0007F95027508810609381581257F9501758F
:1001D000088106050C0A38021581257F95017508EE
:1001E0008106C0C005010980A10185031A81002A8A
:1001F0008300160100260300950175108100C005DB
:100200000C0901A10185041A01002A9C02160100B3
:10021000269C02950175108100C005010906A10107
:10022000050719E029E715002501950875018102E8
:100230009501750881010507190029FF150026FFA2
:1002400000950675088100050819012905950575B1
:10025000019102950175039101C011241FBECFEFDA
:10026000DAE0DEBFCDBF04B603FE27C08091DF0118
:100270009091E001A091E101B091E2018730904BB3
:10028000A740B04BD1F41092DF011092E001109220
:10029000E1011092E20114BE84B7877F84BF0FB6DC
:1002A000F894A89580916000886180936000109216
:1002B00060000FBEE0E0F8E3099511E0A0E0B1E0D6
:1002C000E8E0F3E402C005900D92A033B107D9F73E
:1002D00021E0A0E3B1E001C01D92AF3DB207E1F71C
:1002E0000E94AA1B0C9482210C9400009C013A9558
:1002F00021153F4138F5DC01AA27B270AC01442733
:1003000054709C012227387094FF0FC090FF02C0E8
:1003100080E101C080E0AB2B09F08062452B09F041
:100320008064232B69F080680BC0892F8170AB2B10
:1003300009F08260452B09F08460232B09F0886066
:10034000FB0109940895CF93DF93EC01805E91093E
:10035000089710F0209719F46CE97CE002C06BE27A
:100360007FE0CE010E9476018C2FDF91CF910C941B
:100370008B0BCF93DF93EC010E94550CCE01805E76
:100380009109089710F0209719F463EA7CE002C005
:1003900062E37FE0CE01DF91CF910C947601CF93A1
:1003A000DF93EC010E94A301CE01DF91CF910C9469
:1003B000B90181E0089581E008950C94DB011F9359
:1003C000CF93DF9300D000D01F92CDB7DEB7498323
:1003D0005A836B832091510189819A81211112C026
:1003E000662349F00E94B314182F682F89819A81DF
:1003F0000E945E1403C00E948814182F69817A81BC
:10040000812F04C00E94B31469817A810F900F90EC
:100410000F900F900F90DF91CF911F910C940D04CE
:10042000FC01408151816281738184810C94DF01E0
:100430000E94E815811102C00E9488160E949E0841
:100440000E94F2070C94BD060E9402090C94BF069C
:10045000282F2F7041F0822F90E02A3010F44D9613
:1004600008950697089587E290E0089508950C9402
:1004700036020C94370208950E94530F0E943B02EB
:100480002FEF84E39CE0215080409040E1F700C0D2
:10049000000087E797E790930108809300080C9489
:1004A000B2170F931F93CF93DF938C010E9410021A
:1004B000EC01B8010E94DD01882309F4A4C1B80150
:1004C000CE010E946608882309F49DC1B801CE01BF
:1004D0000E94F709882309F496C1C631FCE5DF07BD
:1004E00039F50E943415982FF8018281209100017E
:1004F00030910101882379F09A7A81E009F480E053
:1005000080933001911102C069E201C065E3C90125
:100510000E94C2160AC080913001811102C069E2B6
:1005200001C065E3C9010E94C4160E9485156BC114
:10053000C7318CE5D80708F03BC1C130ECE5DE07D8
:1005400071F4F8018281882309F45DC18091AE01C4
:10055000982F909590FB80F98093AE0154C1C230E2
:10056000FCE5DF0708F413C1F8018281882309F450
:1005700011C10E94E815811102C00E9488160E94D4
:10058000FB159093D1018093D001C031FCE5DF07CA
:1005900009F4BFC008F03FC0C830ECE5DE0709F43D
:1005A00096C0F0F4C4308CE5D80709F483C068F431
:1005B000C230FCE5DF0709F473C0C330DC4509F045
:1005C000DDC08091D001826072C0C630ECE5DE07EC
:1005D00009F46AC008F077C08091D001886067C0D4
:1005E000CC308CE5D80709F481C058F4CA30FCE55A
:1005F000DF0709F470C008F075C08091D0018068F1
:1006000056C0CE30ECE5DE0709F474C008F07DC0BA
:100610008091D00189C0CB3F8CE5D80709F44DC04B
:1006200008F5C331FCE5DF0709F47BC068F4C1318C
:10063000ECE5DE0709F471C0C231DC4509F09EC06B
:100640008091D0018F7733C0C5318CE5D80709F48C
:1006500072C008F486C0CA3FDC4509F08FC08091A3
:10066000D1013EC0CF3F8CE5D80709F45FC058F4F4
:10067000CD3FFCE5DF0709F444C008F43FC080919A
:10068000D10182602DC0C130EDE5DE0709F473C0F1
:1006900008F45DC0C230DD4509F070C080E06CC078
:1006A0008091D001816003C08091D00180618093EE
:1006B000D00164C08091D00111C08091D1018260CD
:1006C0008093D1015BC08091D0018062F0CF809196
:1006D000D0018064ECCF8091D00188608460E7CF46
:1006E0008160EECF8091D0018E7FE1CF8091D001EB
:1006F0008D7FDDCF8091D001877FD9CF8091D101CF
:1007000018C08091D1018D7FDBCF8091D0018F7E89
:10071000CECF8091D0018F7DCACF8091D0018F7BC9
:10072000C6CF8091D001877F8B7FC1CF8091D101CF
:100730008D7F8E7FC5CF8091D00182FB222720F94B
:1007400091E0922790FB82F990FB83F9B0CF8091E2
:10075000D101982F909591708E7F892B90FB81F914
:10076000AFCF8091D00187FB222720F991E092271B
:1007700090FB87F99CCF81E00E948A168091D0017E
:100780009091D1010E940C160E94530F3CC0C115DC
:10079000DC4539F0C801DF91CF911F910F910C9486
:1007A000D901F8018281882371F10E943C022BC09B
:1007B000CE3DECE5DE0739F4F8018281882319F19A
:1007C0000E94881620C0CF3DFCE5DF07A8F4CC3D91
:1007D0008CE5D80731F4F80182818823A1F080E00C
:1007E00008C0CD3DDC45B1F6F8018281882359F07F
:1007F00082E00E94471C07C0CE018A5F9C45099792
:1008000008F4B2CEC7CF80E0DF91CF911F910F9156
:10081000089580E090E008950895E72FF0E095E0D6
:10082000899FE00DF11D1124EE0FFF1FEE0FFF1F3A
:10083000E60FF11DEE0FFF1FE450FF4F85919491DD
:100840000895880F991FFC01EC5DFE4F85919491EE
:100850000895CF93DF930E940D040E94E305EC01FD
:100860008115904508F041C0C11580E4D80708F013
:1008700028C1C83ED10510F5C03ED10508F09FC182
:10088000C83AD10578F4C53AD10508F0A2C0C13004
:10089000D10509F494C108F445C1C430D10508F06C
:1008A0008EC140C1CF3BD10508F49EC0C03CD105EC
:1008B00008F438C1CE01805C9109F5C0C11590E201
:1008C000D90758F4C11521E0D20708F078C1C03F1C
:1008D000D10508F427C1D06572C1C11580E3D807DE
:1008E00008F0E5C0CE019F70DEC0C11595E5D907BF
:1008F00008F043C0C11524E5D20708F0F9C0C115BE
:1009000082E5D80708F5C11591E5D90708F0DCC0E4
:10091000CE0174E0969587957A95E1F783709C2FC8
:10092000937021E030E002C0220F331F9A95E2F766
:100930003C68382BCF70C695C69580E2C89FE00111
:100940001124C22BD32B3BC19E01237033278C2F44
:1009500086958695C115D34508F0BBC0C1E0D0E0AF
:1009600002C0CC0FDD1F2A95E2F720E2829FC00172
:100970001124C82BD92BDC6822C1C11529E5D20767
:10098000A0F4C11588E5D80708F0B7C0C11596E5F1
:10099000D90708F0C7C08C2F0E9477068F71C82F27
:1009A000D0E0DC2FCC27D0620AC1C1152AE5D207DE
:1009B00008F4A8C0CE0190568115904208F0B2C04C
:1009C0008D2F8F710E947706DD27D0628F71D82B13
:1009D000F6C0C53AD10509F4A8C0C63AD10509F058
:1009E000A7C0C2E8D0E4EBC0C83AD10509F4A3C05F
:1009F000C93AD10509F4A2C0CA3AD10509F4A1C087
:100A0000CB3AD10509F4A0C0CC3AD10509F49FC076
:100A1000CB3BD10509F49EC0CC3BD10509F49DC068
:100A2000CD3AD10509F49CC0C03BD10509F49BC067
:100A3000CE3AD10509F49AC0CF3AD10509F499C04C
:100A4000C13BD10509F498C0C23BD10509F497C058
:100A5000C33BD10509F496C0C43BD10509F495C048
:100A6000C53BD10509F494C0C63BD10509F493C038
:100A7000C73BD10509F492C0C83BD10509F491C028
:100A8000C93BD10509F490C0CD3BD10509F48FC015
:100A9000CE3BD10509F48EC0CA3BD10509F48DC007
:100AA000C0E0D4E48CC00E942104EC0188C0CE01D7
:100AB0009927D3FF03C0EC01D86C81C0EC01D06C46
:100AC0007EC0DF70D06A7BC0DC2FCC27C16FD06ABC
:100AD00076C0C1E0D0E002C0CC0FDD1F2A95E2F75E
:100AE00020E2829FC0011124C82BD92BDA6867C08D
:100AF000DC2FCC27C46FD06A62C0DC2FCC27C06F3C
:100B0000D06A5DC08C2F8F700E94770694E0D695D6
:100B1000C7959A95E1F7CF70D0E0DC2FCC27D0694C
:100B2000C82B4DC0C0E0D0E04AC0C1E8D0E447C007
:100B3000C3E8D0E444C0C2EED4E441C0C9EED4E47A
:100B40003EC0CAEED4E43BC0C5EBD4E438C0C6EB2B
:100B5000D4E435C0C3EBD4E432C0C4EBD4E42FC03A
:100B6000C7EBD4E42CC0CCECD4E429C0CDECD4E465
:100B700026C0C3E8D5E423C0CAE8D5E420C0C2E952
:100B8000D5E41DC0C4E9D5E41AC0C1E2D6E417C05B
:100B9000C3E2D6E414C0C4E2D6E411C0C5E2D6E490
:100BA0000EC0C6E2D6E40BC0C7E2D6E408C0CFE66A
:100BB000D4E405C0C0E7D4E402C0CAE2D6E4CE0162
:100BC000DF91CF9108958238910569F1B0F48133B6
:100BD000910509F46DC048F48932910509F463C0A8
:100BE0008A32910509F469C008958533910509F4A5
:100BF00055C089339105B9F00895833E910569F197
:100C000038F4803E9105B1F0823E910509F10895D6
:100C1000863E9105A9F1873E9105B9F1843E910583
:100C200009F064C023C02091D00120FD4FC021FDF8
:100C30004DC008958091D00180FD44C08091D101C4
:100C400080FF44C08091D00184FD42C083EE4DC03E
:100C50008091D00182FF38C0F5CF8091D00182FD14
:100C600033C08091D10180FD31C0ECCF8091D101A2
:100C700081FF32C08091D00184FD2AC087EE35C04B
:100C80008091D00183FF26C0F5CF8091D00183FDF4
:100C900021C08091D10181FD1FC0ECCF8091D00196
:100CA00085FD1CC01DC08091D00185FD19C016C0F6
:100CB0008091D00186FD16C017C08091D00186FDBD
:100CC00013C010C089E311C082EE0FC080EE0DC0CA
:100CD00080E00BC086EE09C084EE07C089E205C043
:100CE00085E303C08AE201C081E390E0089590911A
:100CF000D00192FF0DC0282F2871283019F4877F6A
:100D0000846006C0282F2471243011F48B7F886002
:100D100093FF0DC0282F2871283119F4877E846134
:100D200006C0282F2471243111F48B7E8861209114
:100D3000D10120FF0DC0382F3871383019F4877F6A
:100D4000816006C0382F3171313011F48E7F886098
:100D500021FF0DC0282F2871283119F4877E816169
:100D600006C0282F2171213111F48E7E886194FDF7
:100D7000877E089508950C94BA060C94BB060C94D3
:100D8000BA06E82FF0E0EF5CFE4F808108950895E9
:100D9000CF93DF93A7E1B1E04CE151E061E070E077
:100DA0008D91E82FE295EF70F0E021A18F70EB01BB
:100DB00002C0CC0FDD1F8A95E2F7CE019C2F9095E3
:100DC000922391A392A1892B82A34A175B0741F733
:100DD000A3E1B1E047E151E061E070E08D91E82FDF
:100DE000E295EF70F0E021A18F70EB0102C0CC0F13
:100DF000DD1F8A95E2F7CE019C2F9095922391A357
:100E000092A1892B82A34A175B0741F7E6E3F1E041
:100E1000A1E3B1E08BE391E011921D928E179F0741
:100E2000D9F785E00E94A607DF91CF910C941802B4
:100E30005F926F927F928F929F92AF92BF92CF926A
:100E4000DF92EF92FF920F931F93CF93DF9367E1AF
:100E500071E0A6E3B1E02BE3A22E21E0B22E612CDB
:100E600001E010E06D015C901C92EB018991BE01E4
:100E7000E82FE295EF70F0E021A18F70A80102C089
:100E8000440F551F8A95E2F7CA01242B21A322A102
:100E9000942E9094292122A350EA5A95F1F793E1D8
:100EA000E92E91E0F92E40E050E0E70189907E01C3
:100EB000282D22952F7030E0E90128A17C9030E0A8
:100EC000D82DDF7002C035952795DA95E2F720FD21
:100ED00008C0302F042E01C0330F0A94EAF7232FE5
:100EE00001C020E027292C934F5F5F4F443051050C
:100EF000E1F691A1992291A292A1892B82A3119648
:100F000081E0F6019081951101C080E0682AAA165F
:100F1000BB0609F0A7CF262D45E061E371E086E32B
:100F200091E00E94A7070E942402862DDF91CF91B5
:100F30001F910F91FF90EF90DF90CF90BF90AF90F7
:100F40009F908F907F906F905F9008950895FF928B
:100F50000F931F93CF93DF938C01F62ED72FC42FBF
:100F6000222349F081E080933D010E94561790931F
:100F70003C0180933B0180913D018823C1F0809129
:100F80003B0190913C010E946217069780F0EF2D83
:100F9000FD2FD8014C2F50E0CD01801B910B841701
:100FA00095071CF48D918193F7CF10923D01DF914D
:100FB000CF911F910F91FF900895CF93DF9397FFEB
:100FC0000DC0FB012281222349F0EC010E94080898
:100FD000CE019F770E9449080E94320881E0DF918C
:100FE000CF9108958CE090E00E94402190E0A0E035
:100FF000B0E08093C5019093C601A093C701B09360
:10100000C80108956091C5018CE090E00C944E21D8
:101010000E9434158093C9010E9447158091C50133
:10102000813071F048F0823081F08430A1F486EE96
:101030000E94890C88E10DC082EE0E948B0B0BC0D0
:1010400088E193E00E94CF0106C082EE0E948B0BE4
:1010500087E50E94890C8FE39CE90197F1F700C0B6
:10106000000008958091C501813039F040F0823050
:1010700031F0843051F488E206C08CE204C082EE84
:101080000E94550C02C00E94890C8091C9010C94E9
:1010900044150F931F93CF93DF938C01CCE0D0E0E6
:1010A000C8010C2E02C0969587950A94E2F78F70BE
:1010B0000E9428020E94890C2497CC3F8FEFD8070A
:1010C00079F7DF91CF911F910F9108950F931F939F
:1010D000CF93DF93EC018B01FB018281882319F10F
:1010E000C33EFCE5DF07C1F050F4C13EECE5DE078E
:1010F00081F0C23EFCE5DF07B1F481E010C0C43EE0
:101100008CE5D80759F0C53EECE5DE0761F484E0D4
:1011100006C01092C50105C082E001C083E0809343
:10112000C5010E940208B801CE01DF91CF911F9145
:101130000F910C94DD0708950C949B08FF920F9378
:101140001F93CF93DF93C0E4D1E04EE251E02CE255
:1011500031E061E070E0F1E0C234DF0709F44CC037
:10116000FA010191AF01A02FA295AF70B0E0919666
:10117000EC9191970F70CB01002E01C0880F0A945B
:10118000EAF7982F90959E2391969C93919792962B
:101190009C919297892B92968C939297F901119139
:1011A0009F01E12FE295EF70F0E0F1A01F70CB01FD
:1011B000012E01C0880F0A94EAF7982F90959F217D
:1011C00091A392A1892B82A390968C9190E002C06A
:1011D000959587950A95E2F78170E0A1F0E002C04D
:1011E000F595E7951A95E2F7E0FD02C090E001C0A1
:1011F00092E0892B8993AFCFDF91CF911F910F910F
:10120000FF9008957F928F929F92AF92BF92CF925C
:10121000DF92EF92FF920F931F93CF93DF93CEE372
:10122000D1E000E411E08EE2882E81E0982E9CE26D
:10123000A92E91E0B92E68017801712CD701ED91AA
:101240007D014E2F440F440FF80141938F01D401CB
:101250002D914D01E22FE295EF70F0E080A190E03A
:101260002F7002C0959587952A95E2F7817099278E
:10127000F50151915F01E52FE295EF70F0E020A1BB
:1012800030E05F7002C0359527955A95E2F7F90175
:10129000E170FF2720FF02C0E2E0F0E0E82BF92B2D
:1012A000E42BD601ED936D01EF70F0E0E45EFE4FAC
:1012B00090818881890F8883843024F060E0872DB5
:1012C0000E949C0888818D3F24F461E0872D0E9454
:1012D0009C088881837887FF03C081508C6F8F5F63
:1012E00089937394B2E07B12A9CFDF91CF911F91C4
:1012F0000F91FF90EF90DF90CF90BF90AF909F90B5
:101300008F907F9008950F931F93CF93DF93C62FF5
:10131000D42F122FFC0182818823C9F060934401ED
:101320000E945617909343018093420180E28C0FF4
:10133000883008F057C0C77081E001C0880FCA9597
:10134000EAF7DF91CF911F910F910C949C0C809143
:101350004401681330C080914201909143010E9482
:101360006217883C910538F500E20D0FCD17B9F0F2
:1013700080E28C0F883040F4C77081E001C0880F94
:10138000CA95EAF70E94A30C083028F581E09D2F4A
:10139000977001C0880F9A95EAF70E949C0C812FE4
:1013A0000E94890C0830F0F4D77081E001C0880FEA
:1013B000DA95EAF70AC080E28C0F883098F4C7709B
:1013C00081E001C0880FCA95EAF7DF91CF911F91A4
:1013D0000F910C94A30C812FDF91CF911F910F914E
:1013E0000C94890CDF91CF911F910F9108959C016E
:1013F000CB01233F4CE53407F9F078F4283DFCE5B8
:101400003F07B9F0293D4CE5340711F1273D3C4534
:1014100031F526E241EE61EE1EC0253FFCE53F07B7
:1014200099F070F0263F3C45D1F427E245EE66EE98
:1014300012C027E245EE0EC026E241EE60EE0BC080
:1014400027E245EE64EE07C026E241EE62EE03C0FD
:1014500028E241E065EE0E94830980E00895FC01E6
:101460008281882319F010924401089581E0089543
:1014700090934A01809349010895E0914901F091C8
:101480004A01309721F00190F081E02D099480E02D
:101490000895E0914901F0914A01309721F00280CE
:1014A000F381E02D09940895E0914901F0914A01FA
:1014B000309739F022E0DC012C930480F581E02D97
:1014C0000994089520914701309148012817390760
:1014D00071F09093480180934701E0914901F091A8
:1014E0004A01309721F00680F781E02D0994089594
:1014F00020914501309146012817390771F09093EA
:10150000460180934501E0914901F0914A013097ED
:1015100021F00084F185E02D0994089585B7806855
:1015200085BF85B7806885BF089508950C94950A96
:101530000C94960A0C94950A0C94950A0E948E0AB3
:101540000E949A0A0C94980A81E008950E944D170F
:101550000E94C8060E94C3170C949C0ABF92CF92A7
:10156000DF92EF92FF920F931F93CF93DF93CDB74C
:10157000DEB72A970FB6F894DEBF0FBECDBF0E942C
:1015800018070E94A40A811111C08FEF89838A83F2
:101590001B820E9456178160782F9D838C8349811E
:1015A0005A816B818D810E94570B54C08CE4C82EE8
:1015B00081E0D82E00E010E0B02E802F0E94C106FE
:1015C000E82EF60121916F01F82EF22631F40F5F1B
:1015D0001F4F0530110581F7D8CF8091AE0181FDF5
:1015E0000E94C70680E090E02F2D30E0482FB9011F
:1015F000082E02C0759567950A94E2F760FF25C032
:101600008E83BF8281E090E06C0102C0CC0CDD1CB7
:101610004A95E2F72E2D30E02C213D21232B09F4B1
:1016200080E088870E9456178160782F9A87898783
:101630004E815F8168858A850E94570BF801E45BC3
:10164000FE4F80818C25808305C0019684309105F2
:1016500069F6BDCF0E9455190E943D0A90914B0139
:101660008917A9F00E943D0A80934B012A960FB674
:10167000F894DEBF0FBECDBFDF91CF911F910F91C8
:10168000FF90EF90DF90CF90BF900C9439022A9694
:101690000FB6F894DEBF0FBECDBFDF91CF911F9183
:1016A0000F91FF90EF90DF90CF90BF900895CF9370
:1016B000DF93CDB7DEB72B970FB6F894DEBF0FBE22
:1016C000CDBF4F83588769877A878B87DE01119654
:1016D00086E0FD0111928A95E9F785E0FE013796D3
:1016E00001900D928A95E1F749815A816B817C8145
:1016F0008D819E810E9423122B960FB6F894DEBF37
:101700000FBECDBFDF91CF910895FC018081918103
:101710000E94F5140895882309F4C6C09CEF980F21
:10172000913A40F4682F80910001909101010E944C
:10173000C2160DC090E2980F983058F4877091E06F
:1017400001C0990F8A95EAF7892F0E9437150C94EA
:1017500085159BE5980F933070F4853A29F0863A09
:1017600031F083E890E005C081E890E002C082E8B3
:1017700090E00C94620A98E5980F973108F08EC0BB
:10178000883A09F445C0893A09F445C08A3A09F40F
:1017900045C08B3A09F445C08C3A09F445C08B3BEF
:1017A00009F445C08C3B09F445C08D3A09F445C0A5
:1017B000803B09F445C08E3A09F445C08F3A09F4DC
:1017C00045C0813B09F445C0823B09F445C0833BD9
:1017D00009F445C0843B09F445C0853B09F445C084
:1017E000863B09F445C0873B09F445C0883B09F4B2
:1017F00045C0893B09F445C08D3B09F445C08E3B8B
:1018000009F445C08A3B09F445C080E090E044C03B
:1018100082EE90E041C089EE90E03EC08AEE90E01A
:101820003BC085EB90E038C086EB90E035C083EBA1
:1018300090E032C084EB90E02FC087EB90E02CC0AA
:101840008CEC90E029C08DEC90E026C083E891E01C
:1018500023C08AE891E020C082E991E01DC084E9BC
:1018600091E01AC081E292E017C083E292E014C0D6
:1018700084E292E011C085E292E00EC086E292E03E
:101880000BC087E292E008C08FE690E005C080E7D9
:1018900090E002C08AE292E00C94780A803F20F047
:1018A0000E945D180C944A190895882389F19CEFD1
:1018B000980F913A40F4682F8091000190910101B6
:1018C0000E94C4160DC090E2980F983058F48770AB
:1018D00091E001C0990F8A95EAF7892F0E943D1582
:1018E0000C9485159BE5980F933020F480E090E0F0
:1018F0000C94620A98E5980F973120F480E090E00C
:101900000C94780A803F20F00E94C5180C944A1964
:101910000895CF93C82F0E948B0BC93349F42FEF42
:1019200087EE93E0215080409040E1F700C0000036
:101930008C2FCF910C94550C882321F00E943715E1
:101940000C9485150895882321F00E943D150C9470
:1019500085150895CF92DF92EF92FF920F931F9318
:10196000CF93DF937C01062FC72FFC0115811295C1
:101970001F70D281D1110E9457150E942D15882306
:1019800079F0DD2369F080E2800F883048F082E052
:101990000E94CF150E942D1591E0D82ED92601C0A6
:1019A000D12CCC2EC2948FE0C8228C2D90E0FC016B
:1019B000EA5AFF4F0C9426218C2F807FCF7088230A
:1019C00011F0C295C07FDD2399F0CC2309F4C4C186
:1019D00080E2800F883010F0011104C08C2F0E942B
:1019E000371503C08C2F0E944A150E948515B4C17B
:1019F000802F0E94550CCC2309F4D3C180E2800FC4
:101A0000883010F0011104C08C2F0E943D1503C0D6
:101A10008C2F0E9450150E948515C3C18C2F807F8A
:101A2000CF70803211F0C295C07F002319F00130D1
:101A3000C9F022C0DD2371F0112341F0113031F4DF
:101A40000E946A158C2B0E947215ABC10E946A1508
:101A50008C2B1DC0112319F0113009F4A2C10E9472
:101A60007B1525C0DD2321F0163008F09AC10EC089
:101A7000153008F096C11BC0DD2361F0112331F051
:101A8000F701858180FF68C18F7085838C2F0E944C
:101A90009C0C87C1112359F0093309F06EC1FFEF87
:101AA00027EE83E0F15020408040E1F764C18C2FA5
:101AB0000E94A30C76C18C2F86958695837019F0B1
:101AC000813061F06EC1DD2321F0802F9C2F937057
:101AD00002C080E090E00E94620A6BC1DD2321F029
:101AE000802F9C2F937002C080E090E00E94780AC3
:101AF00060C1DD23F9F0053F51F0063F71F0043F6E
:101B0000A9F48091CA019091CB0181600BC08091B2
:101B1000CA019091CB01826005C08091CA01909169
:101B2000CB0184609093CB018093CA01802F0E94E7
:101B30005D181EC0053F51F0063F71F0043FA9F447
:101B40008091CA019091CB018E7F0BC08091CA0118
:101B50009091CB018D7F05C08091CA019091CB01FE
:101B60008B7F9093CB018093CA01802F0E94C51870
:101B70000E944A191EC18C2F837009F045C0D111F3
:101B800014C1402F429546954770440F440F602F73
:101B90006F70862F90E0A0E0B0E0042E04C0880FA4
:101BA000991FAA1FBB1F0A94D2F704FF10C00FE0B1
:101BB00010E020E030E004C0000F111F221F331F8F
:101BC0004A95D2F7009510952095309503C000E016
:101BD00010E09801C695C695C370BC01CD01602B7D
:101BE000712B822B932BC23049F058F4C13019F07D
:101BF0000E947413DAC00E946213D7C00E94861339
:101C0000D4C00E946013D1C0DD2319F08C2F8170E5
:101C100001C08695882309F4C8C0402F4295469597
:101C20004770440F440F602F6F70862F90E0A0E044
:101C3000B0E0042E04C0880F991FAA1FBB1F0A948E
:101C4000D2F704FF10C00FE010E020E030E004C045
:101C5000000F111F221F331F4A95D2F700951095D0
:101C60002095309503C000E010E09801C695C69518
:101C7000C370BC01CD01602B712B822B932BC23022
:101C800049F058F4C13019F00E9439148EC00E94F6
:101C900027148BC00E944B1488C00E949A1385C0E1
:101CA000CF70DD2339F08C2F0E94C013802F0E944B
:101CB0009C0C7BC0802F0E94A30C8C2F0E94E113F0
:101CC00074C0023F01F128F4003F41F0013FA1F050
:101CD0003FC0033FF9F0043F39F13AC0DD2341F042
:101CE000153008F05EC08C2F8F710E94061459C009
:101CF000163008F056C0F7CFDD2339F08C2F8F71E6
:101D00000E94C0134EC0DD23C9F38C2F8F710E9437
:101D1000E11347C0DD2329F08C2F8F710E94AB1394
:101D200040C00E94A6133DC0DD2349F0CF718C2F27
:101D30000E94C01363E08C2F0E94BA1532C081E06C
:101D40000E94CF15123068F182E00E94CF1529C0A1
:101D5000DD2331F0112391F2802F0E948B0B21C0E3
:101D6000112399F2093349F49FEFE7EEF3E0915024
:101D7000E040F040E1F700C00000802F0E94550CC9
:101D800010C04C2F4F70602FC7010E9409040E94A1
:101D9000D1120FC04C2F4F70602FC7010E940C044E
:101DA00008C088EF8C0D843020F40E943D0A0E9408
:101DB0003902DD20C9F00E94291580FD15C0F70108
:101DC00012820E9423150E94C013C7010E94FD0EBB
:101DD0000E942315DF91CF911F910F91FF90EF90FB
:101DE000DF90CF900C94E113DF91CF911F910F9171
:101DF000FF90EF90DF90CF9008950F931F93CF93B4
:101E0000DF93EC01988189812B813C81232B31F078
:101E10008F3F31F481E09F3F19F403C081E001C09E
:101E200080E080FD13C0CE010E945102882371F032
:101E3000688179818A810E9400158C010E945D145D
:101E40000E944E13B801CE010E94AA0CDF91CF91DF
:101E50001F910F910895882321F00E944A150C9438
:101E600085150895882321F00E9450150C9485153E
:101E700008950E9457150E9467150E9485150E94BB
:101E8000F0190E944A1980E090E00E94620A80E006
:101E900090E00C94780A80910001909101010E94D9
:101EA000C6160C94390F0E9447150C944B0FE92F5E
:101EB000E295EF704E2F50E0FA013297EE30F105C7
:101EC000B0F4EA59FF4F0C942621803F91F018F4AA
:101ED000883E68F40EC0843F51F40BC0883E48F041
:101EE000813F29F406C093FB882780F9089580E09C
:101EF000089581E008950E94F5140E94570F0895F7
:101F0000CF93DF9300D000D01F92CDB7DEB70F90F4
:101F10000F900F900F900F90DF91CF910895CF9376
:101F2000DF9300D000D000D0CDB7DEB726960FB635
:101F3000F894DEBF0FBECDBFDF91CF9108951F9300
:101F4000CF93DF93C091520116E080915301C817DF
:101F500099F0D0E01C9FF0011D9FF00D1124EC5A68
:101F6000FE4F4081518162817381848195810E94FD
:101F70008F0F2196C770E9CFDF91CF911F91089500
:101F80004091840150918501609186017091870193
:101F900080918801909189010C948F0FCF9380914B
:101FA000890182958F7009F05FC080918601882336
:101FB00009F45AC080915201B0915301709184018B
:101FC000A0918501409187015091880191E07F3F68
:101FD00009F090E0692FC6E08B1709F445C0411560
:101FE000510521F0AF3F21F020E003C021E001C006
:101FF000262F90E020FD35C0C89FF001C99FF00D4D
:102000001124EC5AFE4F21812A132BC02081271363
:1020100028C02281211125C023813481241735074E
:1020200010F421503109241B350B283C3105C8F42C
:10203000209189012F7020612093890126E0289F3B
:10204000F001299FF00D1124E75AFE4F80818F7017
:102050008061808384E891E00E94FD0ECF910C9412
:102060009F0F01968770B8CFCF910895AF92BF921E
:10207000CF92DF92EF92FF920F931F93CF93DF9354
:10208000CDB7DEB761970FB6F894DEBF0FBECDBFF8
:102090008C0185E0F801DE011D9601900D928A9574
:1020A000E1F7D8014C9111965C9111971296EC9042
:1020B0003091840160918501809187019091880120
:1020C000009731F06F3F31F421E03F3F19F403C036
:1020D00021E001C020E0B22FB170BB2E20FD60C115
:1020E000F801C380D480A0908601AA2009F4EEC034
:1020F00020918901C816D90628F0D601A81BB90B72
:10210000CD0104C0809590958C0D9D1DFF24F39406
:10211000883C910580F0F12C207F09F09CC07C2D3B
:10212000D98AC88A6E2D89890E94800F84E891E03F
:102130000E94FD0E2DC1822F807F09F054C05613DE
:1021400014C0431312C0FE2CE1100FC02F70206189
:10215000209389010E94C00F84E891E00E94FD0E47
:1021600080918901F80185835CC1CD2831F05F3F02
:1021700031F481E04F3F19F403C081E001C080E0F9
:1021800080FD03C081E08E2502C080E090E0F82F42
:10219000F170FF2E80FF1CC08091520120915301ED
:1021A00036E0821709F41AC190E0389FF001399F98
:1021B000F00D1124EC5AFE4F6181561306C0608168
:1021C000461303C06281E61203C001968770E9CF0F
:1021D000FE2CEE2009F425C1809189018160809355
:1021E0008901F12C1EC1561309C0431307C0E11029
:1021F00005C080918901F8018583A4C04D875E8761
:102200008D859E850E947B0F882379F1EE2069F1F0
:1022100020918901822F82958F7090E0029774F04F
:10222000809184019091850198878F831986DB8640
:10223000CA862C87CE0107960E94FD0E86E0F80123
:10224000A4E8B1E001900D928A95E1F70E94CE0FCB
:102250000E94C00F0DC0561771F04D875E878D85A7
:102260009E850E947B0F81111AC0C8010E94FD0E3D
:10227000FF24F394D6C04313F0CFE110EECF80914A
:102280008901F8018583C8010E94FD0E86E0E4E81B
:10229000F1E0DF011D928A95E9F7FA2CC2C0EE2029
:1022A00021F320918901822F82958F7090E002970F
:1022B0002CF280918401909185019A8389831B82FD
:1022C000DD82CC822E83CE010196B6CFC816D90608
:1022D00028F0F601E81BF90BCF0104C0809590951A
:1022E0008C0D9D1D883C910548F0F12C7C2DD98AE0
:1022F000C88A6E2D89890E94800F4AC0FE2CEE206C
:1023000009F4B3CF561333C0431331C02091890170
:1023100020FD24C0822F82958F70482F50E04115F8
:102320005105E1F0D80115962C9315974F305105C2
:1023300049F08F5F982F9295907F822F8F70892B15
:1023400015968C93C8010E94FD0E86E0F801A4E862
:10235000B1E001900D928A95E1F73DC086E0F80169
:10236000A4E8B1E001900D928A95E1F75AC04D873B
:102370005E878D859E850E947B0F81115FCF809146
:102380008901816080938901C8010E94FD0E49C0C6
:10239000E4E8F1E086E0DF011D928A95E9F71BC0D1
:1023A000EE2009F462CF4D875E878D859E850E9461
:1023B0007B0FF82E882309F458CF86E0F801A4E8B3
:1023C000B1E001900D928A95E1F784E891E00E94D6
:1023D000850B0E94CE0F0E94C00F23C04D875E87E1
:1023E0008D859E850E94F514292F22952F7022300D
:1023F00028F49F7039F0811105C00BC0243028F4F7
:102400009F7049F4805E883020F0C8010E94FD0E64
:10241000BF2CFB2C06C0D80115969C91907F91F79C
:10242000F8CF8F2D61960FB6F894DEBF0FBECDBFEB
:10243000DF91CF911F910F91FF90EF90DF90CF90A0
:10244000BF90AF9008951F93CF93DF93CDB7DEB7C2
:102450002C970FB6F894DEBF0FBECDBF4F835887C1
:1024600069877A878B879C87CE0107960E943610F2
:102470008823D1F09F8188852A853B85232B31F0E5
:102480008F3F31F481E09F3F19F403C081E001C028
:1024900080E080FD47C04F81588569857A858B85AE
:1024A0009C850E948F0F3EC086E0FE013796DE01BC
:1024B000119601900D928A95E1F7FF81E8856A8572
:1024C0007B856115710531F0EF3F31F481E0FF3F0D
:1024D00019F403C081E001C080E080FD23C0209199
:1024E000530130E0C901019687709927409152014C
:1024F00050E084179507F1F1F983EA837D836C83BB
:1025000096E0929FD001939FB00D1124AC5ABE4F1C
:10251000FE01319601900D929A95E1F78093530157
:102520000E949F0F16E080915201909153018917EC
:1025300071F1189FC00111248C5A9E4F0E943610D1
:10254000882329F1E09152011E9FF0011124EC5AD9
:10255000FE4F4081518162817381848195810E9407
:102560008F0F8091520190E0019687709927809398
:102570005201D9CF0E94530F109253011092520171
:10258000E4E8F1E086E0DF011D928A95E9F72C96F8
:102590000FB6F894DEBF0FBECDBFDF91CF911F9174
:1025A0000895EF92FF920F931F93CF93DF938C01C7
:1025B000892B09F46CC0F12CEE24E394E8012196F8
:1025C000F8018491843740F4843008F051C08130A0
:1025D00081F0823019F15BC0853709F444C0A8F15D
:1025E0009CE7980F903708F052C08F770E94550CE7
:1025F00041C00E5F1F4FFE01849190E2980F98300A
:1026000050F48770FE2D01C0FF0F8A95EAF78F2FD7
:102610000E945A1514C00E948B0B2DC00E5F1F4FD5
:10262000FE01849190E2980F983060F48770FE2D3F
:1026300001C0FF0F8A95EAF78F2F0E9460150E9454
:10264000851519C00E94550C16C00E5F1F4FFE0164
:10265000C491CC2381F08FE99FE00197F1F700C08E
:102660000000C150F6CF0E5F1F4FFE01F49003C073
:102670000E948B0B8E018F2D882309F49FCFEFE9E9
:10268000FFE03197F1F700C000008150F5CFDF91F6
:10269000CF911F910F91FF90EF90089508950895A5
:1026A0000C944F130C9450130E94521360939D018D
:1026B00070939E0180939F019093A0010C94390F19
:1026C0000C9454130F931F9300919D0110919E0140
:1026D00020919F013091A001602B712B822B932BB5
:1026E0001F910F910C9454130F931F9300919D0110
:1026F00010919E0120919F013091A00160237123D0
:10270000822393231F910F910C9454130F931F93C3
:1027100000919D0110919E0120919F013091A00197
:1027200060277127822793271F910F910C945413D0
:102730000C944F130E9498136093990170939A011F
:1027400080939B0190939C010C94390F60E070E0A2
:10275000CB010C949A130F931F9341E050E060E07B
:1027600070E08A019B0104C0000F111F221F331F5C
:102770008A95D2F7C901B8011F910F910C949A1351
:102780000F931F9341E050E060E070E004C0440FFD
:10279000551F661F771F8A95D2F7809199019091F6
:1027A0009A01A0919B01B0919C018A019B01082B89
:1027B000192B2A2B3B2BC901B8011F910F910C94A7
:1027C0009A130F931F9341E050E060E070E004C063
:1027D000440F551F661F771F8A95D2F74095509575
:1027E000609570958091990190919A01A0919B01BB
:1027F000B0919C018A019B01082319232A233B23C2
:10280000C901B8011F910F910C949A130F931F9354
:1028100041E050E060E070E004C0440F551F661FC7
:10282000771F8A95D2F78091990190919A01A09192
:102830009B01B0919C018A019B01082719272A2737
:102840003B27C901B8011F910F910C949A130F9364
:102850001F930091990110919A0120919B01309151
:102860009C01602B712B822B932B1F910F910C9449
:102870009A130F931F930091990110919A0120913F
:102880009B0130919C0160237123822393231F912C
:102890000F910C949A130F931F930091990110912B
:1028A0009A0120919B0130919C016027712782271A
:1028B00093271F910F910C949A130895990F990FD4
:1028C000890FE82FE695E695E695877051E001C0FF
:1028D000550F8A95EAF785E0E89FF0011124E65745
:1028E000FE4F20E030E070E04081CB01022E02C0BC
:1028F000969587950A94E2F78170819584278523C0
:10290000842781932F5F3F4F2530310569F7089564
:10291000990F990F890F682F669566956695982F80
:10292000977085E0689FB001112440E050E080E09E
:10293000FB01E40FF51FE657FE4F208130E0092E22
:1029400002C0369527950A94E2F721703327042EAA
:1029500001C0220F0A94EAF7822B4F5F5F4F453088
:10296000510531F70895BF92CF92DF92EF92FF9217
:102970000F931F93CF93DF938C01C0909901D09058
:102980009A01E0909B01F0909C0180919D019091B3
:102990009E01A0919F01B091A001C82AD92AEA2ADC
:1029A000FB2ACFE1D0E0D701C6010C2E04C0B695BA
:1029B000A795979587950A94D2F780FD04C0219733
:1029C00090F7B12C07C0BC2EB8018C2F0E942904AF
:1029D0000197A9F38B2DDF91CF911F910F91FF905C
:1029E000EF90DF90CF90BF900895CF93DF93EC01ED
:1029F0000E94B314BE010E942904DF91CF91089573
:102A00001F93CF93DF93EB0190915101992321F014
:102A1000CB010E94F51413C0882349F0CB010E941A
:102A2000B314182F682FCE010E945E1404C0CB018E
:102A30000E948814182FBE01812F0E942904DF9163
:102A4000CF911F9108958091A101859585958595D8
:102A500008958091A101877008959091A1019770C8
:102A600081E009F480E008958091AD01089590918E
:102A7000AD01892B8093AD01089580959091AD01B2
:102A800089238093AD0108958093AD01089510923C
:102A9000AD0108959091AC01892B8093AC0108950C
:102AA00080959091AC0189238093AC010895109298
:102AB000AC0108959091AB01892B8093AB010895EF
:102AC00080959091AB0189238093AB01089510927A
:102AD000AB0108958091A201089508950C946D159D
:102AE0000C946E159091A201981721F08093A20189
:102AF0000C94701508958091A201882329F01092FA
:102B0000A20180E00C9470150895E0910001F0910D
:102B100001018091AD018083E0910001F0910101FC
:102B200090818091AC01892B8083E0910001F0912C
:102B3000010190818091AB01892B80838091A2015A
:102B4000882381F0E0910001F09101019081892BAF
:102B5000808380910001909101010E948F16811164
:102B60000E947B1580910001909101010C94490A0B
:102B70000C946D1598E0899F90011124262B2093C9
:102B8000A1010E94C0138091A1018595859585952D
:102B90000C94B8151092A10180E00C94B815209106
:102BA000A101809582238093A101982F977079F4D9
:102BB00030E0482F082E000C550B2417350739F04C
:102BC0008595859585950E94E1130C94CA15089505
:102BD00080E090E00E94482121E08C3E9E4F09F069
:102BE00020E0822F089582E090E00C94402183E061
:102BF00090E00C944021CF9384E090E00E9440212B
:102C0000C82F81E290E00E9440212C2F30E0A901E2
:102C1000582BCA01CF910895CF93C92F682F84E014
:102C200090E00E944E216C2F81E290E0CF910C94B5
:102C30004E21AB01BC018FE090E00C946021AB0110
:102C4000BC0183E190E00C94602160E070E0CB0176
:102C50000C941F1660E070E0CB010E9419160C94D2
:102C600025166CEE7EEF80E090E00E946C2160E023
:102C700082E090E00E944E2160E083E090E00E94BC
:102C80004E2110929D0110929E0110929F01109270
:102C9000A00160E084E090E00E944E2160E081E2CB
:102CA00090E00E944E2160E085E090E00E944E217D
:102CB00060E086E090E00E944E216FEF87E090E0B8
:102CC0000E944E2140E050E0BA0188E090E00E946E
:102CD000602160E08DE090E00E944E2140E050E0F5
:102CE000BA0188E190E00E94602160E087E190E015
:102CF0000E944E2140E050E0BA018CE190E00E9439
:102D0000602160E080E290E00E944E210C942A163F
:102D10000C943116682F8EE090E00C944E21FC014B
:102D2000329697E080E0915029F021912223D9F347
:102D30008F5FF9CF08959C01FC0132969FEF80E0F0
:102D40004191461789F09F3F19F4411101C0982F16
:102D50008F5F8630A9F79F3F39F0F901E90FF11D28
:102D600097FDFA956283089508959C012A5F3F4F6D
:102D7000FC014281461301C012820196821793071B
:102D8000B9F708950C949B160C94B516029626E09C
:102D9000FC0111922A95E9F7089508950C94CD1637
:102DA0000C94CD16CF930E94D0160E9418070E9453
:102DB000CE16C0E08C2F0E94C106811104C0CF5FE7
:102DC000C530C1F701C081E0CF9108950C94CD16B4
:102DD0000C94E6160E94E8168091D601843049F1E1
:102DE0001092AF0120E488E190E00FB6F894A89526
:102DF000809360000FBE2093600080E00E94390243
:102E00000E94E81683B7817F846083BF83B78160A7
:102E100083BF7894889583B78E7F83BF0FB6F8946D
:102E2000A895809160008861809360001092600096
:102E30000FBE08950C94CD160E94530F0E943D0AB8
:102E40000E9439020C941A171F920F920FB60F921C
:102E500011248F939F93AF93BF938091AF01811102
:102E600013C08091CC019091CD01A091CE01B09181
:102E7000CF014196A11DB11D8093CC019093CD014E
:102E8000A093CE01B093CF01BF91AF919F918F914D
:102E90000F900FBE0F901F90189582E084BD93E0B5
:102EA00095BD9AEF97BD80936E0008952FB7F89463
:102EB0008091CC019091CD01A091CE01B091CF0134
:102EC0002FBF0895CF92DF92EF92FF920F931F933F
:102ED0002FB7F8944091CC015091CD016091CE0173
:102EE0007091CF012FBF6A017B01EE24FF248C017A
:102EF00020E030E0C016D106E206F30610F441509F
:102F000051099A01281B390BC9011F910F91FF909C
:102F1000EF90DF90CF90089578941F920F920FB6A4
:102F20000F9211248F939F93AF93BF938091CC0105
:102F30009091CD01A091CE01B091CF010196A11D3C
:102F4000B11D8093CC019093CD01A093CE01B0939D
:102F5000CF01BF91AF919F918F910F900FBE0F90B6
:102F60001F90189587E797E79093010880930008D2
:102F70009AE088E10FB6F894A895809360000FBEA0
:102F800090936000FFCF0E94E815811102C00E945B
:102F900088160E94F3158093AE010E94FB15909352
:102FA000D1018093D0010E94F715682F70E080E076
:102FB00090E00C9460138091B30180FF0BC060918E
:102FC000050185E0689FB001112475956795759599
:102FD00067952BC081FF09C06091050185E0689F5E
:102FE000B00111247595679520C082FF07C06091DC
:102FF000050185E0689FB001112417C09091B201CE
:103000009923D1F060910401961788F7209105016A
:1030100085E0289F90011124929FA001939F500D5D
:10302000112470E0CA010E9412216038710540F439
:103030006115710519F406C065E070E0862F0895EA
:103040008FE7089581E008958091B30180FF08C063
:103050006091030170E0759567957595679521C03E
:1030600081FF06C06091030170E07595679519C0F6
:1030700082FF04C06091030170E010C09091B20122
:10308000992399F0609102019617A0F780910301AE
:10309000899FC001112470E00E94122160387105DF
:1030A00040F46115710519F406C061E070E0862FE7
:1030B00008958FE7089581E00895803F21F40E94EC
:1030C000DB17819504C0813F29F40E94DB178093B0
:1030D000B7010895823F21F40E94DB17819504C057
:1030E000833F29F40E94DB178093B6010895893F3E
:1030F00019F40E94241805C08A3F31F40E94241854
:1031000081958093B80108958B3F21F40E94241883
:10311000819504C08C3F29F40E9424188093B90142
:103120000895843F21F48091B501816017C0853FE7
:1031300021F48091B501826011C0863F21F4809115
:10314000B50184600BC0873F21F48091B501886090
:1031500005C0883F31F48091B50180618093B5014D
:1031600008958D3F21F48091B30181600BC08E3FA3
:1031700021F48091B301826005C08F3F29F48091D2
:10318000B30184608093B3010895803F39F4809146
:10319000B70187FF6CC01092B70169C0813F29F465
:1031A0008091B7011816BCF362C09091B601823FBE
:1031B00029F497FF5CC01092B60159C0833F19F4FF
:1031C0001916CCF354C0893F41F48091B801181608
:1031D0000CF04DC01092B8014AC08A3F29F480918A
:1031E000B80187FF44C0F6CF8B3F39F48091B90115
:1031F00087FF3DC01092B9013AC08C3F29F48091FD
:10320000B9011816BCF333C0843F21F48091B50195
:103210008E7F17C0853F21F48091B5018D7F11C04D
:10322000863F21F48091B5018B7F0BC0873F21F44D
:103230008091B501877F05C0883F31F48091B50149
:103240008F7E8093B50113C08D3F21F48091B3012F
:103250008E7F0BC08E3F21F48091B3018D7F05C01E
:103260008F3F29F48091B3018B7F8093B3018091CC
:10327000B60181110EC08091B70181110AC0809101
:10328000B801811106C08091B901811102C010926C
:10329000B201089584EB91E00E94540A0E945617EF
:1032A0009093B1018093B00108951F93CF93DF9362
:1032B0008091B0019091B1010E946217AC01909190
:1032C000B201992321F02091060130E006C020913F
:1032D00007018AE0289F900111244217530708F440
:1032E0007BC08091B601C091B701D091B801109117
:1032F000B901811107C0C1116BC0D11169C0111191
:1033000067C06AC09F3F19F09F5F9093B201181683
:1033100024F40E94DB178093B6018091B60187FFE9
:1033200005C00E94DB1781958093B6011C1624F41A
:103330000E94DB178093B7018091B70187FF05C01A
:103340000E94DB1781958093B7013091B60133233A
:10335000E1F02091B7012223C1F045EB3403C00115
:103360001124992319F09093B60103C081E0809352
:10337000B60135EB2303C0011124992319F0909372
:10338000B70103C081E08093B7011D1624F40E94A9
:1033900024188093B8018091B80187FF05C00E946E
:1033A000241881958093B801111624F40E942418E2
:1033B0008093B9018091B90187FF05C00E9424184C
:1033C00081958093B901DF91CF911F910C944A1997
:1033D0009F3F09F099CFAACFDF91CF911F91089518
:1033E000E4EBF1E086E0DF011D928A95E9F71092A7
:1033F000B2011092B30108958091C20108950F9314
:103400001F93CF93DF9300D01F92CDB7DEB78C010F
:103410000E94571C823011F0843021F584E08983AA
:103420001B830A8382E08093E9008FEF9091E8008C
:10343000815095FD06C095ED9A95F1F70000811138
:10344000F5CF8091E80085FF0DC040E050E063E0DB
:1034500070E0CE0101960E94741C8091E8008E7786
:103460008093E8000F900F900F90DF91CF911F9104
:103470000F910895CF93DF9300D01F92CDB7DEB7A1
:103480002091D601243031F523E029838058910919
:103490009B838A8382E08093E9008FEF9091E8001C
:1034A000815095FD06C095ED9A95F1F700008111C8
:1034B000F5CF8091E80085FF0DC040E050E063E06B
:1034C00070E0CE0101960E94741C8091E8008E7716
:1034D0008093E8000F900F900F90DF91CF910895A7
:1034E000CF93DF93EC010E94571C823011F084309F
:1034F000F9F482E08093E9008FEF9091E800815029
:1035000095FD06C095ED9A95F1F700008111F5CF74
:103510008091E80085FF0CC040E050E066E070E07C
:10352000CE010E94741C8091E8008E778093E800A1
:10353000DF91CF910895CF93DF93EC010E94571C48
:10354000823011F0843039F581E08093E9008FEF0B
:103550009091E800815095FD06C095ED9A95F1F7A0
:1035600000008111F5CF8091E80085FF14C040E094
:1035700050E068E070E0CE010E94741C8091E80089
:103580008E778093E80088E0FE01AAEBB1E001901D
:103590000D928A95E1F7DF91CF9108958091D50141
:1035A000811109C00E94051E0E94621E8091E200E6
:1035B00084608093E20008951092D50108950895E3
:1035C00008950C941C1742E061EC81E00E947E1D7E
:1035D00042E261EC82E00C947E1D8091D801833040
:1035E00009F460C030F4813071F0823009F499C080
:1035F00008958A3009F485C08B3009F46BC0893096
:1036000009F0A7C020C08091D701813A09F0A1C07C
:103610008091E800877F8093E8008091DB019091A2
:10362000DC01892B21F468E08AEB91E003C060E0C3
:1036300080E090E070E00E94BF1C8091E8008B77F2
:103640008093E80008958091D701813209F081C00C
:103650008091DB019091DC01029708F07AC08091A3
:10366000E800877F8093E8008091E80082FD05C034
:103670008091D6018111F8CF6CC02091F300809128
:10368000F20090E0922B029729F48091F1008B7F59
:10369000813021F48091F1008093C2018091E80093
:1036A0008B7753C08091D701813A09F052C0809145
:1036B000DB019091DC01892B09F04BC08091E8007F
:1036C000877F8093E8008091E80080FFFCCF8091A5
:1036D000120136C08091D7018132D9F58091DB018A
:1036E0009091DC01892BA9F58091E800877F809378
:1036F000E8000E94B31D8091D901809312010C94BF
:10370000530F8091D701813221F58091E800877FA6
:103710008093E8000E94B31D8091DA018093C30179
:1037200008958091D701813AA1F48091E800877FC4
:103730008093E8008091E80080FFFCCF8091C30176
:103740008093F1008091E8008E778093E8000C94DC
:10375000B31D089584B7877F84BF0FB6F894A895EA
:1037600080916000886180936000109260000FBEBD
:1037700080E880936100109261000E949E0A0E947E
:10378000051E0E94621E8091E20084608093E20028
:1037900078940E94F7200E94A60A88E091E00E9497
:1037A000380A8091D601853069F40E94EA1680912A
:1037B000D4018823B1F30E94D216882391F30E948A
:1037C0005E1CEFCF0E94AE0AECCF0C94E71B292FB2
:1037D000332723303105C9F060F42130310581F001
:1037E0002230310509F04AC08BE390E028E431E053
:1037F00049C02132310511F12232310579F13EC043
:1038000082E190E023E831E03DC0992781309105C5
:1038100061F040F08230910559F0039779F5E4E2C8
:10382000F1E008C0E4E4F1E005C0E4E3F1E002C047
:10383000EAE2F1E0849190E09F0124C061157105F6
:1038400041F061307105D1F489E090E023E731E087
:1038500019C089E090E02AE531E014C061157105D6
:1038600041F06130710551F485E890E025E931E0DF
:1038700009C080E490E02AE132E004C080E090E0FA
:1038800020E030E0FA013183208308950895CF933A
:10389000C82F0E94461CC093C401CF910895809107
:1038A000D601843011F081E0089582E0089580917E
:1038B000C401811102C00C944F1C089580E189BDA0
:1038C00082E189BD09B400FEFDCF8091D8008F7DD3
:1038D0008093D8008091E00082608093E000809126
:1038E000E00081FDFCCF0895CF92DF92EF92FF922E
:1038F0000F931F93CF93DF93EC018B017A010E940A
:10390000D21D811133C0E114F10439F0F701808137
:103910009181081B190BC80FD91FC12CD12C01157F
:10392000110519F18091E80085FD16C08091E8002D
:103930008E778093E800E114F10449F0F70180816B
:103940009181C80ED91ED182C08285E00FC00E942D
:10395000D21D882321F30AC089918093F100015080
:103960001109FFEFCF1ADF0ADACF80E0DF91CF91A4
:103970001F910F91FF90EF90DF90CF9008952091CD
:10398000DD013091DE012617370748F0611571051A
:1039900039F42091E8002E772093E80001C0B901A6
:1039A000FC0120E06115710579F18091D601882331
:1039B000F1F18530F1F18091E80083FD3CC0809108
:1039C000E80082FD2EC08091E80080FFEBCF2091BF
:1039D000F3008091F20090E0922B6115710551F097
:1039E0008830910538F421912093F10061507109DC
:1039F0000196F3CF21E0089709F020E08091E800DC
:103A00008E778093E800CECF2111CFCF0AC080916E
:103A1000D601882361F0853061F08091E80083FD54
:103A20000AC08091E80082FFF2CF80E0089582E032
:103A3000089583E0089581E008952091DD0130919B
:103A4000DE012617370748F06115710539F420911A
:103A5000E8002E772093E80001C0B901FC0120E0C6
:103A60006115710591F18091D601882309F440C058
:103A7000853009F43FC08091E80083FD3DC080910E
:103A8000E80082FD2FC08091E80080FFE9CF2091FF
:103A9000F3008091F20090E0922B6115710559F0CE
:103AA0008830910540F424912093F10031966150C3
:103AB00071090196F2CF21E0089709F020E080918A
:103AC000E8008E778093E800CBCF2111CCCF0AC0DD
:103AD0008091D601882361F0853061F08091E80003
:103AE00083FD0AC08091E80082FFF2CF80E0089554
:103AF00082E0089583E0089581E00895982F97303B
:103B000068F59093E900981739F07091EC002091D6
:103B1000ED005091F00003C0242F762F50E021FDDE
:103B200002C09F5FECCF3091EB003E7F3093EB0003
:103B30003091ED003D7F3093ED003091EB0031602E
:103B40003093EB007093EC002093ED005093F00065
:103B50002091EE0027FDE5CF80E008958F708093DF
:103B6000E90081E008958091D70187FF11C080911D
:103B7000E80082FD05C08091D6018111F8CF11C007
:103B80008091E8008B770BC08091D601882349F0A3
:103B90008091E80080FFF8CF8091E8008E778093D5
:103BA000E80008952091E4003091E50095E6409109
:103BB000EC00842F817040FF23C08091E80080FDDD
:103BC0001DC08091D601882399F0853099F08091AD
:103BD000EB0085FD11C04091E4005091E5002417F1
:103BE000350729F3915011F09A01E1CF84E008954F
:103BF00082E0089583E0089581E0089580E00895CB
:103C00004091E80042FFDDCF08950E94731E0E949C
:103C10007B1EE0EEF0E0808181608083E8EDF0E0E3
:103C200080818F77808319BCA7EDB0E08C918E7F67
:103C30008C9380818F7E80831092D50108950F939D
:103C40001F93CF93DF930E94731E0E947B1EC8EDCB
:103C5000D0E088818F778883888180688883888195
:103C60008F7D888319BC1092D6011092D2011092D8
:103C7000D4011092D30100EE10E0F80180818B7F17
:103C8000808388818160888342E060E080E00E94D8
:103C90007E1DE1EEF0E080818E7F8083E2EEF0E039
:103CA000808181608083808188608083F801808149
:103CB0008E7F8083888180618883DF91CF911F917F
:103CC0000F910895E8EDF0E080818F7E8083E7ED2D
:103CD000F0E080818160808384E082BF81E0809316
:103CE000D5010C941F1EE8EDF0E080818E7F80836B
:103CF0001092E20008951092DA001092E100089507
:103D00001F920F920FB60F9211242F933F934F9350
:103D10005F936F937F938F939F93AF93BF93EF9333
:103D2000FF938091E10082FF0BC08091E20082FF4F
:103D300007C08091E1008B7F8093E1000E94F62014
:103D40008091DA0080FF1FC08091D80080FF1BC0E7
:103D50008091DA008E7F8093DA008091D90080FF15
:103D60000DC080E189BD82E189BD09B400FEFDCFAF
:103D700081E08093D6010E94CE1A05C019BC109232
:103D8000D6010E94DC1A8091E10080FF19C0809169
:103D9000E20080FF15C08091E2008E7F8093E200F8
:103DA0008091E20080618093E2008091D80080627F
:103DB0008093D80019BC85E08093D6010E94E01A58
:103DC0008091E10084FF30C08091E20084FF2CC02C
:103DD00080E189BD82E189BD09B400FEFDCF8091FB
:103DE000D8008F7D8093D8008091E1008F7E8093F2
:103DF000E1008091E2008F7E8093E2008091E200FA
:103E000081608093E2008091D201882311F084E0E8
:103E100007C08091E30087FD02C081E001C083E01C
:103E20008093D6010E94E11A8091E10083FF29C0AE
:103E30008091E20083FF25C08091E100877F80931D
:103E4000E10082E08093D6011092D2018091E100DE
:103E50008E7F8093E1008091E2008E7F8093E2006C
:103E60008091E20080618093E20042E060E080E0C7
:103E70000E947E1D8091F00088608093F0000E9477
:103E8000DF1AFF91EF91BF91AF919F918F917F9139
:103E90006F915F914F913F912F910F900FBE0F90B7
:103EA0001F9018951F920F920FB60F9211242F9307
:103EB0003F934F935F936F937F938F939F93AF93B2
:103EC000BF93CF93DF93EF93FF93C091E900CF703F
:103ED0008091EC00D82FD17080FDD0E81092E900DD
:103EE0008091F000877F8093F00078940E94961F65
:103EF0001092E9008091F00088608093F000CD2B53
:103F0000CF70C093E900FF91EF91DF91CF91BF9106
:103F1000AF919F918F917F916F915F914F913F9161
:103F20002F910F900FBE0F901F9018951F93CF9356
:103F3000DF93CDB7DEB7AA970FB6F894DEBF0FBEFA
:103F4000CDBFE7EDF1E08091F100819321E0EF3DFD
:103F5000F207C9F70E94ED1A8091E80083FF2EC195
:103F60008091D7019091D801492F50E04A305105F6
:103F700008F024C1FA01EC58FF4F0C942621803838
:103F800021F0823809F01AC108C08091D3019091C4
:103F9000D401992389F082600FC08091DB018F707A
:103FA000873008F00BC18093E9008091EB0085FB1E
:103FB000882780F91092E9009091E800977F90930C
:103FC000E8008093F1001092F100D1C0282F2D7FDE
:103FD00009F0F4C0882319F0823061F0EFC08091BD
:103FE000D901813009F0EAC0933009F080E0809374
:103FF000D4012EC08091D90181112AC08091DB01AA
:104000008F702FEF280F263008F0D8C08093E9007A
:104010002091EB0020FF1CC0933021F48091EB0035
:10402000806214C09091EB0090619093EB0021E0CE
:1040300030E0A90102C0440F551F8A95E2F7409372
:10404000EA001092EA008091EB0088608093EB0018
:104050001092E9008091E800877F8093E8000E9439
:10406000B31DACC08111AAC01091D9011F778091F6
:10407000E3008078812B8093E3008091E800877FC4
:104080008093E8000E94B31D8091E80080FFFCCF80
:104090008091E30080688093E300111102C082E008
:1040A00001C083E08093D60189C08058823008F037
:1040B00085C08091D9019091DA018C3D53E095073C
:1040C00079F583E08A838AE289834FB7F894DE0129
:1040D000139620E03EE051E2E32FF0E050935700CA
:1040E000E49120FF03C0E295EF703F5FEF708E2FE9
:1040F00090E0EA3010F0C79601C0C0968D939D9372
:104100002F5F243149F74FBF8091E800877F80936C
:10411000E8006AE270E0CE0101960E94BF1C16C062
:104120006091DB017091DC01AE014F5F5F4F0E9437
:10413000E51BBC01892B09F441C09091E800977FF1
:104140009093E80089819A810E941D1D8091E8006A
:104150008B778093E80032C0803881F58091E80049
:10416000877F8093E8008091D2018093F100809155
:10417000E8008E7772CF811121C08091D901909192
:10418000DA0199270297D4F48091E800877F809321
:10419000E8008091D9018093D2010E94B31D8091E3
:1041A000D201811106C08091E30087FD02C081E049
:1041B00001C084E08093D6010E94E31A8091E80058
:1041C00083FF0AC08091E800877F8093E800809198
:1041D000EB0080628093EB00AA960FB6F894DEBFE6
:1041E0000FBECDBFDF91CF911F9108950895CF935A
:1041F0008091D6018823A1F0C091E900CF70909101
:10420000EC00892F817090FD80E8C82B1092E900A6
:104210008091E80083FD0E94961FCF70C093E90053
:10422000CF91089597FB072E16F4009407D077FDE1
:1042300009D00E942C2107FC05D03EF49095819571
:104240009F4F0895709561957F4F0895EE0FFF1F62
:104250000590F491E02D0994AA1BBB1B51E107C006
:10426000AA1FBB1FA617B70710F0A61BB70B881F06
:10427000991F5A95A9F780959095BC01CD01089595
:10428000F999FECF92BD81BDF89A992780B508951E
:10429000A8E1B0E042E050E00C947421262FF99997
:1042A000FECF92BD81BDF89A019700B4021639F095
:1042B0001FBA20BD0FB6F894FA9AF99A0FBE089566
:1042C0000396272F0E944F210E944E21252F0E94E6
:1042D0004F21242F0C944F210196272F0E944F210C
:1042E0000C944E21DC01CB01FC01F999FECF06C0F4
:1042F000F2BDE1BDF89A319600B40D9241505040A4
:08430000B8F70895F894FFCF0F
:10430800A3012808140A321EFC199B1A701A3A1ABB
:10431800FF1901919094326697C6343500FF010069
:10432800010000FFFF0000010001FF00F531F4F774
:00000001FF
