:100000000C9455010C949C010C949C010C949C0143
:100010000C949C010C949C010C949C010C949C01EC
:100020000C949C010C949C010C94B91E0C948B1F95
:100030000C945D170C949C010C949C010C949C01F5
:100040000C949C010C949C010C949C010C949C01BC
:100050000C949C010C94C5170C949C010C949C016D
:100060000C949C010C949C010C949C010C949C019C
:100070000C949C010C949C010C949C010C949C018C
:100080000C949C010C949C010C949C010C949C017C
:100090000C949C010C949C010C949C010C949C016C
:1000A0000C949C010C949C010C949C01150D150D55
:1000B000470D470D940DB20D0A0F0A0FF40D890E6E
:1000C0009A0E9A0EFA0E0A0F0A0F030F9E0F9E0F3A
:1000D000B00FB00FA70FB00FB00FB00F9E0F9E0F55
:1000E000AC0FB00FB00FAC0FF81F1F2017211F204F
:1000F00017216B208E201721E520F4205400560094
:100100005500AE005F006000610056005C005D00BD
:100110005E00570059005A005B002B0062428500C8
:100120006300584153002D02000000002402250204
:1001300026022E0021022202230200001E021F02BC
:1001400020020000270200005400000053000000BD
:1001500000000000F400F000F5000000F200F100E3
:10016000F3002B00F9000000FA000000000000007E
:100170004C00290004033000000008035000320046
:10018000300000000E0350006100620069006C0046
:10019000650000000403090409023B00020100A0FD
:1001A000FA09040000010301010009211101000105
:1001B0002240000705810308000A09040100010329
:1001C00000000009211101000122850007058203BA
:1001D00020000A120110010000000866666766012F
:1001E000000102030105010902A10185020901A123
:1001F00000050919012905150025019505750181DD
:100200000295017503810105010930093115812528
:100210007F95027508810609381581257F9501753E
:10022000088106050C0A38021581257F950175089D
:100230008106C0C005010980A10185031A81002A39
:100240008300160100260300950175108100C0058A
:100250000C0901A10185041A01002A9C0216010063
:10026000269C02950175108100C005010906A101B7
:10027000050719E029E71500250195087501810298
:100280009501750881010507190029FF150026FF52
:100290000095067508810005081901290595057561
:1002A000019102950175039101C011241FBECFEF8A
:1002B000DAE0DEBFCDBF04B603FE27C08091DF01C8
:1002C0009091E001A091E101B091E2018730904B63
:1002D000A740B04BD1F41092DF011092E0011092D0
:1002E000E1011092E20114BE84B7877F84BF0FB68C
:1002F000F894A895809160008861809360001092C6
:1003000060000FBEE0E0F8E3099511E0A0E0B1E085
:10031000EAE7F3E402C005900D92A033B107D9F7E4
:1003200021E0A0E3B1E001C01D92AF3DB207E1F7CB
:100330000E94E31B0C94BB210C940000811106C0A9
:10034000662311F089EF09C08AEF07C0813039F4C4
:10035000662311F08AEA01C089EA0C94C20C089560
:100360009C013A9521153F4138F5DC01AA27B2706E
:10037000AC01442754709C012227387094FF0FC0B1
:1003800090FF02C080E101C080E0AB2B09F08062E9
:10039000452B09F08064232B69F080680BC0892FFE
:1003A0008170AB2B09F08260452B09F08460232B10
:1003B00009F08860FB0109940895CF93DF93EC0165
:1003C000805E9109089710F0209719F465ED7CE0A4
:1003D00002C064E67FE0CE010E94B0018C2FDF9165
:1003E000CF910C94C40BCF93DF93EC010E948E0C41
:1003F000CE01805E9109089710F0209719F46CEDFA
:100400007CE002C06BE67FE0CE01DF91CF910C94DF
:10041000B001CF93DF93EC010E94DD01CE01DF91AB
:10042000CF910C94F30181E0089581E008950C943C
:1004300015021F93CF93DF9300D000D01F92CDB74A
:10044000DEB749835A836B832091510189819A8158
:10045000211112C0662349F00E94EC14182F682F56
:1004600089819A810E94971403C00E94C114182F99
:1004700069817A81812F04C00E94EC1469817A819C
:100480000F900F900F900F900F90DF91CF911F91D1
:100490000C944704FC014081518162817381848105
:1004A0000C9419020E942116811102C00E94C116EB
:1004B0000E94D7080E942C080C94F7060E943B0962
:1004C0000C94F906282F2F7041F0822F90E02A30EB
:1004D00010F44D9608950697089587E290E00895E8
:1004E00008950C9470020C94710208950E948C0F70
:1004F0000E9475022FEF84E39CE0215080409040E1
:10050000E1F700C0000087E797E790930108809328
:1005100000080C94EB170F931F93CF93DF938C017C
:100520000E944A02EC01B8010E941702882309F4D4
:10053000A4C1B801CE010E94A008882309F49DC17E
:10054000B801CE010E94300A882309F496C1C63151
:10055000FCE5DF0739F50E946D15982FF8018281BF
:100560002091000130910101882379F09A7A81E08D
:1005700009F480E080933001911102C069E201C06A
:1005800065E3C9010E94FB160AC080913001811108
:1005900002C069E201C065E3C9010E94FD160E9424
:1005A000BE156BC1C7318CE5D80708F03BC1C1301F
:1005B000ECE5DE0771F4F8018281882309F45DC15E
:1005C0008091AE01982F909590FB80F98093AE01B9
:1005D00054C1C230FCE5DF0708F413C1F801828181
:1005E000882309F411C10E942116811102C00E94C2
:1005F000C1160E9434169093D1018093D001C0316E
:10060000FCE5DF0709F4BFC008F03FC0C830ECE5E7
:10061000DE0709F496C0F0F4C4308CE5D80709F47D
:1006200083C068F4C230FCE5DF0709F473C0C3304F
:10063000DC4509F0DDC08091D001826072C0C63017
:10064000ECE5DE0709F46AC008F077C08091D001BC
:10065000886067C0CC308CE5D80709F481C058F4B5
:10066000CA30FCE5DF0709F470C008F075C080915E
:10067000D001806856C0CE30ECE5DE0709F474C0C6
:1006800008F07DC08091D00189C0CB3F8CE5D807B0
:1006900009F44DC008F5C331FCE5DF0709F47BC060
:1006A00068F4C131ECE5DE0709F471C0C231DC4504
:1006B00009F09EC08091D0018F7733C0C5318CE5A1
:1006C000D80709F472C008F486C0CA3FDC4509F0B7
:1006D0008FC08091D1013EC0CF3F8CE5D80709F48F
:1006E0005FC058F4CD3FFCE5DF0709F444C008F4CF
:1006F0003FC08091D10182602DC0C130EDE5DE07A1
:1007000009F473C008F45DC0C230DD4509F070C063
:1007100080E06CC08091D001816003C08091D001E5
:1007200080618093D00164C08091D00111C080911C
:10073000D10182608093D1015BC08091D001806241
:10074000F0CF8091D0018064ECCF8091D00188609F
:100750008460E7CF8160EECF8091D0018E7FE1CFC2
:100760008091D0018D7FDDCF8091D001877FD9CF5F
:100770008091D10118C08091D1018D7FDBCF809114
:10078000D0018F7ECECF8091D0018F7DCACF809156
:10079000D0018F7BC6CF8091D001877F8B7FC1CF67
:1007A0008091D1018D7F8E7FC5CF8091D00182FB5A
:1007B000222720F991E0922790FB82F990FB83F9A0
:1007C000B0CF8091D101982F909591708E7F892B19
:1007D00090FB81F9AFCF8091D00187FB222720F9D0
:1007E00091E0922790FB87F99CCF81E00E94C3168D
:1007F0008091D0019091D1010E9445160E948C0FEA
:100800003CC0C115DC4539F0C801DF91CF911F9183
:100810000F910C941302F8018281882371F10E94D8
:1008200076022BC0CE3DECE5DE0739F4F80182817B
:10083000882319F10E94C11620C0CF3DFCE5DF07D7
:10084000A8F4CC3D8CE5D80731F4F80182818823E7
:10085000A1F080E008C0CD3DDC45B1F6F801828111
:10086000882359F082E00E94801C07C0CE018A5F75
:100870009C45099708F4B2CEC7CF80E0DF91CF91B5
:100880001F910F91089580E090E008950895E72F5B
:10089000F0E095E0899FE00DF11D1124EE0FFF1FA0
:1008A000EE0FFF1FE60FF11DEE0FFF1FE450FF4F8D
:1008B000859194910895880F991FFC01EC58FE4F83
:1008C000859194910895CF93DF930E9447040E94ED
:1008D0001D06EC018115904508F041C0C11580E46A
:1008E000D80708F028C1C83ED10510F5C03ED10593
:1008F00008F09FC1C83AD10578F4C53AD10508F08F
:10090000A2C0C130D10509F494C108F445C1C43076
:10091000D10508F08EC140C1CF3BD10508F49EC07F
:10092000C03CD10508F438C1CE01805C9109F5C006
:10093000C11590E2D90758F4C11521E0D20708F09B
:1009400078C1C03FD10508F427C1D06572C1C11577
:1009500080E3D80708F0E5C0CE019F70DEC0C11566
:1009600095E5D90708F043C0C11524E5D20708F082
:10097000F9C0C11582E5D80708F5C11591E5D90779
:1009800008F0DCC0CE0174E0969587957A95E1F782
:1009900083709C2F937021E030E002C0220F331F40
:1009A0009A95E2F73C68382BCF70C695C69580E2E1
:1009B000C89FE0011124C22BD32B3BC19E012370A1
:1009C00033278C2F86958695C115D34508F0BBC07B
:1009D000C1E0D0E002C0CC0FDD1F2A95E2F720E293
:1009E000829FC0011124C82BD92BDC6822C1C115FC
:1009F00029E5D207A0F4C11588E5D80708F0B7C0EB
:100A0000C11596E5D90708F0C7C08C2F0E94B10622
:100A10008F71C82FD0E0DC2FCC27D0620AC1C1155E
:100A20002AE5D20708F4A8C0CE019056811590425D
:100A300008F0B2C08D2F8F710E94B106DD27D06201
:100A40008F71D82BF6C0C53AD10509F4A8C0C63AB3
:100A5000D10509F0A7C0C2E8D0E4EBC0C83AD1057F
:100A600009F4A3C0C93AD10509F4A2C0CA3AD10514
:100A700009F4A1C0CB3AD10509F4A0C0CC3AD10504
:100A800009F49FC0CB3BD10509F49EC0CC3BD105F6
:100A900009F49DC0CD3AD10509F49CC0C03BD105F5
:100AA00009F49BC0CE3AD10509F49AC0CF3AD105DA
:100AB00009F499C0C13BD10509F498C0C23BD105E6
:100AC00009F497C0C33BD10509F496C0C43BD105D6
:100AD00009F495C0C53BD10509F494C0C63BD105C6
:100AE00009F493C0C73BD10509F492C0C83BD105B6
:100AF00009F491C0C93BD10509F490C0CD3BD105A3
:100B000009F48FC0CE3BD10509F48EC0CA3BD10594
:100B100009F48DC0C0E0D4E48CC00E945B04EC01F9
:100B200088C0CE019927D3FF03C0EC01D86C81C0E7
:100B3000EC01D06C7EC0DF70D06A7BC0DC2FCC278C
:100B4000C16FD06A76C0C1E0D0E002C0CC0FDD1F1B
:100B50002A95E2F720E2829FC0011124C82BD92BED
:100B6000DA6867C0DC2FCC27C46FD06A62C0DC2F84
:100B7000CC27C06FD06A5DC08C2F8F700E94B106E9
:100B800094E0D695C7959A95E1F7CF70D0E0DC2F29
:100B9000CC27D069C82B4DC0C0E0D0E04AC0C1E826
:100BA000D0E447C0C3E8D0E444C0C2EED4E441C0BE
:100BB000C9EED4E43EC0CAEED4E43BC0C5EBD4E4F5
:100BC00038C0C6EBD4E435C0C3EBD4E432C0C4EBC8
:100BD000D4E42FC0C7EBD4E42CC0CCECD4E429C0BF
:100BE000CDECD4E426C0C3E8D5E423C0CAE8D5E4FC
:100BF00020C0C2E9D5E41DC0C4E9D5E41AC0C1E2F1
:100C0000D6E417C0C3E2D6E414C0C4E2D6E411C0EF
:100C1000C5E2D6E40EC0C6E2D6E40BC0C7E2D6E415
:100C200008C0CFE6D4E405C0C0E7D4E402C0CAE2FD
:100C3000D6E4CE01DF91CF9108958238910569F114
:100C4000B0F48133910509F46DC048F489329105FF
:100C500009F463C08A32910509F469C008958533A7
:100C6000910509F455C089339105B9F00895833E83
:100C7000910569F138F4803E9105B1F0823E91050D
:100C800009F10895863E9105A9F1873E9105B9F1D4
:100C9000843E910509F064C023C02091D00120FD5D
:100CA0004FC021FD4DC008958091D00180FD44C00A
:100CB0008091D10180FF44C08091D00184FD42C069
:100CC00083EE4DC08091D00182FF38C0F5CF809176
:100CD000D00182FD33C08091D10180FD31C0ECCFC5
:100CE0008091D10181FF32C08091D00184FD2AC062
:100CF00087EE35C08091D00183FF26C0F5CF80916B
:100D0000D00183FD21C08091D10181FD1FC0ECCFB6
:100D10008091D00185FD1CC01DC08091D00185FD52
:100D200019C016C08091D00186FD16C017C08091F1
:100D3000D00186FD13C010C089E311C082EE0FC040
:100D400080EE0DC080E00BC086EE09C084EE07C0C7
:100D500089E205C085E303C08AE201C081E390E037
:100D600008959091D00192FF0DC0282F287128304E
:100D700019F4877F846006C0282F2471243011F471
:100D80008B7F886093FF0DC0282F2871283119F4BC
:100D9000877E846106C0282F2471243111F48B7E54
:100DA00088612091D10120FF0DC0382F3871383073
:100DB00019F4877F816006C0382F3171313011F40A
:100DC0008E7F886021FF0DC0282F2871283119F4EB
:100DD000877E816106C0282F2171213111F48E7E1A
:100DE000886194FD877E089508950C94F4060C9410
:100DF000F5060C94F406E82FF0E0EF5CFE4F8081DE
:100E000008950895CF93DF93A7E1B1E04CE151E05D
:100E100061E070E08D91E82FE295EF70F0E021A1A4
:100E20008F70EB0102C0CC0FDD1F8A95E2F7CE0177
:100E30009C2F9095922391A392A1892B82A34A176C
:100E40005B0741F7A3E1B1E047E151E061E070E009
:100E50008D91E82FE295EF70F0E021A18F70EB010A
:100E600002C0CC0FDD1F8A95E2F7CE019C2F909532
:100E7000922391A392A1892B82A34A175B0741F782
:100E8000E6E3F1E0A1E3B1E08BE391E011921D9282
:100E90008E179F07D9F785E00E94E007DF91CF9179
:100EA0000C9452025F926F927F928F929F92AF92B8
:100EB000BF92CF92DF92EF92FF920F931F93CF9347
:100EC000DF9367E171E0A6E3B1E02BE3A22E21E01E
:100ED000B22E612C01E010E06D015C901C92EB01E0
:100EE0008991BE01E82FE295EF70F0E021A18F70AB
:100EF000A80102C0440F551F8A95E2F7CA01242BAE
:100F000021A322A1942E9094292122A350EA5A953C
:100F1000F1F793E1E92E91E0F92E40E050E0E7018E
:100F200089907E01282D22952F7030E0E90128A1BB
:100F30007C9030E0D82DDF7002C035952795DA958A
:100F4000E2F720FD08C0302F042E01C0330F0A94B1
:100F5000EAF7232F01C020E027292C934F5F5F4F32
:100F600044305105E1F691A1992291A292A1892BD9
:100F700082A3119681E0F6019081951101C080E075
:100F8000682AAA16BB0609F0A7CF262D45E061E323
:100F900071E086E391E00E94E1070E945E02862DE7
:100FA000DF91CF911F910F91FF90EF90DF90CF9045
:100FB000BF90AF909F908F907F906F905F900895BB
:100FC0000895FF920F931F93CF93DF938C01F62E1A
:100FD000D72FC42F222349F081E080933D010E9446
:100FE0008F1790933C0180933B0180913D018823B2
:100FF000C1F080913B0190913C010E949B170697A4
:1010000080F0EF2DFD2FD8014C2F50E0CD01801B3B
:10101000910B841795071CF48D918193F7CF109253
:101020003D01DF91CF911F910F91FF900895CF93D4
:10103000DF9397FF0DC0FB012281222349F0EC01D1
:101040000E944208CE019F770E9483080E946C088C
:1010500081E0DF91CF9108958CE090E00E947921AA
:1010600090E0A0E0B0E08093C5019093C601A0930A
:10107000C701B093C80108956091C5018CE090E06C
:101080000C9487210E946D158093C9010E948015E0
:101090008091C501813071F048F0823081F0843058
:1010A000A1F486EE0E94C20C88E10DC082EE0E947F
:1010B000C40B0BC088E193E00E94090206C082EED7
:1010C0000E94C40B87E50E94C20C8FE39CE9019744
:1010D000F1F700C0000008958091C501813039F01A
:1010E00040F0823031F0843051F488E206C08CE266
:1010F00004C082EE0E948E0C02C00E94C20C80913D
:10110000C9010C947D150F931F93CF93DF938C012E
:10111000CCE0D0E0C8010C2E02C0969587950A94C9
:10112000E2F78F700E9462020E94C20C2497CC3FAB
:101130008FEFD80779F7DF91CF911F910F91089525
:101140000F931F93CF93DF93EC018B01FB018281FF
:10115000882319F1C33EFCE5DF07C1F050F4C13E1E
:10116000ECE5DE0781F0C23EFCE5DF07B1F481E08B
:1011700010C0C43E8CE5D80759F0C53EECE5DE074B
:1011800061F484E006C01092C50105C082E001C090
:1011900083E08093C5010E943C08B801CE01DF9135
:1011A000CF911F910F910C9417080C949E01FF9200
:1011B0000F931F93CF93DF93C0E4D1E04EE251E051
:1011C0002CE231E061E070E0F1E0C234DF0709F4C5
:1011D0004CC0FA010191AF01A02FA295AF70B0E011
:1011E0009196EC9191970F70CB01002E01C0880F62
:1011F0000A94EAF7982F90959E2391969C93919745
:1012000092969C919297892B92968C939297F90142
:1012100011919F01E12FE295EF70F0E0F1A01F70B6
:10122000CB01012E01C0880F0A94EAF7982F909500
:101230009F2191A392A1892B82A390968C9190E0FB
:1012400002C0959587950A95E2F78170E0A1F0E0DC
:1012500002C0F595E7951A95E2F7E0FD02C090E02F
:1012600001C092E0892B8993AFCFDF91CF911F917D
:101270000F91FF9008957F928F929F92AF92BF92AD
:10128000CF92DF92EF92FF920F931F93CF93DF9352
:10129000CEE3D1E000E411E08EE2882E81E0982ECA
:1012A0009CE2A92E91E0B92E68017801712CD7013A
:1012B000ED917D014E2F440F440FF80141938F01B2
:1012C000D4012D914D01E22FE295EF70F0E080A165
:1012D00090E02F7002C0959587952A95E2F781706E
:1012E0009927F50151915F01E52FE295EF70F0E04C
:1012F00020A130E05F7002C0359527955A95E2F73E
:10130000F901E170FF2720FF02C0E2E0F0E0E82BE6
:10131000F92BE42BD601ED936D01EF70F0E0E45E64
:10132000FE4F90818881890F8883843024F060E0AB
:10133000872D0E94D50888818D3F24F461E0872D98
:101340000E94D5088881837887FF03C081508C6F05
:101350008F5F89937394B2E07B12A9CFDF91CF9115
:101360001F910F91FF90EF90DF90CF90BF90AF90C3
:101370009F908F907F9008950F931F93CF93DF934B
:10138000C62FD42F122FFC0182818823C9F06093CD
:1013900044010E948F17909343018093420180E2A1
:1013A0008C0F883008F057C0C77081E001C0880FEB
:1013B000CA95EAF7DF91CF911F910F910C94D50C4C
:1013C00080914401681330C08091420190914301A3
:1013D0000E949B17883C910538F500E20D0FCD1750
:1013E000B9F080E28C0F883040F4C77081E001C012
:1013F000880FCA95EAF70E94DC0C083028F581E0D6
:101400009D2F977001C0880F9A95EAF70E94D50C1E
:10141000812F0E94C20C0830F0F4D77081E001C027
:10142000880FDA95EAF70AC080E28C0F883098F4CA
:10143000C77081E001C0880FCA95EAF7DF91CF91AC
:101440001F910F910C94DC0C812FDF91CF911F9194
:101450000F910C94C20CDF91CF911F910F910895C1
:101460009C01CB01233F4CE53407F9F078F4283D8B
:10147000FCE53F07B9F0293D4CE5340711F1273D64
:101480003C4531F526E241EE61EE1EC0253FFCE50C
:101490003F0799F070F0263F3C45D1F427E245EE36
:1014A00066EE12C027E245EE0EC026E241EE60EE87
:1014B0000BC027E245EE64EE07C026E241EE62EE85
:1014C00003C028E241E065EE0E94BC0980E0089577
:1014D000FC018281882319F010924401089581E073
:1014E000089590934A01809349010895E09149013C
:1014F000F0914A01309721F00190F081E02D09949C
:1015000080E00895E0914901F0914A01309721F07F
:101510000280F381E02D09940895E0914901F09152
:101520004A01309739F022E0DC012C930480F581E8
:10153000E02D099408952091470130914801281722
:10154000390771F09093480180934701E091490178
:10155000F0914A01309721F00680F781E02D09943F
:10156000089520914501309146012817390771F0FF
:101570009093460180934501E0914901F0914A0121
:10158000309721F00084F185E02D0994089585B706
:10159000806885BF85B7806885BF089508950C94DD
:1015A000CE0A0C94CF0A0C94CE0A0C94CE0A0E9458
:1015B000C70A0E94D30A0C94D10A81E008950E94C0
:1015C00086170E9402070E94FC170C94D50ABF924E
:1015D000CF92DF92EF92FF920F931F93CF93DF93FF
:1015E000CDB7DEB72A970FB6F894DEBF0FBECDBFDA
:1015F0000E9452070E94DD0A811111C08FEF89837A
:101600008A831B820E948F178160782F9D838C8331
:1016100049815A816B818D810E94900B54C08CE46A
:10162000C82E81E0D82E00E010E0B02E802F0E945E
:10163000FB06E82EF60121916F01F82EF22631F417
:101640000F5F1F4F0530110581F7D8CF8091AE0194
:1016500081FD0E94010780E090E02F2D30E0482FAF
:10166000B901082E02C0759567950A94E2F760FFEC
:1016700025C08E83BF8281E090E06C0102C0CC0C5B
:10168000DD1C4A95E2F72E2D30E02C213D21232B45
:1016900009F480E088870E948F178160782F9A87ED
:1016A00089874E815F8168858A850E94900BF80149
:1016B000E45BFE4F80818C25808305C001968430D9
:1016C000910569F6BDCF0E948E190E94760A90910D
:1016D0004B018917A9F00E94760A80934B012A9644
:1016E0000FB6F894DEBF0FBECDBFDF91CF911F9133
:1016F0000F91FF90EF90DF90CF90BF900C9473020A
:101700002A960FB6F894DEBF0FBECDBFDF91CF9102
:101710001F910F91FF90EF90DF90CF90BF900895B1
:10172000CF93DF93CDB7DEB72B970FB6F894DEBF1C
:101730000FBECDBF4F83588769877A878B87DE01BD
:10174000119686E0FD0111928A95E9F785E0FE0188
:10175000379601900D928A95E1F749815A816B8104
:101760007C818D819E810E945C122B960FB6F8942D
:10177000DEBF0FBECDBFDF91CF910895FC01808108
:1017800091810E942E150895882309F4C6C09CEF0C
:10179000980F913A40F4682F8091000190910101D7
:1017A0000E94FB160DC090E2980F983058F4877095
:1017B00091E001C0990F8A95EAF7892F0E94701570
:1017C0000C94BE159BE5980F933070F4853A29F080
:1017D000863A31F083E890E005C081E890E002C0ED
:1017E00082E890E00C949B0A98E5980F973108F0F6
:1017F0008EC0883A09F445C0893A09F445C08A3A4E
:1018000009F445C08B3A09F445C08C3A09F445C047
:101810008B3B09F445C08C3B09F445C08D3A09F473
:1018200045C0803B09F445C08E3A09F445C08F3A63
:1018300009F445C0813B09F445C0823B09F445C029
:10184000833B09F445C0843B09F445C0853B09F45A
:1018500045C0863B09F445C0873B09F445C0883B39
:1018600009F445C0893B09F445C08D3B09F445C0E6
:101870008E3B09F445C08A3B09F445C080E090E006
:1018800044C082EE90E041C089EE90E03EC08AEE16
:1018900090E03BC085EB90E038C086EB90E035C02F
:1018A00083EB90E032C084EB90E02FC087EB90E0B8
:1018B0002CC08CEC90E029C08DEC90E026C083E831
:1018C00091E023C08AE891E020C082E991E01DC048
:1018D00084E991E01AC081E292E017C083E292E0CD
:1018E00014C084E292E011C085E292E00EC086E26C
:1018F00092E00BC087E292E008C08FE690E005C05E
:1019000080E790E002C08AE292E00C94B10A803F46
:1019100020F00E9496180C9483190895882389F169
:101920009CEF980F913A40F4682F809100019091BC
:1019300001010E94FD160DC090E2980F983058F4F6
:10194000877091E001C0990F8A95EAF7892F0E946C
:1019500076150C94BE159BE5980F933020F480E02B
:1019600090E00C949B0A98E5980F973120F480E062
:1019700090E00C94B10A803F20F00E94FE180C9475
:1019800083190895CF93C82F0E94C40BC93349F41B
:101990002FEF87EE93E0215080409040E1F700C0A8
:1019A00000008C2FCF910C948E0C882321F00E9484
:1019B00070150C94BE150895882321F00E947615A9
:1019C0000C94BE150895CF92DF92EF92FF920F9381
:1019D0001F93CF93DF937C01062FC72FFC01158146
:1019E00012951F70D281D1110E9490150E94661528
:1019F000882379F0DD2369F080E2800F883048F099
:101A000082E00E9408160E94661591E0D82ED92621
:101A100001C0D12CCC2EC2948FE0C8228C2D90E036
:101A2000FC01EA5AFF4F0C945F218C2F807FCF700E
:101A3000882311F0C295C07FDD2399F0CC2309F4EF
:101A4000C4C180E2800F883010F0011104C08C2FD7
:101A50000E94701503C08C2F0E9483150E94BE1532
:101A6000B4C1802F0E948E0CCC2309F4D3C180E234
:101A7000800F883010F0011104C08C2F0E94761561
:101A800003C08C2F0E9489150E94BE15C3C18C2FE4
:101A9000807FCF70803211F0C295C07F002319F093
:101AA0000130C9F022C0DD2371F0112341F0113063
:101AB00031F40E94A3158C2B0E94AB15ABC10E9480
:101AC000A3158C2B1DC0112319F0113009F4A2C1EC
:101AD0000E94B41525C0DD2321F0163008F09AC10C
:101AE0000EC0153008F096C11BC0DD2361F0112334
:101AF00031F0F701858180FF68C18F7085838C2F5D
:101B00000E94D50C87C1112359F0093309F06EC129
:101B1000FFEF27EE83E0F15020408040E1F764C101
:101B20008C2F0E94DC0C76C18C2F86958695837055
:101B300019F0813061F06EC1DD2321F0802F9C2FE0
:101B4000937002C080E090E00E949B0A6BC1DD238D
:101B500021F0802F9C2F937002C080E090E00E94C3
:101B6000B10A60C1DD23F9F0053F51F0063F71F085
:101B7000043FA9F48091CA019091CB0181600BC010
:101B80008091CA019091CB01826005C08091CA0109
:101B90009091CB0184609093CB018093CA01802FF8
:101BA0000E9496181EC0053F51F0063F71F0043F99
:101BB000A9F48091CA019091CB018E7F0BC08091D6
:101BC000CA019091CB018D7F05C08091CA0190918F
:101BD000CB018B7F9093CB018093CA01802F0E9411
:101BE000FE180E9483191EC18C2F837009F045C016
:101BF000D11114C1402F429546954770440F440FB0
:101C0000602F6F70862F90E0A0E0B0E0042E04C03B
:101C1000880F991FAA1FBB1F0A94D2F704FF10C098
:101C20000FE010E020E030E004C0000F111F221F81
:101C3000331F4A95D2F7009510952095309503C033
:101C400000E010E09801C695C695C370BC01CD01B7
:101C5000602B712B822B932BC23049F058F4C1308A
:101C600019F00E94AD13DAC00E949B13D7C00E94E6
:101C7000BF13D4C00E949913D1C0DD2319F08C2F5B
:101C8000817001C08695882309F4C8C0402F429511
:101C900046954770440F440F602F6F70862F90E079
:101CA000A0E0B0E0042E04C0880F991FAA1FBB1F3C
:101CB0000A94D2F704FF10C00FE010E020E030E0FB
:101CC00004C0000F111F221F331F4A95D2F7009541
:101CD00010952095309503C000E010E09801C6955E
:101CE000C695C370BC01CD01602B712B822B932B49
:101CF000C23049F058F4C13019F00E9472148EC0FD
:101D00000E9460148BC00E94841488C00E94D31368
:101D100085C0CF70DD2339F08C2F0E94F913802FFE
:101D20000E94D50C7BC0802F0E94DC0C8C2F0E945F
:101D30001A1474C0023F01F128F4003F41F0013F42
:101D4000A1F03FC0033FF9F0043F39F13AC0DD2371
:101D500041F0153008F05EC08C2F8F710E943F1447
:101D600059C0163008F056C0F7CFDD2339F08C2F5C
:101D70008F710E94F9134EC0DD23C9F38C2F8F7130
:101D80000E941A1447C0DD2329F08C2F8F710E9406
:101D9000E41340C00E94DF133DC0DD2349F0CF7142
:101DA0008C2F0E94F91363E08C2F0E94F31532C030
:101DB00081E00E940816123068F182E00E94081645
:101DC00029C0DD2331F0112391F2802F0E94C40B32
:101DD00021C0112399F2093349F49FEFE7EEF3E0B4
:101DE0009150E040F040E1F700C00000802F0E94D9
:101DF0008E0C10C04C2F4F70602FC7010E944304FF
:101E00000E940A130FC04C2F4F70602FC7010E9411
:101E1000460408C088EF8C0D843020F40E94760AB6
:101E20000E947302DD20C9F00E94621580FD15C07A
:101E3000F70112820E945C150E94F913C7010E94EB
:101E4000360F0E945C15DF91CF911F910F91FF908B
:101E5000EF90DF90CF900C941A14DF91CF911F91E7
:101E60000F91FF90EF90DF90CF9008950F931F9305
:101E7000CF93DF93EC01988189812B813C81232BC7
:101E800031F08F3F31F481E09F3F19F403C081E0CE
:101E900001C080E080FD13C0CE010E948B02882328
:101EA00071F0688179818A810E9439158C010E94C4
:101EB00096140E948713B801CE010E94E30CDF91B3
:101EC000CF911F910F910895882321F00E948315CF
:101ED0000C94BE150895882321F00E9489150C9456
:101EE000BE1508950E9490150E94A0150E94BE156F
:101EF0000E94291A0E94831980E090E00E949B0AA8
:101F000080E090E00C94B10A809100019091010171
:101F10000E94FF160C94720F0E9480150C94840F7F
:101F2000E92FE295EF704E2F50E0FA013297EE3034
:101F3000F105B0F4EA59FF4F0C945F21803F91F016
:101F400018F4883E68F40EC0843F51F40BC0883EFC
:101F500048F0813F29F406C093FB882780F9089553
:101F600080E0089581E008950E942E150E94900F50
:101F70000895CF93DF9300D000D01F92CDB7DEB786
:101F80000F900F900F900F900F90DF91CF910895C9
:101F9000CF93DF9300D000D000D0CDB7DEB7269628
:101FA0000FB6F894DEBF0FBECDBFDF91CF9108957D
:101FB0001F93CF93DF93C091520116E0809153019C
:101FC000C81799F0D0E01C9FF0011D9FF00D11245F
:101FD000EC5AFE4F408151816281738184819581E9
:101FE0000E94C80F2196C770E9CFDF91CF911F9152
:101FF000089540918401509185016091860170910E
:10200000870180918801909189010C94C80FCF932A
:102010008091890182958F7009F05FC0809186015F
:10202000882309F45AC080915201B09153017091F4
:102030008401A0918501409187015091880191E030
:102040007F3F09F090E0692FC6E08B1709F445C087
:102050004115510521F0AF3F21F020E003C021E000
:1020600001C0262F90E020FD35C0C89FF001C99F18
:10207000F00D1124EC5AFE4F21812A132BC0208130
:10208000271328C02281211125C0238134812417E0
:10209000350710F421503109241B350B283C31053C
:1020A000C8F4209189012F7020612093890126E0D6
:1020B000289FF001299FF00D1124E75AFE4F8081DF
:1020C0008F708061808384E891E00E94360FCF9109
:1020D0000C94D80F01968770B8CFCF910895AF9226
:1020E000BF92CF92DF92EF92FF920F931F93CF9305
:1020F000DF93CDB7DEB761970FB6F894DEBF0FBEA2
:10210000CDBF8C0185E0F801DE011D9601900D9296
:102110008A95E1F7D8014C9111965C91119712962E
:10212000EC903091840160918501809187019091BC
:102130008801009731F06F3F31F421E03F3F19F4FF
:1021400003C021E001C020E0B22FB170BB2E20FD02
:1021500060C1F801C380D480A0908601AA2009F450
:10216000EEC020918901C816D90628F0D601A81B17
:10217000B90BCD0104C0809590958C0D9D1DFF2459
:10218000F394883C910580F0F12C207F09F09CC0ED
:102190007C2DD98AC88A6E2D89890E94B90F84E85E
:1021A00091E00E94360F2DC1822F807F09F054C02C
:1021B000561314C0431312C0FE2CE1100FC02F7031
:1021C0002061209389010E94F90F84E891E00E9428
:1021D000360F80918901F80185835CC1CD2831F0EB
:1021E0005F3F31F481E04F3F19F403C081E001C04B
:1021F00080E080FD03C081E08E2502C080E090E099
:10220000F82FF170FF2E80FF1CC0809152012091A9
:10221000530136E0821709F41AC190E0389FF001AB
:10222000399FF00D1124EC5AFE4F6181561306C000
:102230006081461303C06281E61203C00196877075
:10224000E9CFFE2CEE2009F425C18091890181603F
:1022500080938901F12C1EC1561309C0431307C096
:10226000E11005C080918901F8018583A4C04D87E4
:102270005E878D859E850E94B40F882379F1EE20BC
:1022800069F120918901822F82958F7090E00297E9
:1022900074F0809184019091850198878F831986CD
:1022A000DB86CA862C87CE0107960E94360F86E011
:1022B000F801A4E8B1E001900D928A95E1F70E943F
:1022C00007100E94F90F0DC0561771F04D875E87F9
:1022D0008D859E850E94B40F81111AC0C8010E948D
:1022E000360FFF24F394D6C04313F0CFE110EECFA6
:1022F00080918901F8018583C8010E94360F86E02C
:10230000E4E8F1E0DF011D928A95E9F7FA2CC2C0FA
:10231000EE2021F320918901822F82958F7090E029
:1023200002972CF280918401909185019A83898390
:102330001B82DD82CC822E83CE010196B6CFC816D9
:10234000D90628F0F601E81BF90BCF0104C08095EF
:1023500090958C0D9D1D883C910548F0F12C7C2DAD
:10236000D98AC88A6E2D89890E94B90F4AC0FE2C6D
:10237000EE2009F4B3CF561333C0431331C020917C
:10238000890120FD24C0822F82958F70482F50E054
:1023900041155105E1F0D80115962C9315974F3052
:1023A000510549F08F5F982F9295907F822F8F7003
:1023B000892B15968C93C8010E94360F86E0F80190
:1023C000A4E8B1E001900D928A95E1F73DC086E066
:1023D000F801A4E8B1E001900D928A95E1F75AC0A6
:1023E0004D875E878D859E850E94B40F81115FCFDA
:1023F00080918901816080938901C8010E94360F14
:1024000049C0E4E8F1E086E0DF011D928A95E9F732
:102410001BC0EE2009F462CF4D875E878D859E85B7
:102420000E94B40FF82E882309F458CF86E0F801F3
:10243000A4E8B1E001900D928A95E1F784E891E07B
:102440000E94BE0B0E9407100E94F90F23C04D8707
:102450005E878D859E850E942E15292F22952F70CF
:10246000223028F49F7039F0811105C00BC0243050
:1024700028F49F7049F4805E883020F0C8010E94E3
:10248000360FBF2CFB2C06C0D80115969C91907F6F
:1024900091F7F8CF8F2D61960FB6F894DEBF0FBE7F
:1024A000CDBFDF91CF911F910F91FF90EF90DF9003
:1024B000CF90BF90AF9008951F93CF93DF93CDB788
:1024C000DEB72C970FB6F894DEBF0FBECDBF4F839B
:1024D000588769877A878B879C87CE0107960E94E9
:1024E0006F108823D1F09F8188852A853B85232B17
:1024F00031F08F3F31F481E09F3F19F403C081E058
:1025000001C080E080FD47C04F81588569857A858C
:102510008B859C850E94C80F3EC086E0FE013796E1
:10252000DE01119601900D928A95E1F7FF81E88511
:102530006A857B856115710531F0EF3F31F481E0EB
:10254000FF3F19F403C081E001C080E080FD23C09B
:102550002091530130E0C90101968770992740917D
:10256000520150E084179507F1F1F983EA837D83E6
:102570006C8396E0929FD001939FB00D1124AC5ACA
:10258000BE4FFE01319601900D929A95E1F780932E
:1025900053010E94D80F16E080915201909153018F
:1025A000891771F1189FC00111248C5A9E4F0E9407
:1025B0006F10882329F1E09152011E9FF001112430
:1025C000EC5AFE4F408151816281738184819581F3
:1025D0000E94C80F8091520190E001968770992760
:1025E00080935201D9CF0E948C0F10925301109208
:1025F0005201E4E8F1E086E0DF011D928A95E9F7F7
:102600002C960FB6F894DEBF0FBECDBFDF91CF91F1
:102610001F910895EF92FF920F931F93CF93DF9333
:102620008C01892B09F46CC0F12CEE24E394E801B1
:102630002196F8018491843740F4843008F051C029
:10264000813081F0823019F15BC0853709F444C0D4
:10265000A8F19CE7980F903708F052C08F770E943E
:102660008E0C41C00E5F1F4FFE01849190E2980FC7
:10267000983050F48770FE2D01C0FF0F8A95EAF75D
:102680008F2F0E94931514C00E94C40B2DC00E5FA3
:102690001F4FFE01849190E2980F983060F487708C
:1026A000FE2D01C0FF0F8A95EAF78F2F0E94991522
:1026B0000E94BE1519C00E948E0C16C00E5F1F4FDF
:1026C000FE01C491CC2381F08FE99FE00197F1F7DF
:1026D00000C00000C150F6CF0E5F1F4FFE01F49006
:1026E00003C00E94C40B8E018F2D882309F49FCF55
:1026F000EFE9FFE03197F1F700C000008150F5CF1E
:10270000DF91CF911F910F91FF90EF900895089561
:1027100008950C9488130C9489130E948B13609372
:102720009D0170939E0180939F019093A0010C9452
:10273000720F0C948D130F931F9300919D011091B4
:102740009E0120919F013091A001602B712B822B63
:10275000932B1F910F910C948D130F931F93009146
:102760009D0110919E0120919F013091A001602355
:102770007123822393231F910F910C948D130F9338
:102780001F9300919D0110919E0120919F01309116
:10279000A00160277127822793271F910F910C9426
:1027A0008D130C9488130E94D11360939901709338
:1027B0009A0180939B0190939C010C94720F60E0AE
:1027C00070E0CB010C94D3130F931F9341E050E0C2
:1027D00060E070E08A019B0104C0000F111F221FFE
:1027E000331F8A95D2F7C901B8011F910F910C943C
:1027F000D3130F931F9341E050E060E070E004C0FA
:10280000440F551F661F771F8A95D2F78091990153
:1028100090919A01A0919B01B0919C018A019B012A
:10282000082B192B2A2B3B2BC901B8011F910F91A3
:102830000C94D3130F931F9341E050E060E070E0DD
:1028400004C0440F551F661F771F8A95D2F7409525
:102850005095609570958091990190919A01A09101
:102860009B01B0919C018A019B01082319232A2313
:102870003B23C901B8011F910F910C94D3130F93FF
:102880001F9341E050E060E070E004C0440F551F2A
:10289000661F771F8A95D2F78091990190919A01CE
:1028A000A0919B01B0919C018A019B0108271927E7
:1028B0002A273B27C901B8011F910F910C94D3130C
:1028C0000F931F930091990110919A0120919B0100
:1028D00030919C01602B712B822B932B1F910F91B8
:1028E0000C94D3130F931F930091990110919A01A7
:1028F00020919B0130919C016023712382239323BB
:102900001F910F910C94D3130F931F930091990172
:1029100010919A0120919B0130919C0160277127B1
:10292000822793271F910F910C94D3130895990F29
:10293000990F890FE82FE695E695E695877051E0A7
:1029400001C0550F8A95EAF785E0E89FF001112450
:10295000E657FE4F20E030E070E04081CB01022ED0
:1029600002C0969587950A94E2F781708195842735
:102970008523842781932F5F3F4F2530310569F7E9
:102980000895990F990F890F682F6695669566953A
:10299000982F977085E0689FB001112440E050E0C7
:1029A00080E0FB01E40FF51FE657FE4F208130E089
:1029B000092E02C0369527950A94E2F72170332735
:1029C000042E01C0220F0A94EAF7822B4F5F5F4F5B
:1029D0004530510531F70895BF92CF92DF92EF92C3
:1029E000FF920F931F93CF93DF938C01C0909901B7
:1029F000D0909A01E0909B01F0909C0180919D0104
:102A000090919E01A0919F01B091A001C82AD92A5E
:102A1000EA2AFB2ACFE1D0E0D701C6010C2E04C080
:102A2000B695A795979587950A94D2F780FD04C02F
:102A3000219790F7B12C07C0BC2EB8018C2F0E94B3
:102A400063040197A9F38B2DDF91CF911F910F9113
:102A5000FF90EF90DF90CF90BF900895CF93DF93DA
:102A6000EC010E94EC14BE010E946304DF91CF913F
:102A700008951F93CF93DF93EB0190915101992318
:102A800021F0CB010E942E1513C0882349F0CB0101
:102A90000E94EC14182F682FCE010E94971404C0D6
:102AA000CB010E94C114182FBE01812F0E94630424
:102AB000DF91CF911F9108958091A1018595859512
:102AC000859508958091A101877008959091A10145
:102AD000977081E009F480E008958091AD01089538
:102AE0009091AD01892B8093AD01089580959091CF
:102AF000AD0189238093AD0108958093AD010895C0
:102B00001092AD0108959091AC01892B8093AC0196
:102B1000089580959091AC0189238093AC0108952C
:102B20001092AC0108959091AB01892B8093AB0179
:102B3000089580959091AB0189238093AB0108950E
:102B40001092AB0108958091A201089508950C940C
:102B5000A6150C94A7159091A201981721F08093C7
:102B6000A2010C94A91508958091A201882329F04F
:102B70001092A20180E00C94A9150895E091000143
:102B8000F09101018091AD018083E0910001F0910D
:102B9000010190818091AC01892B8083E09100013B
:102BA000F091010190818091AB01892B808380910C
:102BB000A201882381F0E0910001F0910101908150
:102BC000892B808380910001909101010E94C81699
:102BD00081110E94B41580910001909101010C9423
:102BE000820A0C94A61598E0899F90011124262B47
:102BF0002093A1010E94F9138091A10185958595EB
:102C000085950C94F1151092A10180E00C94F115BA
:102C10002091A101809582238093A101982F977024
:102C200079F430E0482F082E000C550B2417350797
:102C300039F08595859585950E941A140C94031694
:102C4000089580E090E00E94812121E08C3E9E4F1B
:102C500009F020E0822F089582E090E00C94792121
:102C600083E090E00C947921CF9384E090E00E947F
:102C70007921C82F81E290E00E9479212C2F30E049
:102C8000A901582BCA01CF910895CF93C92F682F5E
:102C900084E090E00E9487216C2F81E290E0CF9148
:102CA0000C948721AB01BC018FE090E00C9499213A
:102CB000AB01BC0183E190E00C94992160E070E0ED
:102CC000CB010C94581660E070E0CB010E945216C4
:102CD0000C945E166CEE7EEF80E090E00E94A521E1
:102CE00060E082E090E00E94872160E083E090E075
:102CF0000E94872110929D0110929E0110929F01C7
:102D00001092A00160E084E090E00E94872160E0E2
:102D100081E290E00E94872160E085E090E00E94DF
:102D2000872160E086E090E00E9487216FEF87E0D6
:102D300090E00E94872140E050E0BA0188E090E0F6
:102D40000E94992160E08DE090E00E94872140E0A0
:102D500050E0BA0188E190E00E94992160E087E1AB
:102D600090E00E94872140E050E0BA018CE190E0C1
:102D70000E94992160E080E290E00E9487210C94FB
:102D800063160C946A16682F8EE090E00C948721ED
:102D9000FC01329697E080E0915029F021912223A6
:102DA000D9F38F5FF9CF08959C01FC0132969FEF14
:102DB00080E04191461789F09F3F19F4411101C00D
:102DC000982F8F5F8630A9F79F3F39F0F901E90FFF
:102DD000F11D97FDFA956283089508959C012A5F7D
:102DE0003F4FFC014281461301C0128201968217B7
:102DF0009307B9F708950C94D4160C94EE16029626
:102E000026E0FC0111922A95E9F7089508950C94A3
:102E100006170C940617CF930E9409170E945207B9
:102E20000E940717C0E08C2F0E94FB06811104C08E
:102E3000CF5FC530C1F701C081E0CF9108950C94F8
:102E400006170C941F170E9421178091D601843019
:102E500049F11092AF0120E488E190E00FB6F894B8
:102E6000A895809360000FBE2093600080E00E94D0
:102E700073020E94211783B7817F846083BF83B769
:102E8000816083BF7894889583B78E7F83BF0FB6A8
:102E9000F894A895809160008861809360001092FA
:102EA00060000FBE08950C9406170E948C0F0E94BC
:102EB000760A0E9473020C9453171F920F920FB65A
:102EC0000F9211248F939F93AF93BF938091AF0183
:102ED000811113C08091CC019091CD01A091CE01C0
:102EE000B091CF014196A11DB11D8093CC0190936B
:102EF000CD01A093CE01B093CF01BF91AF919F912F
:102F00008F910F900FBE0F901F90189582E084BD97
:102F100093E095BD9AEF97BD80936E0008952FB70B
:102F2000F8948091CC019091CD01A091CE01B09107
:102F3000CF012FBF0895CF92DF92EF92FF920F93B0
:102F40001F932FB7F8944091CC015091CD0160911F
:102F5000CE017091CF012FBF6A017B01EE24FF24C7
:102F60008C0120E030E0C016D106E206F30610F432
:102F7000415051099A01281B390BC9011F910F912A
:102F8000FF90EF90DF90CF90089578941F920F926A
:102F90000FB60F9211248F939F93AF93BF9380919D
:102FA000CC019091CD01A091CE01B091CF010196BD
:102FB000A11DB11D8093CC019093CD01A093CE01B2
:102FC000B093CF01BF91AF919F918F910F900FBEA2
:102FD0000F901F90189587E797E7909301088093CB
:102FE00000089AE088E10FB6F894A89580936000F5
:102FF0000FBE90936000FFCF0E942116811102C086
:103000000E94C1160E942C168093AE010E943416B5
:103010009093D1018093D0010E943016682F70E008
:1030200080E090E00C9499138091B30180FF0BC075
:103030006091050185E0689FB00111247595679541
:10304000759567952BC081FF09C06091050185E0EA
:10305000689FB00111247595679520C082FF07C055
:103060006091050185E0689FB001112417C090911F
:10307000B2019923D1F060910401961788F720914D
:10308000050185E0289F90011124929FA001939F44
:10309000500D112470E0CA010E944B216038710567
:1030A00040F46115710519F406C065E070E0862FE3
:1030B00008958FE7089581E008958091B30180FF1E
:1030C00008C06091030170E07595679575956795E7
:1030D00021C081FF06C06091030170E0759567957E
:1030E00019C082FF04C06091030170E010C090918C
:1030F000B201992399F0609102019617A0F780918F
:103100000301899FC001112470E00E944B216038A7
:10311000710540F46115710519F406C061E070E0B5
:10312000862F08958FE7089581E00895803F21F468
:103130000E941418819504C0813F29F40E9414183C
:103140008093B7010895823F21F40E94141881955D
:1031500004C0833F29F40E9414188093B601089597
:10316000893F19F40E945D1805C08A3F31F40E941E
:103170005D1881958093B80108958B3F21F40E94DA
:103180005D18819504C08C3F29F40E945D188093DE
:10319000B9010895843F21F48091B501816017C081
:1031A000853F21F48091B501826011C0863F21F4F2
:1031B0008091B50184600BC0873F21F48091B501F7
:1031C000886005C0883F31F48091B50180618093AB
:1031D000B50108958D3F21F48091B30181600BC04A
:1031E0008E3F21F48091B301826005C08F3F29F4A6
:1031F0008091B30184608093B3010895803F39F4D6
:103200008091B70187FF6CC01092B70169C0813F00
:1032100029F48091B7011816BCF362C09091B601F1
:10322000823F29F497FF5CC01092B60159C0833FDA
:1032300019F41916CCF354C0893F41F48091B801B8
:1032400018160CF04DC01092B8014AC08A3F29F4FC
:103250008091B80187FF44C0F6CF8B3F39F480914D
:10326000B90187FF3DC01092B9013AC08C3F29F4E3
:103270008091B9011816BCF333C0843F21F48091CA
:10328000B5018E7F17C0853F21F48091B5018D7FF8
:1032900011C0863F21F48091B5018B7F0BC0873F21
:1032A00021F48091B501877F05C0883F31F480917A
:1032B000B5018F7E8093B50113C08D3F21F48091BD
:1032C000B3018E7F0BC08E3F21F48091B3018D7FBF
:1032D00005C08F3F29F48091B3018B7F8093B301A8
:1032E0008091B60181110EC08091B70181110AC091
:1032F0008091B801811106C08091B901811102C08D
:103300001092B201089584EB91E00E948D0A0E9410
:103310008F179093B1018093B00108951F93CF93BD
:10332000DF938091B0019091B1010E949B17AC0195
:103330009091B201992321F02091060130E006C05E
:10334000209107018AE0289F90011124421753071A
:1033500008F47BC08091B601C091B701D091B8014B
:103360001091B901811107C0C1116BC0D11169C0A1
:10337000111167C06AC09F3F19F09F5F9093B2011F
:10338000181624F40E9414188093B6018091B60197
:1033900087FF05C00E94141881958093B6011C1602
:1033A00024F40E9414188093B7018091B70187FF1D
:1033B00005C00E94141881958093B7013091B60121
:1033C0003323E1F02091B7012223C1F045EB340310
:1033D000C0011124992319F09093B60103C081E034
:1033E0008093B60135EB2303C0011124992319F012
:1033F0009093B70103C081E08093B7011D1624F4B8
:103400000E945D188093B8018091B80187FF05C0C4
:103410000E945D1881958093B801111624F40E94D2
:103420005D188093B9018091B90187FF05C00E94A2
:103430005D1881958093B901DF91CF911F910C9414
:1034400083199F3F09F099CFAACFDF91CF911F91A8
:103450000895E4EBF1E086E0DF011D928A95E9F73B
:103460001092B2011092B30108958091C2010895A3
:103470000F931F93CF93DF9300D01F92CDB7DEB78A
:103480008C010E94901C823011F0843021F584E080
:1034900089831B830A8382E08093E9008FEF9091F8
:1034A000E800815095FD06C095ED9A95F1F7000072
:1034B0008111F5CF8091E80085FF0DC040E050E01C
:1034C00063E070E0CE0101960E94AD1C8091E8009F
:1034D0008E778093E8000F900F900F90DF91CF913F
:1034E0001F910F910895CF93DF9300D01F92CDB716
:1034F000DEB72091D601243031F523E029838058AE
:1035000091099B838A8382E08093E9008FEF9091F9
:10351000E800815095FD06C095ED9A95F1F7000001
:103520008111F5CF8091E80085FF0DC040E050E0AB
:1035300063E070E0CE0101960E94AD1C8091E8002E
:103540008E778093E8000F900F900F90DF91CF91CE
:103550000895CF93DF93EC010E94901C823011F00C
:103560008430F9F482E08093E9008FEF9091E800D5
:10357000815095FD06C095ED9A95F1F700008111F7
:10358000F5CF8091E80085FF0CC040E050E066E098
:1035900070E0CE010E94AD1C8091E8008E77809390
:1035A000E800DF91CF910895CF93DF93EC010E9463
:1035B000901C823011F0843039F581E08093E9006D
:1035C0008FEF9091E800815095FD06C095ED9A959A
:1035D000F1F700008111F5CF8091E80085FF14C05C
:1035E00040E050E068E070E0CE010E94AD1C8091A8
:1035F000E8008E778093E80088E0FE01AAEBB1E056
:1036000001900D928A95E1F7DF91CF910895809115
:10361000D501811109C00E943E1E0E949B1E80910F
:10362000E20084608093E20008951092D50108952D
:10363000089508950C94551742E061EC81E00E94D2
:10364000B71D42E261EC82E00C94B71D8091D80175
:10365000833009F460C030F4813071F0823009F4B5
:1036600099C008958A3009F485C08B3009F46BC085
:10367000893009F0A7C020C08091D701813A09F0B4
:10368000A1C08091E800877F8093E8008091DB01F2
:103690009091DC01892B21F468E08AEB91E003C072
:1036A00060E080E090E070E00E94F81C8091E8000B
:1036B0008B778093E80008958091D701813209F0DB
:1036C00081C08091DB019091DC01029708F07AC003
:1036D0008091E800877F8093E8008091E80082FD78
:1036E00005C08091D6018111F8CF6CC02091F30004
:1036F0008091F20090E0922B029729F48091F100E2
:103700008B7F813021F48091F1008093C201809100
:10371000E8008B7753C08091D701813A09F052C0FD
:103720008091DB019091DC01892B09F04BC08091E5
:10373000E800877F8093E8008091E80080FFFCCF5D
:103740008091120136C08091D7018132D9F58091E4
:10375000DB019091DC01892BA9F58091E800877F3E
:103760008093E8000E94EC1D8091D90180931201A2
:103770000C948C0F8091D701813221F58091E80063
:10378000877F8093E8000E94EC1D8091DA0180938E
:10379000C30108958091D701813AA1F48091E80096
:1037A000877F8093E8008091E80080FFFCCF8091C4
:1037B000C3018093F1008091E8008E778093E80048
:1037C0000C94EC1D089584B7877F84BF0FB6F894DE
:1037D000A8958091600088618093600010926000DD
:1037E0000FBE80E880936100109261000E94D70AAA
:1037F0000E943E1E0E949B1E8091E2008460809386
:10380000E20078940E9430210E94DF0A88E091E073
:103810000E94710A8091D601853069F40E942317B5
:103820008091D4018823B1F30E940B17882391F370
:103830000E94971CEFCF0E94E70AECCF0C94201C4B
:10384000292F332723303105C9F060F421303105A9
:1038500081F02230310509F04AC08BE390E028E97D
:1038600031E049C02132310511F12232310579F1BF
:103870003EC082E190E023ED31E03DC099278130E8
:10388000910561F040F08230910559F0039779F588
:10389000E4E7F1E008C0E4E9F1E005C0E4E8F1E0C4
:1038A00002C0EAE7F1E0849190E09F0124C0611535
:1038B000710541F061307105D1F489E090E023ECAD
:1038C00031E019C089E090E02AEA31E014C06115C6
:1038D000710541F06130710551F485E890E025EE05
:1038E00031E009C080E490E02AE632E004C080E0E4
:1038F00090E020E030E0FA013183208308950895BC
:10390000CF93C82F0E947F1CC093C401CF9108950C
:103910008091D601843011F081E0089582E008950D
:103920008091C401811102C00C94881C089580E12B
:1039300089BD82E189BD09B400FEFDCF8091D80028
:103940008F7D8093D8008091E00082608093E000BA
:103950008091E00081FDFCCF0895CF92DF92EF923D
:10396000FF920F931F93CF93DF93EC018B017A01AA
:103970000E940B1E811133C0E114F10439F0F701EC
:1039800080819181081B190BC80FD91FC12CD12C24
:103990000115110519F18091E80085FD16C080918F
:1039A000E8008E778093E800E114F10449F0F70114
:1039B00080819181C80ED91ED182C08285E00FC05E
:1039C0000E940B1E882321F30AC089918093F10085
:1039D00001501109FFEFCF1ADF0ADACF80E0DF9143
:1039E000CF911F910F91FF90EF90DF90CF900895AE
:1039F0002091DD013091DE012617370748F061156F
:103A0000710539F42091E8002E772093E80001C079
:103A1000B901FC0120E06115710579F18091D601B1
:103A20008823F1F18530F1F18091E80083FD3CC0FD
:103A30008091E80082FD2EC08091E80080FFEBCFEE
:103A40002091F3008091F20090E0922B61157105B6
:103A500051F08830910538F421912093F1006150A4
:103A600071090196F3CF21E0089709F020E08091D9
:103A7000E8008E778093E800CECF2111CFCF0AC027
:103A80008091D601882361F0853061F08091E80053
:103A900083FD0AC08091E80082FFF2CF80E00895A4
:103AA00082E0089583E0089581E008952091DD018A
:103AB0003091DE012617370748F06115710539F49A
:103AC0002091E8002E772093E80001C0B901FC01A5
:103AD00020E06115710591F18091D601882309F4E8
:103AE00040C0853009F43FC08091E80083FD3DC0AF
:103AF0008091E80082FD2FC08091E80080FFE9CF2F
:103B00002091F3008091F20090E0922B61157105F5
:103B100059F08830910540F424912093F1003196BA
:103B2000615071090196F2CF21E0089709F020E079
:103B30008091E8008E778093E800CBCF2111CCCF25
:103B40000AC08091D601882361F0853061F08091B0
:103B5000E80083FD0AC08091E80082FFF2CF80E098
:103B6000089582E0089583E0089581E00895982FF4
:103B7000973068F59093E900981739F07091EC0050
:103B80002091ED005091F00003C0242F762F50E0DB
:103B900021FD02C09F5FECCF3091EB003E7F309360
:103BA000EB003091ED003D7F3093ED003091EB0064
:103BB00031603093EB007093EC002093ED00509354
:103BC000F0002091EE0027FDE5CF80E008958F7092
:103BD0008093E90081E008958091D70187FF11C0AB
:103BE0008091E80082FD05C08091D6018111F8CF57
:103BF00011C08091E8008B770BC08091D60188239B
:103C000049F08091E80080FFF8CF8091E8008E773E
:103C10008093E80008952091E4003091E50095E656
:103C20004091EC00842F817040FF23C08091E80018
:103C300080FD1DC08091D601882399F0853099F0D0
:103C40008091EB0085FD11C04091E4005091E500AA
:103C50002417350729F3915011F09A01E1CF84E040
:103C6000089582E0089583E0089581E0089580E05A
:103C700008954091E80042FFDDCF08950E94AC1EF8
:103C80000E94B41EE0EEF0E0808181608083E8ED68
:103C9000F0E080818F77808319BCA7EDB0E08C9134
:103CA0008E7F8C9380818F7E80831092D5010895C2
:103CB0000F931F93CF93DF930E94AC1E0E94B41EFC
:103CC000C8EDD0E088818F77888388818068888379
:103CD00088818F7D888319BC1092D6011092D20101
:103CE0001092D4011092D30100EE10E0F80180810F
:103CF0008B7F808388818160888342E060E080E000
:103D00000E94B71DE1EEF0E080818E7F8083E2EEBD
:103D1000F0E0808181608083808188608083F80109
:103D200080818E7F8083888180618883DF91CF91BD
:103D30001F910F910895E8EDF0E080818F7E8083E0
:103D4000E7EDF0E080818160808384E082BF81E0E4
:103D50008093D5010C94581EE8EDF0E080818E7FB1
:103D600080831092E20008951092DA001092E10030
:103D700008951F920F920FB60F9211242F933F9325
:103D80004F935F936F937F938F939F93AF93BF9363
:103D9000EF93FF938091E10082FF0BC08091E200DE
:103DA00082FF07C08091E1008B7F8093E1000E9439
:103DB0002F218091DA0080FF1FC08091D80080FF02
:103DC0001BC08091DA008E7F8093DA008091D90049
:103DD00080FF0DC080E189BD82E189BD09B400FE8C
:103DE000FDCF81E08093D6010E94071B05C019BC5E
:103DF0001092D6010E94151B8091E10080FF19C02E
:103E00008091E20080FF15C08091E2008E7F809358
:103E1000E2008091E20080618093E2008091D8000E
:103E200080628093D80019BC85E08093D6010E94FF
:103E3000191B8091E10084FF30C08091E20084FF73
:103E40002CC080E189BD82E189BD09B400FEFDCFAF
:103E50008091D8008F7D8093D8008091E1008F7E83
:103E60008093E1008091E2008F7E8093E200809158
:103E7000E20081608093E2008091D201882311F0FA
:103E800084E007C08091E30087FD02C081E001C0AB
:103E900083E08093D6010E941A1B8091E10083FF8A
:103EA00029C08091E20083FF25C08091E100877FD7
:103EB0008093E10082E08093D6011092D20180913C
:103EC000E1008E7F8093E1008091E2008E7F8093FD
:103ED000E2008091E20080618093E20042E060E0D5
:103EE00080E00E94B71D8091F00088608093F00010
:103EF0000E94181BFF91EF91BF91AF919F918F91FD
:103F00007F916F915F914F913F912F910F900FBED5
:103F10000F901F9018951F920F920FB60F921124B9
:103F20002F933F934F935F936F937F938F939F93C1
:103F3000AF93BF93CF93DF93EF93FF93C091E900CB
:103F4000CF708091EC00D82FD17080FDD0E8109216
:103F5000E9008091F000877F8093F00078940E94C0
:103F6000CF1F1092E9008091F00088608093F000EC
:103F7000CD2BCF70C093E900FF91EF91DF91CF91EE
:103F8000BF91AF919F918F917F916F915F914F9171
:103F90003F912F910F900FBE0F901F9018951F9378
:103FA000CF93DF93CDB7DEB7AA970FB6F894DEBFF5
:103FB0000FBECDBFE7EDF1E08091F100819321E0EC
:103FC000EF3DF207C9F70E94261B8091E80083FFAE
:103FD0002EC18091D7019091D801492F50E04A30ED
:103FE000510508F024C1FA01EC58FF4F0C945F21F1
:103FF000803821F0823809F01AC108C08091D301BD
:104000009091D401992389F082600FC08091DB01E7
:104010008F70873008F00BC18093E9008091EB002E
:1040200085FB882780F91092E9009091E800977F3E
:104030009093E8008093F1001092F100D1C0282FF6
:104040002D7F09F0F4C0882319F0823061F0EFC0B1
:104050008091D901813009F0EAC0933009F080E005
:104060008093D4012EC08091D90181112AC0809102
:10407000DB018F702FEF280F263008F0D8C0809317
:10408000E9002091EB0020FF1CC0933021F48091C7
:10409000EB00806214C09091EB0090619093EB0074
:1040A00021E030E0A90102C0440F551F8A95E2F7D4
:1040B0004093EA001092EA008091EB0088608093C0
:1040C000EB001092E9008091E800877F8093E80080
:1040D0000E94EC1DACC08111AAC01091D9011F77BC
:1040E0008091E3008078812B8093E3008091E80049
:1040F000877F8093E8000E94EC1D8091E80080FF9C
:10410000FCCF8091E30080688093E300111102C02E
:1041100082E001C083E08093D60189C0805882305C
:1041200008F085C08091D9019091DA018C3D53E06F
:10413000950779F583E08A838AE289834FB7F894FB
:10414000DE01139620E03EE051E2E32FF0E05093D1
:104150005700E49120FF03C0E295EF703F5FEF70DE
:104160008E2F90E0EA3010F0C79601C0C0968D9374
:104170009D932F5F243149F74FBF8091E800877FDF
:104180008093E8006AE270E0CE0101960E94F81C7C
:1041900016C06091DB017091DC01AE014F5F5F4F93
:1041A0000E941E1CBC01892B09F441C09091E800BB
:1041B000977F9093E80089819A810E94561D809193
:1041C000E8008B778093E80032C0803881F58091D9
:1041D000E800877F8093E8008091D2018093F1000E
:1041E0008091E8008E7772CF811121C08091D90132
:1041F0009091DA0199270297D4F48091E800877FA3
:104200008093E8008091D9018093D2010E94EC1D37
:104210008091D201811106C08091E30087FD02C028
:1042200081E001C084E08093D6010E941C1B809134
:10423000E80083FF0AC08091E800877F8093E80050
:104240008091EB0080628093EB00AA960FB6F89401
:10425000DEBF0FBECDBFDF91CF911F9108950895AE
:10426000CF938091D6018823A1F0C091E900CF704F
:104270009091EC00892F817090FD80E8C82B1092FE
:10428000E9008091E80083FD0E94CF1FCF70C093AA
:10429000E900CF91089597FB072E16F4009407D0FC
:1042A00077FD09D00E94652107FC05D03EF490956A
:1042B00081959F4F0895709561957F4F0895EE0FFA
:1042C000FF1F0590F491E02D0994AA1BBB1B51E13F
:1042D00007C0AA1FBB1FA617B70710F0A61BB70B76
:1042E000881F991F5A95A9F780959095BC01CD011B
:1042F0000895F999FECF92BD81BDF89A992780B5AE
:104300000895A8E1B0E042E050E00C94AD21262FE2
:10431000F999FECF92BD81BDF89A019700B40216BB
:1043200039F01FBA20BD0FB6F894FA9AF99A0FBE69
:1043300008950396272F0E9488210E948721252F08
:104340000E948821242F0C9488210196272F0E94F7
:1043500088210C948721DC01CB01FC01F999FECF67
:1043600006C0F2BDE1BDF89A319600B40D924150FD
:0A4370005040B8F70895F894FFCF0D
:10437A00A3012808140A321E351AD41AA91A731A64
:10438A00381A01919094326697C6343500FF0100BD
:10439A00010000FFFF0000010001FF00F531F4F702
:00000001FF
